789131712994120 BI ct 10 caps              00000044080000005920MOMENTA   0000004288000000576300000042310000005688000000396500000053392 X030420180
789131712995820 BI ct 30 caps              00000109880000014757MOMENTA   0000010690000001436700000105470000014180000000988500000133112 X030420180
789131715870520 BI ct 5 caps               00000029390000003947MOMENTA   0000002859000000384200000028210000003793000000264400000035602 X030420180
7896006211808A CURITYBINA 0,1g/ml sol top f00000007980000001062UNIAO QUIM0000000776000000103300000007650000001020000000071500000009560 M071120180
7896004817477A SAUDE DA MULHER sus fr 150ml00000010820000001440EMS MARCAS0000001052000000140200000010370000001382000000097000000012960 M191120180
7897595900593AAS 100mg cx 200 comp e.m     00000089800000011953SANOFI-AVE0000008727000001162700000086060000011471000000804800000107500 X040420180
7897595900029AAS 100mg cx 30 comp          00000013040000001736SANOFI-AVE0000001267000000168800000012490000001665000000116800000015600 X040420180
7897595901927AAS 100mg cx 120 comp         00000050070000006664SANOFI-AVE0000004866000000648300000047980000006395000000448700000059940 X040420180
7897595903693AAS PROTECT 100mg cx 30 comp r00000012710000001692SANOFI-AVE0000001235000000164500000012180000001624000000113900000015210 M240420180
7896331702545ABC 10mg/g creme derm bg 20g  00000009560000001271KLEY HERTZ0000000929000000123700000009160000001221000000000000000000000 M020420180
7896331702583ABC 10mg/ml sol spray fr 30ml 00000023790000003167KLEY HERTZ0000002312000000308000000022800000003039000000000000000000000 M020420180
7898587900201ABELCET 5 mg/ml sus inj iv 1fa00002816320000000000TEVA      0000274763000000000000002714530000000000000025602900000000001 H180420180
7896016806322ABILIFY 10mg cx 10 comp       00000192930000026671BRISTOL-MY0000018822000002602000000185950000025706000001753900000242471 M141120180
7896016806001ABILIFY 15mg cx 30 comp       00000868200000120024BRISTOL-MY0000084702000011709600000836820000115685000007892700001091121 M141120180
7896241221853ABLOK 25mg cx 30 comp         00000010110000001397BIOLAB    0000000986000000136300000009740000001347000000091900000012701 M020420180
7896241225523ABLOK 50mg cx 30 comp         00000018830000002603BIOLAB    0000001837000000254000000018150000002509000000171200000023671 M020420180
7896241225530ABLOK 100mg cx 30 comp        00000030820000004260BIOLAB    0000003006000000415600000029700000004106000000280100000038731 M020420180
7896241225127ABLOK PLUS 50+12,5mg cx 30 com00000024480000003385BIOLAB    0000002389000000330200000023600000003262000000222600000030771 M020420180
7896241225547ABLOK PLUS 100+25mg cx 30 comp00000039490000005460BIOLAB    0000003853000000532600000038060000005262000000359000000049631 M020420180
7896241225257ABLOK PLUS 25+12,5mg cx 30 com00000013260000001832BIOLAB    0000001293000000178800000012780000001766000000120500000016661 M020420180
7896112411512ABLOK PLUS 50+12,5mg cx 60 com00000048980000006771BIOLAB    0000004778000000660600000047210000006526000000445200000061551 M020420180
7896112411437ABLOK PLUS 100+25mg cx 60 comp00000078980000010919BIOLAB    0000007706000001065300000076130000010524000000718000000099261 M020420180
7896112419730ABLOK PLUS 25+12,5mg cx 90 com00000039780000005499BIOLAB    0000003881000000536500000038340000005300000000361600000049991 M020420180
7896112419761ABLOK PLUS 50+12,5mg cx 90 com00000073460000010155BIOLAB    0000007167000000990800000070800000009788000000667800000092321 M020420180
7896112419778ABLOK PLUS 100+25mg cx 90 comp00000118490000016380BIOLAB    0000011560000001598100000114200000015788000001077200000148911 M020420180
7896112411529ABLOK PLUS 25+12,5mg cx 60 com00000026510000003665BIOLAB    0000002586000000357500000025550000003532000000241000000033321 M020420180
7898040325565ABRETIA 30mg cx 30 cap        00000052710000007287FQM/FARMA 0000005143000000710900000050810000007025000000000000000000001 M030420180
7898040325602ABRETIA 60mg cx 30 cap        00000100050000013831FQM/FARMA 0000009761000001349400000096430000013331000000000000000000001 M030420180
7898040320973ABRILAR 7mg xpe fr 100ml+cm   00000035450000004719FQM/FARMA 0000003445000000459100000033980000004529000000000000000000000 X030420180
7898040321642ABRILAR 65mg po efv 10 saches 00000036560000004866FQM/FARMA 0000003553000000473400000035040000004670000000000000000000000 X030420180
7898040321970ABRILAR 7mg xpe fr 200ml+cm   00000059090000007865FQM/FARMA 0000005743000000765100000056630000007548000000000000000000000 X030420180
7896181900191ACARSAN 250mg/ml emu top fr 8000000009260000001233BIOSINTETI0000000900000000119900000008880000001184000000083000000011090 M140520180
7896658000010ACCUVIT cx 30 comp rev        00000079660000010603ACHE      0000007742000001031500000076350000010177000000713900000095360 X140520180
7898148292790ACEBROFILINA 5mg/ml xpe cx 50 00000464200000000000PRATI, DON0000045288000000000000000447420000000000000004220000000000001GH211120180
7896523209098ACEBROFILINA 10mg xpe cx 50fr 00000358080000000000CIMED     0000034934000000000000000345130000000000000003255200000000001GH081120180
7896523209104ACEBROFILINA 5mg/ml xpe cx 50f00000350320000000000CIMED     0000034178000000000000000337660000000000000003184800000000001GH081120180
7896181924098ACEBROFILINA 25mg/5ml xpe fr p00000014770000002042BIOSINTETI0000001441000000199200000014240000001969000000134300000018571GM140520180
7891317002688ACEBROFILINA 5mg/ml xpe fr 12000000015230000002105EUROFARMA 0000001486000000205400000014680000002029000000138500000019151GM230420180
7891317002695ACEBROFILINA 10mg/ml xpe fr 1200000021480000002969EUROFARMA 0000002096000000289800000020710000002863000000195300000027001GM230420180
7896004710464ACEBROFILINA 25mg fr 120ml+cm 00000015220000002104EMS GENERI0000001485000000205300000014670000002028000000138400000019131GM191120180
7896004710471ACEBROFILINA 50mg fr 120ml+cm 00000021470000002968EMS GENERI0000002095000000289600000020700000002862000000195200000026991GM191120180
7896181924081ACEBROFILINA 50mg xpe fr 120ml00000020860000002884BIOSINTETI0000002035000000281300000020100000002779000000189600000026211GM140520180
7894916140485ACEBROFILINA 50mg xpe fr 120ml00000020900000002889LEGRAND GE0000002039000000281900000020140000002784000000190000000026271GM191120180
7896004710488ACEBROFILINA 25mg/5ml xpe fr 100000015440000002134GERMED GEN0000001506000000208200000014880000002057000000140300000019401GM191120180
7896004710495ACEBROFILINA 50 mg xpe fr 120m00000021030000002907GERMED GEN0000002052000000283700000020270000002802000000191200000026431GM191120180
7896422509251ACEBROFILINA 5mg xpe fr 120ml+00000015210000002103MEDLEY    0000001484000000205200000014660000002027000000138300000019121GM020420180
7899095233027ACEBROFILINA 10mg xpe fr 120ml00000021630000002990GEOLAB    0000002110000000291700000020850000002882000000196600000027181GM211120180
7899095233034ACEBROFILINA 5mg xpe fr 120ml 00000016160000002234GEOLAB    0000001577000000218000000015580000002154000000146900000020311GM211120180
7896523209111ACEBROFILINA 10mg/ml xpe fr 1200000012720000001758CIMED     0000001241000000171600000012260000001695000000115700000015991GM081120180
7896523209128ACEBROFILINA 5mg/ml xpe fr 12000000011950000001652CIMED     0000001166000000161200000011520000001593000000108600000015011GM081120180
7894916140492ACEBROFILINA 25mg/5ml xpe fr x00000015440000002134LEGRAND GE0000001506000000208200000014880000002057000000140300000019401GM191120180
7896714214115ACEBROFILINA 5mg xpe fr 120ml 00000015190000002100NEO QUIMIC0000001482000000204900000014640000002024000000138100000019091GM210520180
7896714214146ACEBROFILINA 10mg xpe fr 120ml00000020610000002849NEO QUIMIC0000002011000000278000000019870000002747000000187400000025911GM210520180
7896862980153ACEBROFILINA 5mg/ml xpe fr 12000000016140000002232MEDQUIMICA0000001575000000217700000015560000002151000000146800000020291GM030420180
7896862981464ACEBROFILINA 10mg/ml xpe fr 1200000023910000003306MEDQUIMICA0000002333000000322500000023050000003186000000217400000030051GM030420180
7899620912731ACEBROFILINA 10 mg/ml xpe ct f00000015380000002126GLOBO     0000001500000000207400000014820000002049000000139800000019331GM210520180
7899620912748ACEBROFILINA 5 mg/ml xpe ct fr00000012920000001786GLOBO     0000001260000000174200000012450000001721000000117400000016231GM210520180
7896112191537ACEBROFILINA 10mg xpe fr 120ml00000021270000002940TEUTO     0000002075000000286900000020500000002834000000193400000026741GM131120180
7896112191490ACEBROFILINA 5mg/ml xpe fr 12000000015230000002105TEUTO     0000001486000000205400000014680000002029000000138500000019151GM131120180
7895296271035ACEBROFILINA 50mg+5ml xpe fr 100000020470000002830NOVA QUIMI0000001997000000276100000019730000002728000000186100000025731GM211120180
7895296271042ACEBROFILINA 25mg/5ml xpe fr 100000014540000002010NOVA QUIMI0000001419000000196200000014020000001938000000132200000018281GM211120180
7898049795260ACECLOFENACO 100mg cx 12 comp 00000022770000003147VITAMEDIC 0000002221000000307100000021950000003034000000207000000028621GM020420180
7897076909312ACECLOFENACO 100mg cx 12 comp 00000023470000003245RANBAXY   0000002290000000316600000022620000003127000000213400000029501GM120920180
7897076909343ACECLOFENACO 100mg cx 24 comp 00000043900000006069RANBAXY   0000004283000000592100000042310000005849000000399100000055171GM120920180
7896004716541ACECLOFENACO creme bg 30g     00000017040000002268GERMED GEN0000001656000000220600000016330000002177000000152700000020400GM191120180
7896004716534ACECLOFENACO 15mg creme derm b00000017040000002268EMS GENERI0000001656000000220600000016330000002177000000152700000020400GM191120180
7895296118064ACECLOFENACO 100mg cx 12 comp 00000023320000003224NOVA QUIMI0000002275000000314500000022480000003108000000212000000029311GM211120180
7895296118088ACECLOFENACO 100mg cx 24 comp 00000043820000006058NOVA QUIMI0000004275000000591000000042230000005838000000398400000055081GM211120180
7896004722146ACECLOFENACO 100mg cx 2bl x 6 00000023810000003292GERMED GEN0000002323000000321100000022950000003173000000216500000029931GM191120180
7896004722153ACECLOFENACO 100mg cx 4bl x 6 00000047600000006580GERMED GEN0000004644000000642000000045880000006343000000432700000059821GM191120180
7896004722122ACECLOFENACO 100mg cx 2bl x 6 00000023430000003239EMS GENERI0000002286000000316000000022580000003122000000213000000029451GM191120180
7894916144803ACECLOFENACO 100mg cx 2bl x 6 00000022480000003108LEGRAND GE0000002193000000303200000021670000002996000000204300000028241GM191120180
7898940658800ACECLOFENACO 100mg cx 12 comp 00000024500000003387ZYDUS NIKK0000002390000000330400000023610000003264000000222700000030791GM200420180
7896004722726ACECLO-GRAN 100mg cx 12 comp r00000022480000003108LEGRAND PH0000002193000000303200000021670000002996000000204300000028241 M191120180
7893454300115ACERATUM sol fr 10ml          00000013110000001745CELLERA FA0000001274000000169700000012560000001674000000117500000015700 M250420180
7898029550353ACERTANLO 14+10mg tb 30 comp  00000122430000016296SERVIER   0000011899000001585300000117340000015641000000000000000000000 M160520180
7898029550315ACERTANLO 3,5+2,5mg tb 30 comp00000035820000004768SERVIER   0000003481000000463800000034330000004576000000000000000000000 M160520180
7898029550339ACERTANLO 7+5mg tb 30 comp    00000048710000006483SERVIER   0000004734000000630700000046680000006222000000000000000000000 M160520180
7898029550247ACERTIL 10mg tb 30 comp       00000052580000007269SERVIER   0000005130000000709200000050680000007006000000000000000000001 M160520180
7898029550216ACERTIL 5mg tb 30 comp        00000039440000005452SERVIER   0000003848000000532000000038020000005256000000000000000000001 M160520180
8901148240056ACETATO DE ABIRATERONA 250mg f00007254450000965591DR. REDDYS0000705033000093932100006952530000926720000065016400008684790GM170920180
8901148240032ACETATO DE ABIRATERONA 250mg f00001813740000241415DR. REDDYS0000176271000023484700001738260000231697000016255300002171360GM170920180
8901148240049ACETATO DE ABIRATERONA 250mg f00003627490000482831DR. REDDYS0000352542000046969500003476520000463394000032510500004342700GM170920180
7898947385785ACETATO DE ATOSIBANA 7,50mg/ml00000461580000000000ACCORD    0000045032000000000000000444890000000000000004196200000000001GH160520180
7898149934514ACETATO DE CIPROTERONA 50mg cx00000079050000010928BERGAMO   0000007712000001066100000076190000010533000000718600000099341GM021020180
7898907313858ACETATO DE CIPROTERONA+ETINILE00000013650000001887MELCON    0000001332000000184100000013160000001819000000124100000017161GM040420180
7898907313872ACETATO DE CIPROTERONA+ETINILE00000029050000004016MELCON    0000002834000000391800000028000000003871000000264100000036511GM040420180
7896714241821ACETATO DE CIPROTERONA+ETINILE00000013640000001886NEO QUIMIC0000001331000000184000000013150000001818000000124000000017141GM210520180
7898505093107ACETATO DE CIPROTERONA+ETINILE00000013470000001862MABRA     0000001314000000181600000012980000001794000000122400000016921GM310320180
7896422515399ACETATO DE CLOSTEBOL+SULFATO D00000018960000002524MEDLEY    0000001843000000245500000018170000002422000000170000000022710GM020420180
7896422515405ACETATO DE CLOSTEBOL+SULFATO D00000032350000004306MEDLEY    0000003144000000418900000031000000004132000000289900000038720GM020420180
7898149934910ACETATO DE DESMOPRESSINA 0,1mg00000134480000018591BERGAMO   0000013120000001813800000129620000017919000001222500000169001GM021020180
7896523210698ACETATO DE DEXAMETASONA 1mg/g 00000006300000000871CIMED     0000000615000000085000000006080000000841000000057300000007921GM081120180
7898148294596ACETATO DE DEXAMETASONA 1mg/g 00000006750000000933PRATI, DON0000000659000000091100000006510000000900000000061400000008491GM211120180
7896006267010ACETATO DE DEXAMETASONA 1mg cr00000006000000000829UNIAO QUIM0000000585000000080900000005780000000799000000054500000007541GM071120180
7899095232372ACETATO DE DEXAMETASONA 1mg cr00000006290000000870GEOLAB    0000000614000000084900000006070000000839000000057200000007911GM211120180
7896004721903ACETATO DE DEXAMETASONA 1g cre00000006790000000939EMS GENERI0000000662000000091500000006540000000904000000061700000008531GM191120180
7896004721897ACETATO DE DEXAMETASONA 1mg cr00000006810000000941GERMED GEN0000000664000000091800000006560000000907000000061900000008561GM191120180
7896112101352ACETATO DE DEXAMETASONA 1mg/g 00000006730000000930TEUTO     0000000657000000090800000006490000000897000000061200000008461GM131120180
7898148294602ACETATO DE DEXAMETASONA 1mg/g 00000441100000000000PRATI, DON0000043034000000000000000425160000000000000004010000000000001GH211120180
7896112123026ACETATO DE DEXAMETASONA 1mg/g 00000006730000000930TEUTO     0000000657000000090800000006490000000897000000061200000008461GM131120180
7899620912694ACETATO DE DEXAMETASONA 1 mg/g00000003540000000489GLOBO     0000000345000000047700000003410000000471000000032100000004441GM210520180
7896472503599ACETATO DE DEXAMETASONA 1,0mg/00000006810000000941MULTILAB  0000000664000000091800000006560000000907000000061900000008561GM211120180
7896006267072ACETATO DE HIDROCORTISONA 10mg00000008500000001131UNIAO QUIM0000000826000000110000000008140000001085000000076200000010170GM071120180
7896112132936ACETATO DE HIDROCORTISONA 10mg00000007980000001062TEUTO     0000000776000000103400000007650000001020000000071600000009560GM131120180
7896112132974ACETATO DE HIDROCORTISONA 10mg00000014440000001922TEUTO     0000001403000000186900000013840000001845000000129400000017290GM131120180
7896112127277ACETATO DE HIDROCORTISONA 10mg00000009190000001223TEUTO     0000000893000000119000000008810000001174000000082400000011010GM131120180
7896548138281ACETATO DE PREDNISOLONA 10mg s00000019030000002533NOVARTIS  0000001849000000246300000018230000002430000000170500000022780GM121120180
7899095230293ACETATO DE PREDNISOLONA 10mg s00000020290000002701GEOLAB    0000001972000000262700000019450000002593000000181900000024300GM211120180
7897732604650ACETAZONA 0,1mg/ml elx cx 60fr00000133320000018431SOBRAL    0000013007000001798100000128500000017764000001212000000167551 M180620180
7897732602076ACETAZONA 1mg/g creme derm cx 00000217980000000000SOBRAL    0000021266000000000000000210100000000000000001981600000000001 H180620180
7897732603950ACETAZONA 0,1mg/ml elx 40fr pl00000088870000000000SOBRAL    0000008670000000000000000085660000000000000000807900000000001 H100420180
7897732601727ACETAZONA 1mg/g creme derm bg 00000008720000001205SOBRAL    0000000851000000117600000008410000001163000000079300000010961 M180620180
7897732601932ACETAZONA 0,1mg/ml fr 120ml   00000010790000001492SOBRAL    0000001053000000145600000010400000001438000000098100000013561 M180620180
7893736007527ACETICIL 100mg cx 200 comp    00000027350000003640CAZI      0000002658000000354100000026210000003494000000245100000032740 X170720180
7893736013764ACETICIL 500mg cx 500 comp    00000101390000013495CAZI      0000009854000001312900000097170000012952000000908700000121380 X170720180
7891317001940ACETILCISTEINA 20mg xpe fr 10000000021130000002812EUROFARMA 0000002054000000273600000020250000002699000000189400000025300GX230420180
7891317002176ACETILCISTEINA 20mg xpe fr 15000000023850000003175EUROFARMA 0000002318000000308800000022860000003047000000213800000028560GX230420180
7891317001056ACETILCISTEINA 100mg cx 16 sac00000018920000002518EUROFARMA 0000001839000000245000000018130000002417000000169600000022650GX230420180
7891317001063ACETILCISTEINA 200mg cx 16 sac00000021120000002811EUROFARMA 0000002053000000273500000020240000002698000000189300000025290GX230420180
7891317001070ACETILCISTEINA 600mg cx 16 sac00000047010000006257EUROFARMA 0000004569000000608800000045060000006006000000421400000056290GX230420180
7898148296620ACETILCISTEINA 20mg/ml xpe fr 00000022430000002986PRATI, DON0000002180000000290400000021500000002866000000201000000026850GX211120180
7896004708706ACETILCISTEINA 200mg cx 16 env00000018440000002454EMS GENERI0000001792000000238700000017670000002355000000165300000022080GX191120180
7896004713328ACETILCISTEINA 600mg cx 16 env00000035650000004745GERMED GEN0000003465000000461600000034170000004555000000319500000042680GX191120180
7896004715285ACETILCISTEINA 20mg xpe fr 12000000018880000002513GERMED GEN0000001835000000244500000018100000002413000000169200000022600GX191120180
7896004713373ACETILCISTEINA 40mg xpe fr 12000000025180000003352GERMED GEN0000002447000000326000000024130000003216000000225700000030150GX191120180
7896004715292ACETILCISTEINA 20mg xpe fr 12000000020920000002785EMS GENERI0000002033000000270900000020050000002673000000187500000025050GX191120180
7896004713366ACETILCISTEINA 40mg xpe fr 12000000027360000003642EMS GENERI0000002659000000354300000026220000003495000000245200000032750GX191120180
7896004713342ACETILCISTEINA 600mg gran 16 e00000035540000004730EMS GENERI0000003454000000460200000034060000004540000000318500000042540GX191120180
7894916143400ACETILCISTEINA 20mg xpe fr 12000000020220000002691LEGRAND GE0000001965000000261800000019380000002583000000181200000024200GX191120180
7894916142656ACETILCISTEINA 40mg xpe fr 12000000027500000003660LEGRAND GE0000002673000000356100000026360000003514000000246500000032930GX191120180
7894916142632ACETILCISTEINA 600mg cx 16 env00000035220000004688LEGRAND GE0000003423000000456000000033760000004500000000315700000042170GX191120180
7898148299577ACETILCISTEINA 40mg/g gran 16 00000020880000002780PRATI, DON0000002029000000270300000020010000002668000000187100000024990GX211120180
7898148298068ACETILCISTEINA 20mg/g gran 16 00000019460000002591PRATI, DON0000001891000000251900000018650000002486000000174400000023300GX211120180
7898148297979ACETILCISTEINA 120mg/g gran cx00000041770000005560PRATI, DON0000004059000000540800000040030000005336000000374300000050000GX211120180
7898148296606ACETILCISTEINA 40mg xp fr 120 00000029230000003891PRATI, DON0000002841000000378500000028020000003735000000262000000035000GX211120180
7896112158882ACETILCISTEINA 20mg/ml xpe fr 00000023310000003103TEUTO     0000002265000000301800000022340000002978000000208900000027900GX131120180
7896112158981ACETILCISTEINA 40mg/ml xpe fr 00000030490000004058TEUTO     0000002963000000394800000029220000003895000000273200000036490GX131120180
7891317448158ACETILCISTEINA 100mg cx 30 env00000032250000004293EUROFARMA 0000003135000000417600000030910000004120000000289100000038620GX230420180
7891317448165ACETILCISTEINA 200mg cx 30 env00000035990000004790EUROFARMA 0000003498000000466000000034490000004597000000322500000043080GX230420180
7896181922131ACETILCISTEINA 20mg/ml xpe fr 00000020710000002757BIOSINTETI0000002013000000268200000019850000002646000000185600000024790GX140520180
7896181922285ACETILCISTEINA 40mg/ml xpe fr 00000027090000003606BIOSINTETI0000002633000000350800000025960000003460000000242800000032430GX140520180
7896006259732ACETILCISTEINA 10% sol inj 5am00000012830000001707UNIAO QUIM0000001246000000166100000012290000001638000000114900000015350GM071120180
7896014655014ACETILCISTEINA 100mg inj 100am00000254870000000000BLAU FARMA0000024770000000000000000244260000000000000002284200000000000GH100420180
7897732601789ACETILDOR 100 mg com cx env pl00000053690000000000SOBRAL    0000005218000000000000000051460000000000000000481200000000000 H180620180
7897732696129ACETILDOR cx 200 comp inf     00000025950000003454SOBRAL    0000002522000000336000000024870000002993000000232600000031070 X180620180
7896004708768ACETO+TRIA+SULF+NEOMICINA+GRAM00000022180000002952GERMED GEN0000002156000000287200000021260000002834000000198800000026560GM191120180
7896004715698ACETOFLUX 10mg cx 5 comp      00000007930000001096EMS MARCAS0000000774000000107000000007650000001058000000072100000009971 M191120180
7896004712048ACETONIDA DE TRIANCINOLONA 1mg00000009000000001244EMS GENERI0000000878000000121400000008670000001199000000081800000011311GM191120180
7899095230026ACETONIDA DE TRIANCINOLONA 1mg00000010130000001400GEOLAB    0000000988000000136600000009760000001349000000092100000012731GM211120180
7896004713618ACETONIDO DE ALGESTONA+ENANTAT00000008580000001186EMS GENERI0000000837000000115700000008270000001143000000078000000010781GM191120180
7896004713625ACETONIDO DE ALGESTONA+ENANTAT00000008450000001168GERMED GEN0000000824000000113900000008140000001125000000076800000010621GM191120180
7891317445300ACETONIDO DE ALGESTONA+ENANTAT00000008540000001181EUROFARMA 0000000833000000115200000008230000001138000000077600000010731GM230420180
7894916141734ACETONIDO DE TRIANCINOLONA 1mg00000008900000001230LEGRAND GE0000000868000000120000000008580000001186000000080900000011181GM191120180
7898148293490ACETONIDO DE TRIANCINOLONA 1mg00000008840000001223PRATI, DON0000000863000000119300000008520000001178000000080400000011111GM211120180
7896004712031ACETONIDO TRIANCINOLONA 1mg po00000008970000001240GERMED GEN0000000875000000121000000008640000001194000000081500000011271GM191120180
7893736003291ACFOL 5mg cx 40 comp          00000009440000001256CAZI      0000000917000000122200000009040000001205000000084600000011300 M170720180
7893736013689ACFOL 5mg sol fr gts 10ml     00000008070000001074CAZI      0000000784000000104500000007730000001030000000072300000009660 M170720180
7896658006432ACHEFLAN 5mg creme bg 30g     00000031160000004147ACHE      0000003028000000403400000029860000003980000000279200000037300 X160720180
7896658006920ACHEFLAN aer fr 54g           00000040720000005420ACHE      0000003957000000527200000039020000005201000000364900000048740 X160720180
7896658007170ACHEFLAN creme bg 60g         00000051950000006915ACHE      0000005049000000672700000049790000006637000000465600000062190 X160720180
7897917000864ACICLOFAR 50mg creme bg 10g   00000021670000002884BELFAR    0000002106000000280500000020760000002076000000194200000025940 M100920180
7897917000871ACICLOFAR 200mg cx 25 comp    00000052180000007214BELFAR    0000005091000000703700000050290000006952000000474300000065571 M100920180
7896523200637ACICLOMED 50mg creme derm bg 100000011250000001497CIMED     0000001093000000145700000010780000001437000000100800000013460 M081120180
7896523216683ACICLOMED 200mg cx 30 comp    00000064940000008978CIMED     0000006336000000875900000062600000008654000000590400000081621 M081120180
7896331702279ACICLOR 50mg/g creme derm bg 100000017390000002315KLEY HERTZ0000001690000000225100000016660000002221000000000000000000000 M020420180
7898148299317ACICLOVIR 50mg/g creme derm bg00000016460000002191PRATI, DON0000001600000000213100000015770000002103000000147500000019700GM211120180
7894916143295ACICLOVIR 50mg creme derm bg 100000016620000002212LEGRAND GE0000001615000000215200000015930000002123000000148900000019890GM191120180
7896004714011ACICLOVIR 50mg creme bg 10g   00000016510000002198GERMED GEN0000001605000000213800000015830000002110000000148000000019770GM191120180
7896523207629ACICLOVIR 50mg/g creme derm bg00000016530000002200CIMED     0000001607000000214100000015840000002111000000148200000019800GM081120180
7895296269018ACICLOVIR 50mg/g creme derm bg00000018530000002466NOVA QUIMI0000001801000000239900000017760000002367000000166100000022190GM211120180
7899095202092ACICLOVIR 50mg creme derm bg 100000017320000002305GEOLAB    0000001683000000224200000016600000002213000000155200000020730GM211120180
7891721200915ACICLOVIR 50mg creme derm bg 100000015610000002078MERCK     0000001517000000202100000014960000001994000000139900000018690GM071120180
7897595608758ACICLOVIR 50mg creme derm bg 100000020120000002678SANDOZ    0000001955000000260500000019280000002570000000180300000024080GM240520180
7896472502981ACICLOVIR 50mg creme bg 10g   00000015960000000000MULTILAB  0000001551000000000000000015290000000000000000143000000000000GH211120180
7898148299324ACICLOVIR 50mg/g crem derm cx 00001355730000000000PRATI, DON0000131758000000000000001299300000000000000012150400000000000GH211120180
7896004715933ACICLOVIR creme bg 10g        00000018700000002489EMS GENERI0000001817000000242100000017920000002389000000167600000022390GM191120180
7896676405835ACICLOVIR 50mg creme derm bg 100000016490000002195EUROFARMA 0000001603000000213600000015810000002107000000147800000019740GM230420180
7896714265308ACICLOVIR 50mg creme bg 10g   00000017280000002300NEO QUIMIC0000001679000000223700000016560000002207000000154800000020680GM210520180
7896422505741ACICLOVIR creme derm bg 10g   00000018190000002421MEDLEY    0000001768000000235600000017430000002323000000163000000021770GM240420180
7896523216652ACICLOVIR 200mg cx 500 comp (e00002667400000000000CIMED     0000260234000000000000002570990000000000000024249100000000001GH081120180
7896181918189ACICLOVIR 200mg bl 25 comp    00000080420000011118BIOSINTETI0000007846000001084700000077510000010715000000731100000101071GM140520180
7897595603494ACICLOVIR 400mg cx 30 comp    00000151620000020961SANDOZ    0000014792000002044900000146140000020203000001378300000190541GM020420180
7899547503067ACICLOVIR 200mg cx 280 comp em00000462840000063985PRATI, DON0000045155000006242400000446110000061672000004207600000581681GM211120180
7891721023477ACICLOVIR 200mg fr 25 comp    00000077220000010675MERCK     0000007534000001041500000074430000010290000000702000000097051GM071120180
7897595602626ACICLOVIR 200mg cx 25 comp    00000079520000010993SANDOZ    0000007758000001072500000076650000010596000000722900000099941GM020420180
7891721023484ACICLOVIR 400mg fr 30 comp    00000151620000020961MERCK     0000014792000002044900000146140000020203000001378300000190541GM071120180
7895296217026ACICLOVIR 200mg cx 10 comp    00000053790000007436NOVA QUIMI0000005248000000725500000051850000007168000000489000000067601GM211120180
7895296217019ACICLOVIR 200mg cx 25 comp    00000093190000012883NOVA QUIMI0000009092000001256900000089820000012417000000847200000117121GM211120180
7896112128762ACICLOVIR 200mg cx 25 comp    00000055250000007638TEUTO     0000005390000000745100000053250000007362000000502200000069431GM131120180
7896714265339ACICLOVIR 200mg cx 25 comp    00000056180000007767NEO QUIMIC0000005481000000757700000054150000007486000000510700000070601GM210520180
7897076907400ACICLOVIR 200mg cx 10 comp    00000026960000003727RANBAXY   0000002630000000363600000025980000003592000000245100000033881GM120920180
7897076907417ACICLOVIR 200mg cx 25 comp    00000056180000007767RANBAXY   0000005481000000757700000054150000007486000000510700000070601GM120920180
7897076907424ACICLOVIR 400mg cx 10 comp    00000053950000007458RANBAXY   0000005263000000727600000052000000007189000000490400000067791GM120920180
7897076907431ACICLOVIR 400mg cx 25 comp    00000112380000015536RANBAXY   0000010964000001515700000108320000014975000001021600000141231GM120920180
7898216367399ACICLOVIR 50mg/g crem derm bg 00000021050000002802PHARLAB   0000002045000000272500000020170000002688000000188600000025200GM230520180
7898216367429ACICLOVIR 200mg cx 25 comp    00000060320000008338PHARLAB   0000005885000000813500000058140000008037000000548300000075801GM230520180
7898216365449ACICLOVIR 30mg/g pom oft bg 4,00000046790000006468PHARLAB   0000004564000000631000000045090000006234000000425300000058791GM230520180
7898075315500ACICLOVIR 200mg cx 30 comp    00000060730000008396ONEFARMA  0000005925000000819100000058540000008093000000552100000076321GM081120180
7896523216621ACICLOVIR 200mg cx 30 comp    00000060730000008396CIMED     0000005925000000819100000058540000008093000000552100000076321GM081120180
7898075315470ACICLOVIR 50mg/g crem derm bg 00000011820000001573ONEFARMA  0000001149000000153100000011330000001510000000106000000014161GM081120180
7896422504058ACICLOVIR 200mg fr 25 comp    00000079520000010993MEDLEY    0000007758000001072500000076650000010596000000722900000099941GM020420180
7896422504065ACICLOVIR 400mg fr 30 comp    00000151620000020961MEDLEY    0000014792000002044900000146140000020203000001378300000190541GM240420180
7891317001513ACICLOVIR 200mg cx 25 comp    00000055250000007638EUROFARMA 0000005390000000745100000053250000007362000000502300000069441GM160720180
7897595635198ACICLOVIR 200mg cx 50 comp    00000082010000011337SANDOZ    0000008001000001106100000079050000010928000000745500000103061GM180620180
7896006202875ACICLOVIR 200mg cx 30 comp    00000052700000007285UNIAO QUIM0000005141000000710700000050790000007021000000479000000066231GM071120180
7895296436014ACICLOVIR 200mg  cx 30 comp   00000061560000008510NOVA QUIMI0000006006000000830300000059340000008203000000559600000077361GM211120180
7896181901143ACICLOVIR 50mg crem derm 10g  00000016640000002215BIOSINTETI0000001617000000215400000015950000002126000000149100000019920GM140520180
7898158696335ACICLOVIR 50mg/g crem derm bg 00000017180000002287CIFARMA   0000001670000000222100000016470000002192000000153900000020520GM300320180
7897917002820ACICLOVIR 50mg/g crem derm bg 00000024030000003198BELFAR    0000002335000000311100000023030000003070000000215300000028760GM100920180
7896112128847ACICLOVIR 50mg/g creme derm bg00000016960000002257TEUTO     0000001648000000219600000016250000002166000000152000000020300GM131120180
7896523224534ACIDO ACETILSALICILICO 100mg c00000006060000000807CIMED     0000000589000000078500000005810000000774000000054300000007250GM081120180
7896523224596ACIDO ACETILSALICILICO 500mg c00000004830000000644CIMED     0000000469000000062500000004620000000616000000043300000005780GM081120180
7896004703572ACIDO ACETILSALICILICO 500mg d00000040120000005340EMS GENERI0000003899000000519500000038450000005125000000359600000048030GX191120180
7896004710891ACIDO ACETILSALICILICO 100mg c00000006540000000870EMS GENERI0000000636000000084700000006270000000836000000058700000007840GX191120180
7896004710907ACIDO ACETILSALICILICO 100mg c00000041440000005516EMS GENERI0000004027000000536500000039710000005293000000371400000049610GX191120180
7896004713182ACIDO ACETILSALICILICO 100mg c00000022480000002992EMS GENERI0000002185000000291100000021550000002872000000201500000026920GX191120180
7899620912243ACIDO ACETILSALICILICO 500 mg 00000058860000007834GLOBO     0000005720000000762100000056410000007519000000527500000070460GX210520180
7896523208091ACIDO ACETILSALICILICO 500mg c00000024130000003212CIMED     0000002346000000312500000023130000003083000000216300000028890GM081120180
7896523208084ACIDO ACETILSALICILICO 100mg c00000040390000005376CIMED     0000003925000000523000000038710000005160000000362000000048360GM081120180
7896714208206ACIDO FUSIDICO 20mg creme bg 100000028560000003801NEO QUIMIC0000002776000000369800000027370000003648000000256000000034200GM210520180
7898148298501ACIDO FUSIDICO 20mg/g crem der00000028550000003800PRATI, DON0000002775000000369700000027360000003647000000255900000034180GM211120180
7896004726885ACIDO FUSIDICO+VAL BETAMETASON00000037130000004942EMS GENERI0000003609000000480800000035590000004744000000332800000044450GM191120180
7895296034029ACIDO FUSIDICO+VAL DE BETAMETA00000036980000004922NOVA QUIMI0000003594000000478800000035440000004724000000331400000044270GM211120180
7896181911517ACIDO MEFENAMICO 500mg cx 24 c00000014420000001993BIOSINTETI0000001407000000194500000013900000001922000000131100000018121GM140520180
7896422516877ACIDO MEFENAMICO 500mg cx 12 c00000007330000001013MEDLEY    0000000715000000098800000007060000000976000000066600000009211GM020420180
7896422517195ACIDO MEFENAMICO 500mg cx 24 c00000014670000002028MEDLEY    0000001431000000197800000014140000001955000000133300000018431GM020420180
7894916144261ACIDO MEFENAMICO 500mg cx 2bl 00000014700000002032LEGRAND GE0000001434000000198200000014170000001959000000133600000018471GM191120180
7896004720869ACIDO MEFENAMICO 500mg cx 24 c00000014670000002028EMS GENERI0000001431000000197800000014140000001955000000133300000018431GM191120180
7896004720876ACIDO MEFENAMICO 500mg cx 24 c00000014700000002032GERMED GEN0000001434000000198200000014170000001959000000133600000018471GM191120180
7896004723020ACIDO TRANEXAMICO 250mg cx 1bl00000030660000004081EMS GENERI0000002980000000397000000029390000003917000000274800000036710GM191120180
7894916144971ACIDO TRANEXAMICO 250mg cx 12 00000030660000004081LEGRAND GE0000002980000000397000000029390000003917000000274800000036710GM191120180
7896014670055ACIDO TRANEXAMICO 50mg/ml sol 00000012670000001686BLAU FARMA0000001231000000164000000012140000001618000000113500000015160GM100420180
7896112401230ACIDO VALPROICO 250mg cx 25 ca00000011110000001536BIOLAB GEN0000001084000000149800000010710000001480000000101000000013961GM231120180
7898272941557ACIDO ZOLEDRONICO 4mg po liof 00000000000000000000SUN PHARMA0000000000000000000000000000000000000000000000000000000000001GM240420180
7898272941533ACIDO ZOLEDRONICO 4mg po liof 00000000000000000000SUN PHARMA0000000000000000000000000000000000000000000000000000000000001GM221120180
7898272941564ACIDO ZOLEDRONICO 4mg po liof 00000000000000000000SUN PHARMA0000000000000000000000000000000000000000000000000000000000001GM240420180
7898272941540ACIDO ZOLEDRONICO 4mg po liof 00000000000000000000SUN PHARMA0000000000000000000000000000000000000000000000000000000000001GM240420180
7891317459222ACIDO ZOLEDRONICO 4mg sol inj 00000000000000000000EUROFARMA 0000000000000000000000000000000000000000000000000000000000001GH230420180
7896014663507ACIDO ZOLEDRONICO 4mg sol inj 00000000000000000000BLAU FARMA0000000000000000000000000000000000000000000000000000000000001GH100420180
7896014663524ACIDO ZOLEDRONICO 4mg sol inj 00000000000000000000BLAU FARMA0000000000000000000000000000000000000000000000000000000000001GH100420180
7897595633651ACIDO ZOLEDRONICO 4mg sol inj 00000000000000000000SANDOZ    0000000000000000000000000000000000000000000000000000000000001GH020420180
7896241232903ACINIC 500mg cx 30 comp       00000042570000005885BIOLAB    0000004153000000574100000041030000005672000000387000000053501 M020420180
7898495604727ACIVIRAX 200mg cx 25 comp     00000052260000007224CIFARMA   0000005099000000704900000050380000006964000000475100000065681 M300320180
7898158693556ACIVIRAX 50mg creme derm bg 1000000014830000001974CIFARMA   0000001441000000191600000014210000001891000000132800000017710 M300320180
7896261010451ACLASTA 5mg sol inj fr 100ml  00000000000000000000NOVARTIS  0000000000000000000000000000000000000000000000000000000000001 M030420180
7896082900047ACNASE gel 20g                00000025620000003410AVERT     0000002490000000331700000024550000003273000000229600000030670 X020420180
7896082900399ACNASE locao adstringente 130m00000018680000000000AVERT     0000001868000000000000000018680000000000000000186800000000000 L020420180
7896082900054ACNASE sabonete 110g          00000007870000000000AVERT     0000000787000000000000000007870000000000000000078700000000000 L020420180
7896082900405ACNASE gel esfoliante 80g     00000020660000000000AVERT     0000002066000000000000000020660000000000000000206600000000000 L020420180
7896082900504ACNASE lapiseira secativa 0,3g00000013410000000000AVERT     0000001341000000000000000013410000000000000000134100000000000 L020420180
7898549750233ACNASE Gel Creme bg 25g       00000019430000000000AVERT     0000001943000000000000000019430000000000000000194300000000000 L020420180
7896082900436ACNASE sabonete liquido 200ml 00000020880000000000AVERT     0000002088000000000000000020880000000000000000208800000000002 L020420180
7896082900856ACNASE 16 unid de lencos umed 00000012640000000000AVERT     0000001264000000000000000012640000000000000000126400000000002 L020420180
7898549750226ACNASE Mousse Limp fr 80ml    00000020470000000000AVERT     0000002047000000000000000020470000000000000000204700000000002 L020420180
7896082900351ACNASE creme 25gr             00000026890000003579AVERT     0000002613000000348100000025770000003435000000241000000032190 M020420180
7898549756013ACNASE CLEAN mousse limp x 15000000048060000000000AVERT     0000004806000000000000000048060000000000000000480600000000002 L020420180
7898549753425ACNASE CLEAN gel creme x 50g  00000050970000000000AVERT     0000005097000000000000000050970000000000000000509700000000000 L020420180
7898549756624ACNASE CLEAN sab antiacneico b00000008450000000000AVERT     0000000845000000000000000008450000000000000000084500000000000 L020420180
7898549756617ACNASE CLEAN sab esfoliante ba00000008450000000000AVERT     0000000845000000000000000008450000000000000000084500000000000 L020420180
7898549756631ACNASE CLEAN sab limpeza profu00000008450000000000AVERT     0000000845000000000000000008450000000000000000084500000000000 L020420180
7896004734057ACNOVA 10mg 6bl x 5 cap       00000059570000008235GERMED PRE0000005812000000803500000057420000007938000000541600000074871 M191120180
7896004734064ACNOVA 20mg 6bl x 5 caps      00000109980000015204GERMED PRE0000010730000001483400000106010000014655000000999800000138221 M191120180
7896226505855ACTEMRA 20mg sol inj cx 1fa x 00000645410000000000ROCHE     0000062967000000000000000622080000000000000005867400000000001 H231120180
7896226505879ACTEMRA 20mg/ml sol inj cx 1fa00001613510000000000ROCHE     0000157416000000000000001555190000000000000014668300000000001 H231120180
7896226506890ACTEMRA SC 162mg sol inj 4 ser00004336490000000000ROCHE     0000423072000000000000004179750000000000000039422600000000001 H231120180
7898040320782ACTIFEDRIN 2,5+60mg cx 20 comp00000008490000001130FQM/FARMA 0000000826000000110000000008150000001086000000000000000000000 M200420180
7898040324452ACTIFEDRIN 6+0,25mg xpe fr 10000000008810000001173FQM/FARMA 0000000857000000114100000008440000001125000000000000000000000 M030420180
7896026305372ACTILYSE 10mg po liof inj fa+d00000000000000000000BOEHRINGER0000000000000000000000000000000000000000000000000000000000001 H170820180
7896026305389ACTILYSE 20mg po liof inj fa+d00000000000000000000BOEHRINGER0000000000000000000000000000000000000000000000000000000000001 H170820180
7896026301633ACTILYSE 50mg po liof inj fa+d00000000000000000000BOEHRINGER0000000000000000000000000000000000000000000000000000000000001 H170820180
7891317480738ACTIVELLE 1+0,5mg cx 28 comp r00000039620000005477EUROFARMA 0000003865000000534300000038180000005278000000360100000049781 M230420180
7891058019259ACTONEL 35mg cx 4 comp rev (um00000129300000017875SANOFI-AVE0000012615000001743900000124630000017229000001175500000162511 M240420180
7891058004217ACTONEL 150mg cx 1 comp rev (u00000129300000017875SANOFI-AVE0000012615000001743900000124630000017229000001175500000162511 M240420180
7891058016142ACTONEL CHRONOS 35mg cx 2 comp00000067290000009302SANOFI-AVE0000006565000000907600000064860000008967000000611700000084561 M040420180
7891058016159ACTONEL CHRONOS 35mg cx 4 comp00000134550000018601SANOFI-AVE0000013127000001814700000129690000017929000001223200000169101 M240420180
7896641811333ACTOS 15mg fr 15 comp         00000027950000003864ABBOTT    0000002727000000377000000026940000003724000000254100000035131 M310320180
7896641811364ACTOS 30mg fr 15 comp         00000037280000005154ABBOTT    0000003637000000502900000035940000004968000000338900000046851 M310320180
7896641811395ACTOS 45mg fr 15 comp         00000065300000009027ABBOTT    0000006370000000880700000062940000008701000000593600000082061 M310320180
7898040323325ACTSUN fps 45                 00000037280000000000FQM/FARMA 0000003728000000000000000037280000000000000000372800000000000 L010420170
7898040323301ACTSUN fps 30                 00000039610000000000FQM/FARMA 0000003961000000000000000039610000000000000000396100000000000 L010420170
7898040323332ACTSUN fps 60                 00000040150000000000FQM/FARMA 0000004015000000000000000040150000000000000000401500000000000 L010420170
7898040323301ACTSUN fps 30                 00000039610000000000FQM/DIVCOM0000003961000000000000000039610000000000000000000000000000000 L040420180
7898040323318ACTSUN fps 30 facial          00000031540000000000FQM/DIVCOM0000003154000000000000000031540000000000000000000000000000000 L180920180
7898040323295ACTSUN fps 60 color           00000042330000000000FQM/DIVCOM0000004233000000000000000042330000000000000000000000000000000 L180920180
7898040323332ACTSUN fps 60                 00000040150000000000FQM/DIVCOM0000004015000000000000000040150000000000000000000000000000000 L040420180
7898040323325ACTSUN fps 45                 00000037280000000000FQM/DIVCOM0000003728000000000000000037280000000000000000000000000000000 L040420180
7899095244771ACU FRESH 5mg/ml sol oft fr 1000000015350000002043GEOLAB    0000001492000000198800000014710000001961000000137600000018380 M211120180
7897316800027ACULAR 0,5% sol oft 5ml       00000048110000006651ALLERGAN  0000004694000000648900000046370000006410000000437400000060471 M060620180
7897316805572ACULAR CMC 0,45% cx 10 flac   00000034620000004786ALLERGAN  0000003378000000467000000033370000004613000000314800000043521 M060620180
7897316805589ACULAR CMC 0,45% cx 20 flac   00000069280000009578ALLERGAN  0000006759000000934400000066780000009232000000629800000087071 M060620180
7897316805596ACULAR CMC 0,45% cx 30 flac   00000103910000014365ALLERGAN  0000010138000001401500000100160000013847000000944700000130601 M060620180
7897316804735ACULAR LS 0,40% fr 5ml        00000038490000005321ALLERGAN  0000003755000000519100000037100000005129000000349900000048371 M060620180
7897316804742ACULAR LS 0,40% fr 10ml       00000076960000010639ALLERGAN  0000007508000001037900000074180000010255000000699600000096721 M060620180
7891058021276ADACEL fr 1 dose 0,5ml        00000104730000014478SANOFI-AVE0000010218000001412600000100950000013956000000952100000131621 M040420180
7897473201798ADACNE 1,0mg gel bg 30g       00000028980000003857GLENMARK  0000002817000000375300000027780000003703000000259800000034700 M040420180
7897473205741ADACNE CLIN 1+10mg gel bg 45g 00000043060000005731GLENMARK  0000004185000000557600000041270000005501000000385900000051550 M040420180
7897473201804ADACNE CLIN 1mg gel bg 30g    00000029980000003990GLENMARK  0000002913000000388100000028730000003829000000268600000035880 M040420180
7891106000918ADALAT 10mg fr 60 cap         00000000000000000000BAYER     0000002944000000407000000029090000004022000000000000000000001 M240420180
7891106000932ADALAT OROS 30mg fr 15 comp   00000072860000010072BAYER     0000007108000000982600000070220000009708000000000000000000001 M240420180
7891106904094ADALAT OROS 20mg cx 30 comp   00000119250000016486BAYER     0000011634000001608300000114940000015890000000000000000000001 M240420180
7891106903936ADALAT OROS 30mg cx 30 comp   00000145700000020142BAYER     0000014215000001965100000140440000019415000000000000000000001 M240420180
7891106903943ADALAT OROS 60mg cx 30 comp   00000214590000029666BAYER     0000020936000002894300000206840000028594000000000000000000001 M240420180
7891106000925ADALAT RETARD 20mg fr 30 comp 00000031050000004292BAYER     0000003029000000418700000029930000004138000000000000000000001 M240420180
7891106001588ADALAT RETARD 10mg fr 30 comp 00000000000000000000BAYER     0000002044000000282600000020190000002791000000000000000000001 M240420180
7896181911432ADAPALENO 1mg gel derm bg 30g 00000043160000005745BIOSINTETI0000004195000000558900000041370000005514000000386900000051680GM140520180
7896004712727ADAPALENO 1mg gel bg 30g      00000046200000006149EMS GENERI0000004490000000598200000044280000005902000000414100000055310GM191120180
7896004712697ADAPALENO 1mg gel bg 30g      00000044630000005940GERMED GEN0000004337000000577800000042770000005701000000399900000053420GM191120180
7896422515122ADAPALENO 1mg gel bg 30g      00000039300000005231MEDLEY    0000003819000000508800000037660000005020000000352200000047050GM020420180
7896422518321ADAPEL 1mg gel bg 20g         00000026180000003485MEDLEY    0000002544000000338900000025090000003344000000234600000031340 M240420180
7893454713922ADAPTA 37,5mg cx 30 cap lib pr00000025370000003507CELLERA FA0000002475000000342200000024450000003380000000230600000031881 M190720180
7893454713939ADAPTA 75mg cx 30 cap lib prol00000059410000008213CELLERA FA0000005796000000801300000057260000007916000000540100000074671 M190720180
7893454713946ADAPTA 150mg cx 30 cap lib pro00000084210000011642CELLERA FA0000008216000001135800000081170000011221000000765600000105841 M190720180
7893454714035ADAPTA 75mg cx 10 cap lib prol00000019800000002737CELLERA FA0000001932000000267100000019090000002639000000180000000024881 M190720180
7896641810275ADCETRIS 50mg po liof cx 1fa  00016876290000000000TAKEDA PHA0001640144000000000000016173920000000000000151250000000000000 H171020180
7897322714431ADDERA D3 3300ui/ml sol oral f00000053110000007069MANTECORP/0000005162000000687700000050900000006785000000476000000063580 X130820180
7897322710020ADDERA D3 10.000ui/ml gts fr 100000058530000007791MANTECORP/0000005688000000757800000056090000007476000000524500000070060 X130820180
7897322707617ADDERA D3 sol or fr gts 10ml  00000045860000006104MANTECORP/0000004457000000593800000043950000005858000000411000000054900 X130820180
7897322709703ADDERA D3 1.000ui cx 10 cap mo00000010230000001362MANTECORP/0000000994000000132400000009800000001306000000091700000012250 M210520180
7897322709710ADDERA D3 1.000ui cx 30 cap mo00000033540000004464MANTECORP/0000003260000000434300000032150000004285000000300600000040150 M210520180
7897322709758ADDERA D3 50.000ui cx 4 cap mo00000110770000014744MANTECORP/0000010765000001434200000106160000014150000000992700000132600 M130820180
7897322709727ADDERA D3 7.000ui cx 4 cap mol00000026610000003542MANTECORP/0000002586000000344500000025500000003399000000238500000031860 M130820180
7897322709734ADDERA D3 7.000ui cx 10 cap mo00000043640000005809MANTECORP/0000004241000000565000000041820000005574000000391100000052240 M130820180
7897322709475ADDERA D3 7.000ui cx 10 comp r00000036270000004828MANTECORP/0000003525000000469600000034760000004633000000325100000043430 M130820180
7897322709482ADDERA D3 7.000ui cx 30 comp r00000083400000011101MANTECORP/0000008105000001079800000079930000010654000000747400000099840 M130820180
7897322709987ADDERA D3 10.000ui cx 4 cap   00000029130000003877MANTECORP/0000002831000000377200000027920000003722000000261100000034880 M130820180
7897322709499ADDERA D3 10.000ui cx 4 comp r00000027730000003691MANTECORP/0000002695000000359100000026580000003543000000248500000033190 M130820180
7897322709994ADDERA D3 10.000ui cx 10 cap  00000054610000007269MANTECORP/0000005307000000707100000052330000006975000000489400000065370 M130820180
7897322709505ADDERA D3 10.000ui cx 10 comp 00000051990000006920MANTECORP/0000005053000000673200000049830000006642000000466000000062250 M130820180
7897322709970ADDERA D3 5.000ui cx 30 cap mo00000062260000008287MANTECORP/0000006051000000806200000059670000007954000000558000000074540 M210520180
7897322709451ADDERA D3 5.000ui cx 30 comp r00000056600000007534MANTECORP/0000005501000000732900000054250000007231000000507300000067760 M210520180
7897322709765ADDERA D3 50000ui cx 10 cap   00000169690000022586MANTECORP/0000016492000002197200000162630000021677000001520900000203160 M130820180
7897322709536ADDERA D3 50000ui cx 10 comp r00000160040000021302MANTECORP/0000015554000002072300000153380000020444000001434400000191600 M130820180
7897322709420ADDERA D3 1.000ui fr 30 comp r00000033540000004464MANTECORP/0000003260000000434300000032150000004285000000300600000040150 M130820180
7897322709468ADDERA D3 7.000ui fr 4 comp re00000020890000002781MANTECORP/0000002030000000270500000020020000002669000000187200000025010 M130820180
7897322709529ADDERA D3 50.000ui cx 4 comp r00000105550000014049MANTECORP/0000010258000001366700000101160000013484000000946000000126370 M130820180
7892828000026ADEFORTE sol or fr gts 15ml   00000049500000006589GROSS     0000004811000000640900000047440000006323000000443600000059260 X170820180
7892828000019ADEFORTE sol oral cx 1amp x 3m00000009070000001207GROSS     0000000882000000117500000008700000001160000000081300000010860 X170820180
7892828000170ADEFORTE sol oral cx 25amp x 300000212540000028290GROSS     0000020656000002752000000203690000027150000001904800000254440 X170820180
7892828001085ADEFORTE cx 60 cap            00000024960000003515GROSS     0000002496000000351500000024960000003515000000249600000035150 X170820180
7890282802002ADEFORTE kit cx 60cap adef+60c00000034970000004926GROSS     0000003497000000492600000034970000004926000000349700000049260 X170820180
7896290400612AD-ELEMENT sol inj iv cx adu 500000008880000000000PIERRE FAB0000000866000000000000000008560000000000000000080700000000001 H040420180
7891106909280ADEMPAS 1,0mg cx 42 comp rev  00007880030001048858BAYER     0000765831000102032300007552070001006634000000000000000000000 M240420180
7891106909303ADEMPAS 1,5mg cx 42 comp rev  00007880030001048858BAYER     0000765831000102032300007552070001006634000000000000000000000 M240420180
7891106909327ADEMPAS 2,0mg cx 42 comp rev  00007880030001048858BAYER     0000765831000102032300007552070001006634000000000000000000000 M240420180
7891106909341ADEMPAS 2,5mg cx 42 comp rev  00007880030001048858BAYER     0000765831000102032300007552070001006634000000000000000000000 M240420180
7891106909310ADEMPAS 1,5mg cx 84 comp rev  00015760070002097718BAYER     0001531662000204064600015104150002013269000000000000000000000 M240420180
7891106909334ADEMPAS 2,0mg cx 84 comp rev  00015760070002097718BAYER     0001531662000204064600015104150002013269000000000000000000000 M240420180
7891106909358ADEMPAS 2,5mg cx 84 comp rev  00015760070002097718BAYER     0001531662000204064600015104150002013269000000000000000000000 M240420180
7891106909266ADEMPAS 0,5mg cx 42 comp rev  00007880030001048858BAYER     0000765831000102032300007552070001006634000000000000000000000 M240420180
7896094200418ADENOCARD 3mg/ml sol inj cx 2 00000044170000000000LIBBS     0000004309000000000000000042570000000000000000401500000000001 H030420180
7896094200425ADENOCARD 3mg/ml sol inj cx 5000000778070000000000LIBBS     0000075909000000000000000749940000000000000007073300000000001 H030420180
7896360001152ADEPLEX PLUS fr gotas 20ml    00000023760000000000DOVALLE   000000237600000000000000002376000000000000000023760000000000O L150520180
7898955486023ADEROCORP fr gts 20ml         00000024420000000000PHARMASCIE0000002413000000000000000023840000000000000000224800000000000 L120920180
7896004760025ADILOZ 600 bl 10 comp rev (hos00001996240000275968SIGMA PHAR0000194755000026923700001924090000265994000018147600002508801 M191120180
7896658003165ADINOS 0,5mg gel crem bg 15g  00000011270000001500ACHE      0000001095000000145900000010800000001440000000101000000013490 M140520180
7896658002960ADINOS 0,5mg gel crem bg 30g  00000022370000002978ACHE      0000002174000000289600000021440000002858000000200500000026780 M140520180
7896658011412ADINOS GEN 0,5+1,0mg/g gel cre00000025550000003401ACHE      0000002483000000330800000024490000003264000000229000000030590 M161020180
7896658011030ADINOS GEN 0,5+1,0mg/g gel cre00000012890000001716ACHE      0000001253000000166900000012360000001647000000115500000015430 M161020180
7896658021749ADIPEPT 40mg cx 42 comp rev   00000049860000006893ACHE      0000004864000000672400000048050000006643000000453200000062651 M180620180
7896658021664ADIPEPT 20mg cx 7 comp rev    00000012300000001700ACHE      0000001200000000165900000011860000001640000000111800000015461 M140520180
7896658021671ADIPEPT 20mg cx 14 comp rev   00000022120000003058ACHE      0000002158000000298300000021320000002947000000201100000027801 M140520180
7896658021688ADIPEPT 20mg cx 28 comp rev   00000044940000006213ACHE      0000004384000000606100000043310000005987000000408500000056471 M140520180
7896658021718ADIPEPT 40mg cx 7 comp rev    00000012300000001700ACHE      0000001200000000165900000011860000001640000000111800000015461 M140520180
7896658021725ADIPEPT 40mg cx 14 comp rev   00000026790000003704ACHE      0000002614000000361400000025830000003571000000243600000033681 M140520180
7896658021732ADIPEPT 40mg cx 28 comp rev   00000044940000006213ACHE      0000004384000000606100000043310000005987000000408500000056471 M140520180
7896112452461AD-MUC pom 10g                00000025400000003381AVERT     0000002469000000328900000024340000003245000000227600000030410 X020420180
7896094901100ADNAX 1+0,5mg sol nas fr 20ml 00000010820000001440COSMED    0000001052000000140200000010370000001382000000097000000012960 M210520180
7898040320683ADOLESS 0,060+0,015mg cx 28 co00000027280000003771FQM/FARMA 0000002661000000367900000026290000003634000000000000000000001 M200420180
7898040322137ADOLESS 0,060+0,015mg cx 3bl x00000068200000009428FQM/FARMA 0000006653000000919900000065730000009087000000000000000000001 M030420180
7891268100112ADRIBLASTINA RD 10mg 1 fa     00000052590000000000WYETH     0000005131000000000000000050690000000000000000478100000000001 H040420180
7891268100136ADRIBLASTINA RD 50mg 1 fa     00000218540000000000WYETH     0000021321000000000000000210640000000000000001986700000000001 H040420180
7896641800627AD-TIL sol fr gts 10ml        00000006250000000832TAKEDA PHA0000000607000000080900000005990000000798000000056000000007480 M160720180
7896641808609AD-TIL sol fr gts 20ml        00000012510000001665TAKEDA PHA0000001216000000162000000011990000001598000000112100000014970 M160720180
7795320050127ADVANTAN 1mg/g creme derm 15g 00000044420000005912BAYER     0000004317000000575200000042570000005674000000000000000000000 M240420180
7795320050646ADVANTAN 1mg/g locao fr 20g   00000056890000007572BAYER     0000005529000000736600000054520000007267000000000000000000000 M240420180
7891106910712ADVANTAN 1mg/ml sol gt 20ml   00000060830000008097BAYER     0000005912000000787700000058300000007771000000000000000000000 M240420180
7898924769645ADVATE 1000ui po liof inj 1 fa00003417970000000000SHIRE     0000333460000000000000003294420000000000000031072400000000001 H231120180
7898924769621ADVATE 250ui po liof inj 1 fa 00000946790000000000SHIRE     0000092370000000000000000912570000000000000008607200000000001 H231120180
7898924769638ADVATE 500ui po liof inj 1 fa 00001798880000000000SHIRE     0000175500000000000000001733860000000000000016353400000000001 H231120180
7891045038386ADVIL 200mg cx 2bl x 10 comp  00000020800000002769PFIZER CON0000002021000000269300000019930000002657000000186400000024900 X040420180
7891045040426ADVIL 400mg cx 8 cap (IMP)    00000014530000001934PFIZER CON0000001412000000188100000013920000001855000000130200000017390 X040420180
7891045040587ADVIL 400mg cx 12bl x 3 cap   00000066050000008791PFIZER CON0000006419000000855200000063300000008437000000591900000079070 X040420180
7891045040501ADVIL 200mg cx 50bl x 2 comp  00000104050000013849PFIZER CON0000010112000001347200000099720000013292000000932500000124560 X040420180
7891045043588ADVIL 400mg fr 16 cap         00000029050000003867PFIZER CON0000002823000000376100000027840000003711000000260300000034770 X040420180
7891045043595ADVIL 400mg cx 2bl x 10 cap   00000032670000004348PFIZER CON0000003175000000423000000031310000004173000000292800000039110 X040420180
7891045043564ADVIL 400mg cx 8 cap (NAC)    00000014530000001934PFIZER CON0000001412000000188100000013920000001855000000130200000017390 X040420180
7891045043571ADVIL 400mg cx 12bl x 3 cap na00000066050000008791PFIZER CON0000006419000000855200000063300000008437000000591900000079070 X040420180
7891045043762ADVIL 400mg cx 2bl x 10cap nac00000032670000004348PFIZER CON0000003175000000423000000031310000004173000000292800000039110 X040420180
7898927562205AEBOL 25mg cx 30 comp rev     00000032110000004439ZYDUS NIKK0000003133000000433100000030950000004279000000291900000040361 M200420180
7898940658015AEBOL 25mg cx 15 comp rev     00000023350000003228ZYDUS NIKK0000002278000000314900000022510000003111000000212300000029341 M200420180
7898940658022AEBOL 100mg cx 30 comp rev    00000140510000019424ZYDUS NIKK0000013708000001895100000135430000018722000001277300000176581 M200420180
7897473201378AEROCORT S 50+100mcg aer buc f00000034460000004764GLENMARK  0000003362000000464700000033210000004591000000313300000043311 M040420180
7896112147640AERODINI 100mcg spray aer fr 200000027560000003810TEUTO     0000002689000000371700000026570000003673000000250600000034641 M131120180
7896112157380AERODIVENT 0,25mg/ml sol inal 00000003210000000444TEUTO     0000000313000000043300000003090000000427000000029200000004041 M131120180
7896269900013AEROFLUX 2+100mg/5ml sol edul 00000013200000001757GSK       0000001282000000170900000012650000001686000000118300000015800 M141120180
7898014562521AEROFRIN xpe fr 120ml         00000008270000001143PHARMASCIE0000000807000000111500000007960000001101000000075100000010381 M120920180
7897473202122AEROGOLD 100mcg po aer inal fr00000025550000003532GLENMARK  0000002493000000344600000024630000003405000000232300000032111 M040420180
7897473201071AEROGOLD 100mcg po aer inal fr00000025550000003532GLENMARK  0000002493000000344600000024630000003405000000232300000032111 M040420180
7896269900051AEROLIN 0,5mg sol inj 5amp x 100000011090000001533GSK       0000001082000000149600000010690000001478000000100800000013941 M141120180
7896269900037AEROLIN 2mg cx 20 comp        00000003780000000523GSK       0000000369000000051000000003640000000503000000034400000004761 M141120180
7896269900044AEROLIN 4mg cx 20 comp        00000005560000000769GSK       0000000542000000074900000005360000000741000000050500000006981 M141120180
7896269900068AEROLIN 5mg sol neb nas fr 10m00000012520000001731GSK       0000001221000000168800000012060000001667000000113800000015731 M141120180
7896269900150AEROLIN spray 200dos          00000029050000004016GSK       0000002834000000391800000028000000003871000000264100000036511 M141120180
7896269900075AEROLIN 2mg/5ml xpe fr 120ml s00000007920000001095GSK       0000000773000000106800000007630000001055000000072000000009951 M141120180
7896015522506AEROLIN 1mg sol neb cx 20 amp 00000012520000001731GSK       0000001221000000168800000012060000001667000000113800000015731 M141120180
7896015521370AEROLIN spray 200dos+espacador00000029050000004016GSK       0000002834000000391800000028000000003871000000264100000036511 M141120180
7896862980047AEROMED 2mg/5ml xpe fr 120ml  00000007920000001095MEDQUIMICA0000000773000000106900000007640000001056000000072000000009961 M030420180
7893736013504AEROTRAT 2mg/5ml xpe fr 100ml 00000007530000001041CAZI      0000000735000000101600000007260000001004000000068500000009471 M170720180
7896261016538AFINITOR 5mg cx 30 comp       00006241720000862881NOVARTIS  0000624172000086288100006166520000852485000058161500008040491 M030420180
7896261016545AFINITOR 10mg cx 30 comp      00012483440001725762NOVARTIS  0001248344000172576200012333040001704970000116322900016080961 M030420180
7896261018075AFINITOR 2,5mg cx 30 comp     00003120810000431434NOVARTIS  0000312081000043143400003083210000426236000029080300004020181 M030420180
7896112198246AFOPIC 5mg cx 20 comp         00000007170000000954TEUTO     0000000697000000092900000006870000000916000000064300000008590 M131120180
7896676420111AFRAT 150mg cx 1 comp         00000047600000006580CRISTALIA 0000004644000000641900000045870000006341000000432700000059821 M210520180
7897337712965AFRIN 0,5mg 12h fr 30ml adu   00000015560000002071MERCK SHAR0000001512000000201400000014910000001987000000139400000018620 M230420180
7897337712972AFRIN 0,250mg fr 20ml ped     00000010850000001444MERCK SHAR0000001054000000140400000010390000001385000000097200000012980 M230420180
7897337712958AFRIN fr 10ml                 00000008630000001149MERCK SHAR0000000839000000111800000008270000001102000000077400000010340 M230420180
7891106912747AFRIN 0,5mg sol nas fr spr 30m00000015560000002071BAYER     0000001512000000201400000014910000001987000000000000000000000 M240420180
7891106912761AFRIN 0,250mg sol nas fr spr 200000010860000001446BAYER     0000001055000000140600000010400000001386000000000000000000000 M240420180
7891106912754AFRIN 0,5mg sol nas fr spr 10m00000008630000001149BAYER     0000000839000000111800000008270000001102000000000000000000000 M240420180
7898158690517AFTINE 15+25+1+15mg sus or fr 00000020030000002666CIFARMA   0000001947000000258900000019200000002555000000179500000023940 M300320180
7896261002050AGASTEN 1mg cx 15 comp        00000019950000002655NOVARTIS  0000001939000000258300000019120000002549000000178800000023880 M121120180
7896261002067AGASTEN 0,05mg xpe fr 120ml   00000012060000001605NOVARTIS  0000001172000000156100000011560000001541000000108100000014440 M170720180
7896641801488AGIOLAX tb 100g               00000075680000010073TAKEDA PHA0000007355000000979900000072530000009668000000678300000090600 X160720180
7896641801495AGIOLAX tb 250g               00000161460000021491TAKEDA PHA0000015692000002090600000154740000020626000001447100000193300 X160720180
7894916503754AGLUCOSE 50mg cx 30 comp      00000022790000003151SIGMA PHAR0000002223000000307300000021960000003036000000207100000028631 M191120180
7894916503761AGLUCOSE 100mg cx 30 comp     00000034570000004779SIGMA PHAR0000003373000000466300000033320000004606000000314300000043451 M191120180
7895858005849AGRASTAT 0,25mg/ml sol inj 1fa00000911020000000000ASPEN PHAR0000088880000000000000000878090000000000000008282000000000001 H180920180
7898924769096AGRYLIN 0.5mg fr 100 cap      00002545730000351932SHIRE     0000248364000034334900002453720000339212000023143000003199381 M231120180
7898170783327AGUA ESTERIL PARA INJETAVEIS B00000551900000000000BEKER     0000053844000000000000000531950000000000000005017300000000001 H040420180
7898901848813AGUA PARA INJECAO 25amp x 10ml00000012760000000000ABL-ANTIBI0000001245000000000000000012300000000000000000116000000000001 H240420180
7898361700010AGUA PARA INJECAO 5ml sol inj 00000081960000000000ISOFARMA  0000007996000000000000000079000000000000000000745100000000001 H050420180
7898361700157AGUA PARA INJECAO 10ml sol inj00000085500000000000ISOFARMA  0000008342000000000000000082420000000000000000777300000000001 H050420180
7898361700195AGUA PARA INJECAO 20ml sol inj00000072250000000000ISOFARMA  0000007048000000000000000069640000000000000000656700000000001 H050420180
7898166040328AGUA PARA INJECAO cx 200 fr 1000000119690000000000FARMACE   0000011677000000000000000115360000000000000001088100000000001 H191020180
7898166040335AGUA PARA INJECAO cx 100 fr 2000000083740000000000FARMACE   0000008170000000000000000080720000000000000000761300000000001 H191020180
7898166041349AGUA PARA INJECAO cx 60 fr 10000000420960000000000FARMACE   0000041069000000000000000405740000000000000003826900000000001 H190920180
7898166041356AGUA PARA INJECAO cx 50 fr 25000000336110000000000FARMACE   0000032791000000000000000323960000000000000003055500000000001 H190920180
7898166041363AGUA PARA INJECAO cx 24 fr 50000000178970000000000FARMACE   0000017460000000000000000172500000000000000001627000000000001 H190920180
7898919447381AGUA PARA INJETAVEIS sol inj f00000006690000000000EUROFARMA 0000000653000000000000000006450000000000000000060800000000001 H310320180
7898919447398AGUA PARA INJETAVEIS sol inj f00000007470000000000EUROFARMA 0000000729000000000000000007200000000000000000067900000000001 H310320180
7898919447404AGUA PARA INJETAVEIS sol inj f00000010360000000000EUROFARMA 0000001010000000000000000009980000000000000000094200000000001 H310320180
7898170783204AGUA PARA INJETAVEIS sol inj c00000330240000000000BEKER     0000032219000000000000000318310000000000000003002200000000001 H040420180
7898170783211AGUA PARA INJETAVEIS sol inj c00000176150000000000BEKER     0000017185000000000000000169780000000000000001601300000000001 H040420180
7898170783228AGUA PARA INJETAVEIS sol inj c00000143850000000000BEKER     0000014034000000000000000138650000000000000001307700000000001 H040420180
7896014650095AGUA PARA INJETAVEIS sol inj c00000046360000006409BLAU FARMA0000004523000000625300000044690000006178000000421500000058271 M100420180
7896014650088AGUA PARA INJETAVEIS sol inj c00000023180000003204BLAU FARMA0000002261000000312600000022340000003088000000210700000029131 M100420180
7896004734323AH-ZUL 25mg cx 1bl x 2 comp re00000021650000002882LEGRAND PH0000002104000000280300000020750000002766000000194000000025910 M191120180
7896004730295AH-ZUL 25mg cx 1bl x 4 comp re00000040910000005450LEGRAND PH0000004091000000545000000040340000005377000000377300000050400 M150220180
7896004730301AH-ZUL 50mg cx 1bl x 2 comp re00000023710000003156LEGRAND PH0000002304000000307000000022720000003028000000212500000028390 M191120180
7896004730318AH-ZUL 50mg cx 1bl x 4 comp re00000046940000006248LEGRAND PH0000004562000000607800000044990000005997000000420700000056200 M191120180
7896004730325AH-ZUL 50mg cx 2bl x 4 comp re00000092630000012329LEGRAND PH0000009002000001199300000088770000011832000000830100000110880 M191120180
7896004728568AH-ZUL 100mg cx 1bl x 4 comp r00000083140000011066LEGRAND PH0000008080000001076500000079680000010621000000745100000099530 M191120180
7896004736778AH-ZUL 50mg cx 1bl x 1 comp re00000011850000001577LEGRAND PH0000001152000000153500000011360000001514000000106200000014190 M191120180
7896004734316AH-ZUL 50mg cx 12 comp rev    00000118080000015717LEGRAND PH0000011476000001529000000113170000015085000001058300000141370 M191120180
7896676432626AITRAVIC 0,04mg/ml sol oft ct 00000087150000012048LATINOFARM0000008502000001175400000084000000011613000000792200000109521 M170920180
7896422531788AIXA 2+0,03mg cx 21 comp rev  00000033350000004610MEDLEY    0000003254000000449800000032150000004445000000303200000041921 M240420180
7896422532228AIXA 2+0,03mg cx 63 comp rev  00000091080000012591MEDLEY    0000008886000001228400000087790000012136000000828000000114471 M240420180
7898940448128AKINETON 2mg com ct bl al plas00000026180000003619BAGO      0000002554000000353100000025230000003488000000238000000032901 M110520180
7898940448074AKINETON 4mg com rev lib retar00000017680000002444BAGO      0000001725000000238500000017040000002356000000160700000022221 M110520180
7898586630772AKYNZEO 0,56+300mg cx 1 cap   00000282790000037640MUNDIPHARM0000027483000003661600000271020000036125000002534400000338540 M190720180
7899095201934ALBEL 400mg cx 1 comp         00000005340000000738GEOLAB    0000000521000000072000000005150000000712000000048500000006701 M211120180
7899095201972ALBEL 200mg/5ml sus fr 10ml   00000006070000000839GEOLAB    0000000592000000081800000005850000000809000000055200000007631 M211120180
7899095205062ALBEL 400mg cx 03 comp        00000016020000002215GEOLAB    0000001563000000216100000015440000002134000000145600000020131 M211120180
7898148295227ALBENDAZOL 400mg cx 100 com ma00000082370000011387PRATI, DON0000008036000001110900000079390000010975000000748800000103521GM211120180
7899547527650ALBENDAZOL 400mg cx 3 comp mas00000013520000001869PRATI, DON0000001319000000182300000013030000001801000000122900000016991GM211120180
7899547527681ALBENDAZOL 400mg cx 5 comp mas00000022660000003133PRATI, DON0000002211000000305700000021840000003019000000206000000028481GM211120180
7896004710457ALBENDAZOL 400mg 1blt x 1 comp00000006040000000835GERMED GEN0000000589000000081400000005820000000805000000054900000007591GM191120180
7896181928836ALBENDAZOL 400mg cx 1 comp mas00000006210000000858BIOSINTETI0000000606000000083800000005990000000828000000056500000007811GM140520180
7896523215747ALBENDAZOL 400mg cx 1 comp mas00000006030000000834CIMED     0000000589000000081400000005820000000805000000054900000007591GM081120180
7898075316422ALBENDAZOL 400mg cx 1 comp mas00000006040000000835ONEFARMA  0000000589000000081400000005820000000805000000054900000007591GM081120180
7896181928829ALBENDAZOL 40mg/ml sus or fr 100000006580000000910BIOSINTETI0000000642000000088800000006340000000876000000059800000008271GM140520180
7896112101253ALBENDAZOL 400mg cx 3 comp mas00000017360000002400TEUTO     0000001694000000234200000016740000002314000000157800000021811GM131120180
7896523215754ALBENDAZOL 400mg cx 3 comp mas00000013110000001811CIMED     0000001279000000176800000012640000001747000000119200000016481GM081120180
7896004703541ALBENDAZOL 400mg cx 1 comp mas00000006210000000858EMS GENERI0000000606000000083800000005990000000828000000056500000007811GM191120180
7898075317771ALBENDAZOL 400mg cx 3 comp mas00000013110000001812ONEFARMA  0000001279000000176800000012640000001747000000119200000016481GM081120180
7898148292936ALBENDAZOL 40mg/ml sus or fr 100000004830000000668PRATI, DON0000000471000000065100000004650000000643000000043900000006071GM211120180
7894916143264ALBENDAZOL 40mg sus oral fr 1000000006120000000846LEGRAND GE0000000597000000082500000005900000000816000000055600000007691GM191120180
7896422511728ALBENDAZOL 400mg fr 1 comp mas00000005750000000795MEDLEY    0000000561000000077600000005540000000766000000052300000007231GM240420180
7896112126515ALBENDAZOL 400mg cx 1 comp mas00000005790000000800TEUTO     0000000565000000078100000005580000000771000000052600000007271GM131120180
7895296210218ALBENDAZOL 40mg/ml sus oral fr00000006930000000958NOVA QUIMI0000000676000000093500000006680000000923000000063000000008711GM211120180
7896112147909ALBENDAZOL 40mg/ml sus oral fr00000004570000000632TEUTO     0000000446000000061700000004410000000610000000041600000005751GM131120180
7896004702452ALBENDAZOL 40mg sus fr 10ml   00000006640000000918EMS GENERI0000000648000000089600000006400000000885000000060400000008351GM191120180
7898148295210ALBENDAZOL 400mg x 1 comp mast00000004920000000680PRATI, DON0000000480000000066400000004740000000655000000044700000006181GM211120180
7898148292943ALBENDAZOL 40mg/ml sus or cx 200000356680000000000PRATI, DON0000034798000000000000000343790000000000000003242500000000001GH211120180
7896112141006ALBENTEL 40mg/ml sus or fr 10m00000006130000000847TEUTO     0000000598000000082700000005910000000817000000055700000007701 M131120180
7896112197478ALBENTEL 40mg/ml sus or fr 10m00000006130000000847TEUTO     0000000598000000082700000005910000000817000000055700000007701 M131120180
7896112197454ALBENTEL 400mg cx 1 comp mast 00000005790000000800TEUTO     0000000565000000078100000005580000000771000000052600000007271 M131120180
7896112101260ALBENTEL 400mg cx 3 comp mast 00000017360000002400TEUTO     0000001694000000234200000016740000002314000000157800000021811 M131120180
7896672202643ALBICON tb 20g                00000011520000001533CHIESI    0000001119000000149200000011040000001472000000103200000013790 M310320180
7893736014518ALBISTIN 100.000ui/ml sus oral00000020550000002841CAZI      0000002005000000277200000019810000002739000000186800000025821 M170720180
7893736014525ALBISTIN 25.000ui/g creme vag 00000027200000003760CAZI      0000002654000000366900000026220000003625000000247300000034191 M170720180
7893736014501ALBISTIN 500.000ui cx 16 drg  00000026830000003709CAZI      0000002618000000361900000025860000003575000000243900000033721 M170720180
7896641800016ALBOCRESIL gel bg 50g+aplic   00000018080000002407TAKEDA PHA0000001757000000234100000017330000002310000000162000000021640 M160720180
7896641800023ALBOCRESIL cx 6 ovl           00000011710000001559TAKEDA PHA0000001138000000151600000011220000001496000000104900000014010 M160720180
7896641800030ALBOCRESIL sol fr 12ml        00000018210000002424TAKEDA PHA0000001770000000235800000017450000002326000000163200000021800 M160720180
7896014641307ALBUMAX 20% inj cx 1fa 50ml+eq00000269200000000000BLAU FARMA0000026263000000000000000259470000000000000002447200000000001 H100420180
7897499450941ALBUREX 20 200g/l sol inj ct f00000222280000000000CSL BEHRIN0000021686000000000000000214250000000000000002020800000000001 H160720180
7896472515349ALCACHOFRA MULTILAB 200mg cx 300000016750000002229MULTILAB  0000001628000000216900000016050000002139000000150100000020050 X211120180
7896472515356ALCACHOFRA MULTILAB 200mg cx 600000030670000004082MULTILAB  0000002981000000397200000029400000003919000000274900000036720 X211120180
7896472515363ALCACHOFRA MULTILAB 200mg cx 100000060080000007997MULTILAB  0000005839000000777900000057580000007675000000538500000071930 X211120180
7898179710775ALCOOL 70% (N.S.) fr 50ml     00000004530000000588IMEC      0000000440000000058500000004340000000577000000040700000005420 X240520180
8902220105683ALCYTAM 20mg cx 28 comp       00000074490000010298TORRENT DO0000007268000001004700000071800000009927000000677200000093621 M030420180
8902220105690ALCYTAM 20mg cx 14 comp       00000045860000006340TORRENT DO0000004475000000618600000044210000006112000000416900000057641 M030420180
7891268100228ALDACTONE 50mg cx 30 comp     00000038130000005271WYETH     0000003720000000514300000036750000005080000000346600000047921 M040420180
7891268100211ALDACTONE 25mg cx 30 comp     00000024230000003350WYETH     0000002364000000326800000023360000003229000000220300000030461 M040420180
7891268100204ALDACTONE 100mg cx 16 comp    00000027630000003820WYETH     0000002696000000372700000026640000003683000000251200000034731 M040420180
7891268100303ALDAZIDA 50+50mg cx 30 comp   00000031290000004326WYETH     0000003053000000422100000030160000004169000000284500000039331 M040420180
7899420500732ALDIJET 150+10mg/ml sol inj 1a00000012080000001670SUPERA    0000001179000000163000000011650000001611000000109900000015191 M030420180
7895858005917ALDOMET 250mg cx 30 comp rev  00000023480000003246ASPEN PHAR0000002291000000316700000022630000003128000000213500000029521 M180920180
7895858005924ALDOMET 500mg cx 30 comp rev  00000045770000006327ASPEN PHAR0000004465000000617300000044110000006098000000416100000057521 M180920180
7895858002404ALDOSTERIN 100mg cx 160 comp r00000161680000022351ASPEN PHAR0000015774000002180700000155840000021544000001469800000203191 M180920180
7895858002381ALDOSTERIN 25mg cx 200 comp re00000138520000000000ASPEN PHAR0000013514000000000000000133510000000000000001259300000000001 H180920180
7898328480085ALDURAZYME 2,9 mg/5 ml sol inj00001769020000244557GENZYME   0000172587000023859100001705080000235717000016082000002223241 M240420180
7896641807770ALEKTOS 20mg cx 30 comp       00000073680000009807TAKEDA PHA0000007161000000954100000070620000009413000000660400000088220 M160720180
7896641807763ALEKTOS 20mg cx 15 comp       00000036830000004902TAKEDA PHA0000003579000000476800000035290000004704000000330000000044080 M160720180
7898040320706ALENDIL 70mg cx 8 comp        00000152230000021045FQM/FARMA 0000014852000002053100000146730000020284000000000000000000001 M030420180
7898040320621ALENDIL 70mg cx 4 comp        00000101640000014051FQM/FARMA 0000009916000001370700000097960000013542000000000000000000001 M030420180
7898040321567ALENDIL CALCIO 70+500+2mg cx 400000109960000015201FQM/FARMA 0000010729000001483200000105990000014653000000000000000000001 M030420180
7898040321765ALENDIL CALCIO D 70+500+2mg cx00000094300000013037FQM/FARMA 0000009201000001272000000090900000012566000000000000000000001 M200420180
7896004727479ALENDOSSEO 70mg 1bl x 4 comp  00000039670000005484EMS MARCAS0000003870000000535000000038230000005285000000360600000049851 M191120180
7895296212816ALENDRONATO DE SODIO 70mg cx 100000094560000013072NOVA QUIMI0000009225000001275300000091140000012600000000859600000118831GM211120180
7894916143424ALENDRONATO DE SODIO 70mg cx 400000045760000006326LEGRAND GE0000004464000000617100000044100000006097000000416000000057511GM191120180
7896181920038ALENDRONATO DE SODIO 70mg cx 400000045470000006286BIOSINTETI0000004436000000613300000043830000006059000000413400000057151GM140520180
7896714231204ALENDRONATO DE SODIO 70mg cx 400000022000000003041NEO QUIMIC0000002146000000296700000021200000002931000000200000000027651GM180620180
7896112162322ALENDRONATO DE SODIO 70mg cx 400000029620000004095TEUTO     0000002890000000399500000028550000003947000000269300000037231GM131120180
7897595610089ALENDRONATO DE SODIO 70mg cx 400000037760000005220SANDOZ    0000003776000000522000000037310000005158000000351900000048651GM020420180
7897595610096ALENDRONATO DE SODIO 70mg cx 800000078130000010801SANDOZ    0000007813000001080100000077190000010671000000728000000100641GM020420180
7896004715353ALENDRONATO DE SODIO 70mg cx 400000045760000006326GERMED GEN0000004464000000617100000044100000006097000000416000000057511GM191120180
7896004715308ALENDRONATO DE SODIO 70mg cx 200000027110000003748EMS GENERI0000002645000000365700000026130000003612000000246500000034081GM191120180
7896004715322ALENDRONATO DE SODIO 70mg cx 400000047140000006517EMS GENERI0000004599000000635800000045440000006282000000428500000059241GM191120180
7895296420020ALENDRONATO DE SODIO c/4com-nq00000033610000004646NOVA QUIMI0000003279000000453300000032390000004478000000305500000042231GM211120180
7895296420013ALENDRONATO DE SODIO bltx12com00000084030000011617NOVA QUIMI0000008198000001133300000080990000011196000000763900000105601GM211120180
7891317001476ALENDRONATO DE SODIO 70mg cx 400000027800000003843EUROFARMA 0000002712000000374900000026790000003704000000252700000034931GM160720180
7893454101644ALENDRONATO DE SODIO 70mg cx 400000023530000003253CELLERA FA0000002296000000317400000022680000003135000000213900000029571GM020720180
7896714232119ALENDRUS 70mg cx 4 comp       00000020910000002891NEO QUIMIC0000002040000000282000000020150000002786000000190100000026281 M210520180
7896181917236ALENIA 6+200mcg cx 15 cap+inal00000022700000003138BIOSINTETI0000002215000000306200000021880000003025000000206400000028531 M140520180
7896181918905ALENIA 12+400mcg cx 15 cap ref00000020520000002837BIOSINTETI0000002002000000276800000019780000002734000000186500000025781 M161020180
7896181918912ALENIA 12+400mcg cx 15 cap+ina00000025890000003579BIOSINTETI0000002526000000349200000024960000003451000000235400000032541 M161020180
7896181905271ALENIA 6+100mcg fr 60 cap+inal00000076860000010625BIOSINTETI0000007499000001036700000074090000010243000000698800000096611 M140520180
7896181905295ALENIA 6+200mcg fr 60 cap+inal00000090860000012561BIOSINTETI0000008864000001225400000087570000012106000000826000000114191 M161020180
7896181905288ALENIA 6+200mcg fr 60 cap+refi00000061020000008436BIOSINTETI0000005953000000823000000058810000008130000000554700000076681 M140520180
7896181918943ALENIA 12+400mcg fr 60 cap+ref00000082100000011350BIOSINTETI0000008010000001107300000079130000010939000000746400000103191 M161020180
7896181918950ALENIA 12+400mcg fr 60 cap+ina00000103630000014326BIOSINTETI0000010110000001397600000099880000013808000000942100000130241 M161020180
7896422514477ALENTHUS XR 75mg cx 15 cap    00000046430000006419MEDLEY    0000004530000000626200000044750000006186000000422100000058351 M240420180
7896422514453ALENTHUS XR 150mg cx 15 cap ge00000072510000010024MEDLEY    0000007074000000977900000069890000009662000000659200000091131 M020420180
7896422514484ALENTHUS XR 75mg cx 30 cap    00000059800000008267MEDLEY    0000005834000000806500000057640000007968000000543600000075151 M020420180
7896422514460ALENTHUS XR 150mg cx 30 cap   00000070270000009714MEDLEY    0000006856000000947800000067730000009363000000638900000088321 M020420180
7896422516822ALENTHUS XR 37,5mg cx 7 cap ge00000010930000001511MEDLEY    0000001066000000147400000010530000001456000000099300000013731 M240420180
7896422519892ALENTHUS XR 37,5mg cx 15 cap  00000021230000002935MEDLEY    0000002071000000286300000020460000002828000000193000000026681 M020420180
7896422519908ALENTHUS XR 37,5mg cx 30 cap g00000029650000004099MEDLEY    0000002893000000399900000028580000003951000000269600000037271 M020420180
7896004739151ALERADINA 5mg cx 10 comp rev  00000030190000004018NOVA QUIMI0000002934000000390900000028930000003856000000270600000036150 M211120180
7895296258012ALERADINA 0,5mg/ml fr x 60ml  00000026100000003474NOVA QUIMI0000002537000000338000000025020000003335000000234000000031260 M211120180
7895296258029ALERADINA 5mg 1bl x 30 comp re00000074260000009884NOVA QUIMI0000007217000000961500000071170000009486000000665500000088900 M211120180
7895296258036ALERADINA 0,5mg/ml xpe fr x 1000000043570000005799NOVA QUIMI0000004234000000564100000041750000005565000000390400000052150 M211120180
7896672202513ALERFIN 100mcg fr 120 dos     00000054610000007550CHIESI    0000005328000000736500000052640000007277000000496400000068631 M310320180
7896004712673ALERGALIV 10mg cx 15 comp     00000010790000001436LEGRAND OT0000001049000000139800000010340000001378000000096700000012920 M191120180
7896004712666ALERGALIV 1mg xpe fr 100ml    00000024110000003209LEGRAND OT0000002343000000312200000023100000003079000000216100000028870 M191120180
7896004716480ALERGALIV D 1+12mg xpe fr 60ml00000018780000002500LEGRAND OT0000001825000000243100000018000000002399000000168300000022480 M191120180
7896714225586ALERGIDEX 0,4+0,05mg xpe fr 1200000019540000002601NEO QUIMIC0000001899000000253000000018730000002497000000175100000023390 M210520180
7896523209425ALERGOMINE 0,4mg/ml sol or fr 00000011920000001587CIMED     0000001159000000154400000011430000001524000000106800000014270 M081120180
7896523209715ALERGOMINE 10mg/g creme bg 30g00000009920000001320CIMED     0000000964000000128400000009500000001266000000088900000011880 M081120180
7896255767927ALETAM 40mg fr 30 cap         00000079180000000000ABBOTT    000000791800000000000000007918000000000000000079180000000000O L150620180
7899420506666ALEVO 750mg cx 5 comp rev     00000065430000009045SUPERA    0000006383000000882400000063060000008718000000594800000082231 M030420180
7899420501715ALEVO 500mg cx 10 comp rev    00000061410000008490SUPERA    0000005991000000828200000059190000008183000000558300000077181 M030420180
7899420501708ALEVO 500mg cx 7 comp rev     00000050330000006958SUPERA    0000004910000000678800000048510000006706000000457500000063251 M030420180
7899420501692ALEVO 500mg cx 3 comp rev     00000021630000002990SUPERA    0000002110000000291700000020850000002882000000196600000027181 M030420180
7899420506550ALEVO 750mg cx 7 comp rev     00000091590000012662SUPERA    0000008936000001235300000088280000012204000000832700000115121 M030420180
7894916503099ALEXA 0,06+0,015mg cx 24 comp 00000022640000003130SIGMA PHAR0000002209000000305400000021820000003016000000205800000028451 M191120180
7896014658251ALFAEPOETINA 40000ui/ml sol in00001310660000181191BLAU FARMA0000127869000017677100001263280000174641000011915100001647191 M100420180
7896014660131ALFAEPOETINA HUMANA RECOMBINAN00000053370000007378BLAU FARMA0000005207000000719800000051440000007111000000485200000067081 M100420180
7896014660148ALFAEPOETINA HUMANA RECOMBINAN00000560880000077538BLAU FARMA0000054720000007564700000540610000074736000005098900000704891 M100420180
7896014660193ALFAEPOETINA HUMANA RECOMBINAN00000485770000067155BLAU FARMA0000047392000006551700000468210000064727000004416100000610501 M100420180
7896014660209ALFAEPOETINA HUMANA RECOMBINAN00005304150000733268BLAU FARMA0000517478000071538300005112430000706763000048219500006666061 M100420180
7896014660155ALFAEPOETINA HUMANA RECOMBINAN00000099290000013726BLAU FARMA0000009687000001339200000095700000013230000000902700000124791 M100420180
7896014660162ALFAEPOETINA HUMANA RECOMBINAN00001191950000164780BLAU FARMA0000116288000016076100001148870000158825000010835900001498001 M100420180
7896014660254ALFAEPOETINA HUMANA RECOMBINAN00001390260000192195BLAU FARMA0000135635000018750700001340010000185249000012638700001747231 M100420180
7896014660216ALFAEPOETINA HUMANA RECOMBINAN00000115860000016017BLAU FARMA0000011303000001562600000111670000015438000001053200000145601 M100420180
7896014660179ALFAEPOETINA HUMANA RECOMBINAN00000169250000000000BLAU FARMA0000016512000000000000000163130000000000000001538600000000001 H100420180
7896014660186ALFAEPOETINA HUMANA RECOMBINAN00002031230000000000BLAU FARMA0000198169000000000000001957810000000000000018465700000000001 H100420180
7898149937799ALFAESTRADIOL 0,25mg/ml sol fr00000083090000011060BERGAMO   0000008075000001075800000079630000010614000000744700000099480GM021020180
7896181903055ALFAINTERFERONA 3.000.000ui po00000000000000000000BIOSINTETI0000000000000000000000000000000000000000000000000000000000001 M140520180
7896181904014ALFAINTERFERONA 5.000.000ui po00000000000000000000BIOSINTETI0000000000000000000000000000000000000000000000000000000000001 M140520180
7896181901235ALFAINTERFERONA 10.000.000ui p00000000000000000000BIOSINTETI0000000000000000000000000000000000000000000000000000000000001 M140520180
7898505092506ALGESTONA ACETOFENIDA+ENANTATO00000008540000001181MABRA     0000000833000000115200000008230000001138000000077600000010731GM310320180
7894916142809ALGESTONA+ESTRADIOL 150+10mg s00000008540000001181LEGRAND GE0000000833000000115200000008230000001138000000077600000010731GM191120180
7896523200590ALGEXIN 6,67+333,4mg/ml sol or00000012190000001623CIMED     0000001185000000157900000011680000001557000000109300000014600 M081120180
7896523200583ALGEXIN 10+250mg cx 10 drg    00000005360000000713CIMED     0000000521000000069400000005140000000685000000048000000006410 M081120180
7896360001176ALGI ARTICULAR fr 30 comp rev 00000043050000000000DOVALLE   000000430500000000000000004305000000000000000043050000000000O L150520180
7896360001794ALGI ARTICULAR fr 30 saches   00000109000000000000DOVALLE   000001090000000000000000010900000000000000000109000000000000O L150520180
7896360001633ALGI OSSEO fr 30 comp rev     00000055510000000000DOVALLE   000000555100000000000000005551000000000000000055510000000000O L150520180
7897473200425ALGI TANDERIL 30+125+50+300mg 00000027680000003684GLENMARK  0000002690000000358400000026530000003536000000248100000033140 M040420180
7897473201859ALGI TANDERIL 30+125+50+300mg 00000011070000001473GLENMARK  0000001076000000143400000010610000001414000000099200000013250 M040420180
7899640806355ALGICOD 500+30mg cx 12 comp   00000017450000002323MOMENTA   0000001696000000225900000016720000002229000000156400000020890 M030420180
7899640806362ALGICOD 500+30mg cx 24 comp   00000031690000004218MOMENTA   0000003080000000410400000030370000004048000000284000000037940 M030420180
7899640806379ALGICOD 500+30mg cx 36 comp   00000041490000005522MOMENTA   0000004032000000537200000039760000005300000000371800000049660 M030420180
7891721013010ALGINAC 1+50+50+50mg cx 15 com00000019340000002674MERCK     0000001887000000260900000018640000002577000000175800000024301 M071120180
7891721008405ALGINAC 1+50+50+50mg cx 30 com00000038810000005365MERCK     0000003786000000523400000037400000005170000000352800000048771 M071120180
7891721008368ALGINAC 5000mcg+100+100+75mg i00000019220000002657MERCK     0000001875000000259200000018520000002560000000174700000024151 M071120180
7891721012990ALGINAC 1+50+50+50mg cx 4 com 00000005160000000713MERCK     0000000503000000069500000004970000000687000000046900000006481 M071120180
7891721028922ALGINAC 5000mcg+100+100+75mg i00000006410000000886MERCK     0000000625000000086400000006170000000853000000058200000008051 M071120180
7891721023958ALGINAC RETARD 1+100+100+100mg00000016790000002321MERCK     0000001638000000226400000016180000002237000000152600000021101 M071120180
7891721023965ALGINAC RETARD 1+100+100+100mg00000038070000005263MERCK     0000003714000000513400000036690000005072000000346100000047851 M071120180
7898049796519ALGY-FLANDERIL 600mg cx 20 com00000016350000002260VITAMEDIC 0000001595000000220500000015760000002178000000148600000020551 M221120180
7898049792450ALGY-FLANDERIL 300mg cx 500 co00000165180000000000VITAMEDIC 0000016053000000000000000158310000000000000001480400000000000 H020420180
7898049792269ALGY-FLANDERIL 50mg/ml 50 fr g00000528110000000000VITAMEDIC 0000051325000000000000000506130000000000000004733100000000000 H020420180
7898049792955ALGY-FLANDERIL 600mg cx 500 co00000304040000000000VITAMEDIC 0000029662000000000000000293050000000000000002764000000000001 H020420180
7898049796502ALGY-FLANDERIL 300mg cx 20 com00000011590000001542VITAMEDIC 0000001126000000150000000011100000001480000000103800000013870 X100420180
7898049793334ALGY-FLANDERIL 50mg/ml sus ora00000014520000001933VITAMEDIC 0000001411000000188000000013910000001854000000130100000017380 X100420180
7896023700262ALICURA Display 50bl x 4 comp 00000135330000018013CATARINENS0000013152000001752300000129700000017288000001223300000163060 X240420180
7896382705366ALIMTA 500mg fr 50ml hosp     00007485650000000000ELI LILLY 0000730307000000000000007215080000000000000068051300000000001 H141120180
7896382706295ALIMTA 100mg fr 10ml hosp     00001497120000000000ELI LILLY 0000146060000000000000001443000000000000000013610100000000001 H141120180
7893736076004ALIVBABY 100mui+200mg pom bg 600000044230000005887CAZI      0000004299000000572800000042390000005650000000396400000052950 M170720180
7893736076011ALIVBABY 100mui+200mg pom bg 200000014700000001957CAZI      0000001429000000190400000014090000001878000000131800000017610 M170720180
7896112194347ALIVDIP 500mg/ml sol oral fr g00000005720000000761TEUTO     0000000556000000074100000005480000000730000000051300000006850 X131120180
7896112150381ALIVDIP 50mg/ml sol oral fr 1000000010290000001370TEUTO     0000001000000000133200000009860000001314000000092200000012320 X131120180
7898158690487ALIVIOL pom bg 20g            00000011150000001484CIFARMA   0000001084000000144200000010690000001422000000099900000013320 M300320180
7891142115386ALIVIUM 600mg cx 10 comp rev  00000024460000003268MANTECORP/0000002386000000317900000023530000003136000000220000000029390 M210520180
7891142115447ALIVIUM 400mg cx 192 comp rev 00000346790000046159MANTECORP/0000033703000004490300000332350000044300000003108000000415160 X210520180
7891142203410ALIVIUM 400mg cx 96 cap (emb m00000163880000021813MANTECORP/0000015927000002122000000157060000020935000001468700000196190 X210520180
7891142201621ALIVIUM 400mg cx 8 cap        00000013520000001800MANTECORP/0000001314000000175100000012960000001727000000121200000016190 X210520180
7891142201638ALIVIUM 400mg cx 10 cap       00000016030000002134MANTECORP/0000001558000000207600000015360000002047000000143700000019200 X211120180
7891142203434ALIVIUM 400mg cap mole ct bl a00000029140000003879MANTECORP/0000002832000000377300000027930000003723000000261200000034890 X211120180
7891142115478ALIVIUM 50mg fr gts 30ml      00000023890000003180MANTECORP/0000002322000000309400000022900000003052000000214100000028600 X210520180
7891142115430ALIVIUM 400mg cx 10 comp rev  00000017200000002289MANTECORP/0000001672000000222800000016490000002198000000154200000020600 X210520180
7891142115492ALIVIUM 100mg sus oral fr gts 00000025120000003344MANTECORP/0000002441000000325200000024070000003208000000225100000030070 X210520180
7891142115508ALIVIUM 30mg sus oral fr 100ml00000033280000004430MANTECORP/0000003234000000430900000031890000004251000000298200000039830 X210520180
7891142115126ALIVIUM 600mg cx 10 cap       00000024550000003268MANTECORP/0000002386000000317900000023530000003136000000220000000029390 M210520180
7896523213644ALIVPRESS 5mg cx 30 comp      00000012240000001692CIMED     0000001194000000165100000011800000001631000000111300000015391 M081120180
7896523213675ALIVPRESS 10mg cx 30 comp     00000021570000002982CIMED     0000002104000000290900000020790000002874000000196100000027111 M081120180
7896004741963ALKAGEL MENTA (N.S.) fr x 240 00000028320000003769EMS MARCAS0000002752000000366700000027140000003618000000253800000033900 X191120180
7896004741970ALKAGEL MORANGO (N.S.) fr x 2400000028320000003769EMS MARCAS0000002752000000366700000027140000003618000000253800000033900 X191120180
7895858013097ALKERAN 50mg po liof inj fa+so00000158710000000000ASPEN PHAR0000015484000000000000000152970000000000000001442800000000001 H180920180
7895858013103ALKERAN 2mg fr 25 comp rev    00000110390000015261ASPEN PHAR0000010770000001488900000106400000014709000001003600000138741 M180920180
7891058001506ALLEGRA 120mg cx 5 comp rev   00000022860000003043SANOFI-AVE0000002222000000296000000021910000002920000000204900000027370 M240420180
7891058001513ALLEGRA 180mg cx 5 comp rev   00000034900000004645SANOFI-AVE0000003392000000451900000033450000004459000000312800000041780 M040420180
7891058168049ALLEGRA 120mg cx 10 comp rev  00000045720000006085SANOFI-AVE0000004443000000591900000043810000005840000000409700000054730 M040420180
7891058169015ALLEGRA 180mg cx 10 comp rev  00000069790000009289SANOFI-AVE0000006783000000903700000066890000008916000000625500000083550 M040420180
7891058024314ALLEGRA 60mg cx 10 comp rev   00000023210000003089SANOFI-AVE0000002256000000300600000022250000002966000000208000000027780 M040420180
7891058006716ALLEGRA D 60+120 mg bl 10 com 00000039800000005298SANOFI-AVE0000003868000000515300000038140000005084000000356700000047650 M240420180
7891058002862ALLEGRA D 24H 180+240mg cx 5 c00000043050000005730SANOFI-AVE0000004184000000557400000041260000005500000000385800000051530 M040420180
7891058004347ALLEGRA PEDIATRICO 6mg/ml sus 00000020630000002746SANOFI-AVE0000002005000000267100000019770000002635000000184900000024700 M240420180
7891058004354ALLEGRA PEDIATRICO 6mg/ml sus 00000051550000006861SANOFI-AVE0000005010000000667500000049410000006586000000462000000061710 M040420180
7896658004896ALLESTRA 20 0,075+0,020mg cx 200000019540000002701ACHE      0000001906000000263500000018830000002603000000177600000024551 M140520180
7896658005046ALLESTRA 20 0,075+0,020mg cx 300000046360000006409ACHE      0000004523000000625300000044690000006178000000421500000058271 M140520180
7896658004902ALLESTRA 30 0,075+0,030mg cx 200000019540000002701ACHE      0000001906000000263500000018830000002603000000177600000024551 M140520180
7896658005053ALLESTRA 30 0,075+0,0,30mg cx 00000046360000006409ACHE      0000004523000000625300000044690000006178000000421500000058271 M140520180
7896004705378ALLEXOFEDRIN 120mg cx 10 comp 00000032800000004366EMS MARCAS0000003188000000424700000031440000004191000000294000000039270 M191120180
7896004705385ALLEXOFEDRIN 180mg cx 10 comp 00000046070000006132EMS MARCAS0000004477000000596500000044150000005885000000412900000055150 M191120180
7896004705408ALLEXOFEDRIN D 60+120mg cx 10 00000034150000004545EMS MARCAS0000003319000000442200000032730000004363000000306100000040890 M191120180
7899850900164ALLORA CARE HAIR 600mg fr 30 c00000061120000008135CELLERA CO000000594000000079140000005858000000780800000054780000007317O X020420180
7891106906890ALLURENE 2mg cx 28 comp       00000130930000017427BAYER     0000012725000001695400000125480000016726000000000000000000000 M240420180
7896637023375ALOIS 10mg cx 30 comp rev     00000067980000009396APSEN     0000006631000000916700000065510000009056000000617900000085421 M040920180
7896637025218ALOIS 10mg cx 50 comp rev     00000068140000009419APSEN     0000006647000000918800000065660000009077000000619300000085611 M040920180
7896637025553ALOIS 10mg cx 120 comp rev    00000160080000022127APSEN     0000015616000002158600000154280000021326000001455000000201131 M040920180
7896637024402ALOIS 10mg cx 60 comp rev     00000134590000018607APSEN     0000013132000001815300000129730000017934000001223600000169161 M040920180
7896637024525ALOIS 10mg/ml fr 50ml         00000111330000015391APSEN     0000010862000001501600000107310000014835000001012100000139911 M040920180
7897595612397ALOPURINOL 100mg cx 60 comp   00000013910000001923SANDOZ    0000001357000000187600000013410000001854000000126400000017471GM210520180
7897595622037ALOPURINOL 300mg cx 60 comp   00000039210000005421SANDOZ    0000003825000000528800000037790000005224000000356400000049271GM210520180
7897595605900ALOPURINOL 100mg bl 30 comp   00000007500000001037SANDOZ    0000000732000000101200000007230000001000000000068200000009431GM020420180
7897595635969ALOPURINOL 300mg cx 30 comp   00000022420000003099NOVARTIS  0000002187000000302300000021610000002987000000203800000028171GM010820180
7897595635914ALOPURINOL 100mg cx 30 comp   00000007600000001051NOVARTIS  0000000741000000102400000007320000001012000000069000000009541GM150820180
7899547503845ALOPURINOL 100mg cx 30 comp   00000007310000001011PRATI, DON0000000713000000098600000007040000000973000000066400000009181GM211120180
7899547503913ALOPURINOL 300mg cx 30 comp   00000021530000002977PRATI, DON0000002101000000290400000020750000002869000000195700000027051GM211120180
7899547503876ALOPURINOL 100mg cx 80 comp em00000019760000002732PRATI, DON0000001928000000266500000019050000002634000000179700000024841GM211120180
7899547503944ALOPURINOL 300mg cx 80 comp em00000058190000008044PRATI, DON0000005677000000784800000056080000007753000000529000000073131GM211120180
7897595602114ALOPURINOL 300mg cx 30 comp   00000020670000002858SANDOZ    0000002017000000278800000019930000002755000000187900000025981GM020420180
7896422516921ALOPURINOL 100mg cx 30 comp   00000007590000001049MEDLEY    0000000740000000102300000007310000001011000000069000000009541GM020420180
7896422516945ALOPURINOL 300mg cx 30 comp   00000022430000003101MEDLEY    0000002188000000302500000021620000002989000000203900000028191GM240420180
7899547503937ALOPURINOL 300mg cx 500 comp e00000190320000000000PRATI, DON0000018568000000000000000183440000000000000001730200000000001GH211120180
7899547503869ALOPURINOL 100mg cx 600 comp e00000108720000000000PRATI, DON0000010607000000000000000104790000000000000000988300000000001GH211120180
7897129303654ALOXIDIL fr 50ml              00000102880000013694THERASKIN 0000009999000001332100000098610000013143000000922100000123170 M040420180
7898149937898ALOZEX 0,25mg/ml sol fr x 100m00000127160000016925BERGAMO   0000012358000001646500000121870000016244000001139600000152230 M021020180
7899095203952ALPHABRIN 2mg sol oft fr 5ml  00000043680000006039GEOLAB    0000004261000000589100000042100000005820000000397000000054881 M211120180
7899095203938ALPHABRIN P 1,5mg sol oft fr 500000044310000006126GEOLAB    0000004323000000597600000042710000005904000000402800000055681 M211120180
7897316801017ALPHAGAN 0,20% sol fr 5ml     00000068170000009424ALLERGAN  0000006651000000919500000065710000009084000000619800000085681 M060620180
7897316804087ALPHAGAN 0,20% sol fr 10ml    00000110170000015230ALLERGAN  0000010748000001485800000106190000014680000001001500000138451 M060620180
7897316804209ALPHAGAN P 0,15% sol fr 5ml   00000068170000009424ALLERGAN  0000006651000000919500000065710000009084000000619800000085681 M060620180
7897316805268ALPHAGAN Z 0,10% sol fr 5ml   00000035710000004937ALLERGAN  0000003484000000481600000034420000004758000000324600000044871 M060620180
7897316806418ALPHAGAN Z 0,10 sol fr 3ml    00000021410000002960ALLERGAN  0000002089000000288800000020640000002853000000194700000026921 M060620180
7896004718859ALPRAZOLAM 0,25mg cx 30 comp  00000007910000001094GERMED GEN0000000772000000106700000007630000001055000000071900000009941GM191120180
7898910350994ALPRAZOLAM 0,5mg cx 30 comp   00000010390000001437ZYDUS NIKK0000001014000000140200000010020000001385000000094500000013061GM200420180
7898910350963ALPRAZOLAM 1mg cx 30 comp     00000018650000002578ZYDUS NIKK0000001819000000251500000017970000002485000000169500000023431GM200420180
7895296280013ALPRAZOLAM 0,25mg cx 20 comp  00000007670000001060NOVA QUIMI0000000748000000103400000007390000001022000000069700000009641GM211120180
