7898040325565ABRETIA 30mg cx 30 cap        00000052710000007287FQM/FARMA 0000005143000000710900000050810000007025000000000000000000001SM030420180
7898040325602ABRETIA 60mg cx 30 cap        00000100050000013831FQM/FARMA 0000009761000001349400000096430000013331000000000000000000001SM030420180
7896862980153ACEBROFILINA 5mg/ml xpe fr 12000000016140000002232MEDQUIMICA0000001575000000217700000015560000002151000000146800000020291GM030420180
7896862981464ACEBROFILINA 10mg/ml xpe fr 1200000023910000003306MEDQUIMICA0000002333000000322500000023050000003186000000217400000030051GM030420180
7899620912731ACEBROFILINA 10 mg/ml xpe ct f00000015380000002126GLOBO     0000001500000000207400000014820000002049000000139800000019331GM210520180
7899620912748ACEBROFILINA 5 mg/ml xpe ct fr00000012920000001786GLOBO     0000001260000000174200000012450000001721000000117400000016231GM210520180
7898940658800ACECLOFENACO 100mg cx 12 comp 00000024500000003387ZYDUS NIKK0000002390000000330400000023610000003264000000222700000030791GM200420180
7898947385785ACETATO DE ATOSIBANA 7,50mg/ml00000461580000000000ACCORD    0000045032000000000000000444890000000000000004196200000000001GH160520180
7899620912694ACETATO DE DEXAMETASONA 1 mg/g00000003540000000489GLOBO     0000000345000000047700000003410000000471000000032100000004441GM210520180
7897732603950ACETAZONA 0,1mg/ml elx 40fr pl00000088870000000000SOBRAL    0000008670000000000000000085660000000000000000807900000000001SH100420180
7891317001513ACICLOVIR 200mg cx 25 comp    00000055250000007638EUROFARMA 0000005390000000745100000053250000007362000000502300000069441GM160720180
7896523216652ACICLOVIR 200mg cx 500 comp (e00002667400000000000CIMED     0000260234000000000000002570990000000000000024249100000000001GH081120180
7897595635198ACICLOVIR 200mg cx 50 comp    00000082010000011337SANDOZ    0000008001000001106100000079050000010928000000745500000103061GM180620180
7896006202875ACICLOVIR 200mg cx 30 comp    00000052700000007285UNIAO QUIM0000005141000000710700000050790000007021000000479000000066231GM071120180
7895296436014ACICLOVIR 200mg  cx 30 comp   00000061560000008510NOVA QUIMI0000006006000000830300000059340000008203000000559600000077361GM211120180
7896112401230ACIDO VALPROICO 250mg cx 25 ca00000011110000001536BIOLAB GEN0000001084000000149800000010710000001480000000101000000013961GM231120180
7896026305372ACTILYSE 10mg po liof inj fa+d00000000000000000000BOEHRINGER0000000000000000000000000000000000000000000000000000000000001OH170820180
7896026305389ACTILYSE 20mg po liof inj fa+d00000000000000000000BOEHRINGER0000000000000000000000000000000000000000000000000000000000001OH170820180
7896026301633ACTILYSE 50mg po liof inj fa+d00000000000000000000BOEHRINGER0000000000000000000000000000000000000000000000000000000000001OH170820180
7891058021276ADACEL fr 1 dose 0,5ml        00000104730000014478SANOFI-AVE0000010218000001412600000100950000013956000000952100000131621OM040420180
7893454713922ADAPTA 37,5mg cx 30 cap lib pr00000025370000003507CELLERA FA0000002475000000342200000024450000003380000000230600000031881SM190720180
7893454713939ADAPTA 75mg cx 30 cap lib prol00000059410000008213CELLERA FA0000005796000000801300000057260000007916000000540100000074671SM190720180
7893454713946ADAPTA 150mg cx 30 cap lib pro00000084210000011642CELLERA FA0000008216000001135800000081170000011221000000765600000105841SM190720180
7893454714035ADAPTA 75mg cx 10 cap lib prol00000019800000002737CELLERA FA0000001932000000267100000019090000002639000000180000000024881SM190720180
7896360001152ADEPLEX PLUS fr gotas 20ml    00000023760000000000DOVALLE   000000237600000000000000002376000000000000000023760000000000OOL150520180
7896004760025ADILOZ 600 bl 10 comp rev (hos00001996240000275968SIGMA PHAR0000194755000026923700001924090000265994000018147600002508801SM191120180
7896658021749ADIPEPT 40mg cx 42 comp rev   00000049860000006893ACHE      0000004864000000672400000048050000006643000000453200000062651SM180620180
7891268100112ADRIBLASTINA RD 10mg 1 fa     00000052590000000000WYETH     0000005131000000000000000050690000000000000000478100000000001RH040420180
7891268100136ADRIBLASTINA RD 50mg 1 fa     00000218540000000000WYETH     0000021321000000000000000210640000000000000001986700000000001RH040420180
7898924769645ADVATE 1000ui po liof inj 1 fa00003417970000000000SHIRE     0000333460000000000000003294420000000000000031072400000000001OH231120180
7898924769621ADVATE 250ui po liof inj 1 fa 00000946790000000000SHIRE     0000092370000000000000000912570000000000000008607200000000001OH231120180
7898924769638ADVATE 500ui po liof inj 1 fa 00001798880000000000SHIRE     0000175500000000000000001733860000000000000016353400000000001OH231120180
7897473201071AEROGOLD 100mcg po aer inal fr00000025550000003532GLENMARK  0000002493000000344600000024630000003405000000232300000032111SM040420180
7898924769096AGRYLIN 0.5mg fr 100 cap      00002545730000351932SHIRE     0000248364000034334900002453720000339212000023143000003199381RM231120180
7898919447381AGUA PARA INJETAVEIS sol inj f00000006690000000000EUROFARMA 0000000653000000000000000006450000000000000000060800000000001OH310320180
7898919447398AGUA PARA INJETAVEIS sol inj f00000007470000000000EUROFARMA 0000000729000000000000000007200000000000000000067900000000001OH310320180
7898919447404AGUA PARA INJETAVEIS sol inj f00000010360000000000EUROFARMA 0000001010000000000000000009980000000000000000094200000000001OH310320180
7896676432626AITRAVIC 0,04mg/ml sol oft ct 00000087150000012048LATINOFARM0000008502000001175400000084000000011613000000792200000109521SM170920180
7898940448128AKINETON 2mg com ct bl al plas00000026180000003619BAGO      0000002554000000353100000025230000003488000000238000000032901RM110520180
7898940448074AKINETON 4mg com rev lib retar00000017680000002444BAGO      0000001725000000238500000017040000002356000000160700000022221RM110520180
7898075316422ALBENDAZOL 400mg cx 1 comp mas00000006040000000835ONEFARMA  0000000589000000081400000005820000000805000000054900000007591GM081120180
7896181928829ALBENDAZOL 40mg/ml sus or fr 100000006580000000910BIOSINTETI0000000642000000088800000006340000000876000000059800000008271GM140520180
7896112101253ALBENDAZOL 400mg cx 3 comp mas00000017360000002400TEUTO     0000001694000000234200000016740000002314000000157800000021811GM131120180
7896523215754ALBENDAZOL 400mg cx 3 comp mas00000013110000001811CIMED     0000001279000000176800000012640000001747000000119200000016481GM081120180
7896004703541ALBENDAZOL 400mg cx 1 comp mas00000006210000000858EMS GENERI0000000606000000083800000005990000000828000000056500000007811GM191120180
7898075317771ALBENDAZOL 400mg cx 3 comp mas00000013110000001812ONEFARMA  0000001279000000176800000012640000001747000000119200000016481GM081120180
7896112197478ALBENTEL 40mg/ml sus or fr 10m00000006130000000847TEUTO     0000000598000000082700000005910000000817000000055700000007701SM131120180
7896112197454ALBENTEL 400mg cx 1 comp mast 00000005790000000800TEUTO     0000000565000000078100000005580000000771000000052600000007271SM131120180
7896112101260ALBENTEL 400mg cx 3 comp mast 00000017360000002400TEUTO     0000001694000000234200000016740000002314000000157800000021811SM131120180
7895296420020ALENDRONATO DE SODIO c/4com-nq00000033610000004646NOVA QUIMI0000003279000000453300000032390000004478000000305500000042231GM211120180
7895296420013ALENDRONATO DE SODIO bltx12com00000084030000011617NOVA QUIMI0000008198000001133300000080990000011196000000763900000105601GM211120180
7891317001476ALENDRONATO DE SODIO 70mg cx 400000027800000003843EUROFARMA 0000002712000000374900000026790000003704000000252700000034931GM160720180
7893454101644ALENDRONATO DE SODIO 70mg cx 400000023530000003253CELLERA FA0000002296000000317400000022680000003135000000213900000029571GM020720180
7896255767927ALETAM 40mg fr 30 cap         00000079180000000000ABBOTT    000000791800000000000000007918000000000000000079180000000000OOL150620180
7899420506550ALEVO 750mg cx 7 comp rev     00000091590000012662SUPERA    0000008936000001235300000088280000012204000000832700000115121SM030420180
7896360001176ALGI ARTICULAR fr 30 comp rev 00000043050000000000DOVALLE   000000430500000000000000004305000000000000000043050000000000OOL150520180
7896360001794ALGI ARTICULAR fr 30 saches   00000109000000000000DOVALLE   000001090000000000000000010900000000000000000109000000000000OOL150520180
7896360001633ALGI OSSEO fr 30 comp rev     00000055510000000000DOVALLE   000000555100000000000000005551000000000000000055510000000000OOL150520180
7895858013103ALKERAN 2mg fr 25 comp rev    00000110390000015261ASPEN PHAR0000010770000001488900000106400000014709000001003600000138741OM180920180
7895858013097ALKERAN 50mg po liof inj fa+so00000158710000000000ASPEN PHAR0000015484000000000000000152970000000000000001442800000000001OH180920180
7899850900164ALLORA CARE HAIR 600mg fr 30 c00000061120000008135CELLERA CO000000594000000079140000005858000000780800000054780000007317OOX020420180
7896637024525ALOIS 10mg/ml fr 50ml         00000111330000015391APSEN     0000010862000001501600000107310000014835000001012100000139911OM040920180
7897595612397ALOPURINOL 100mg cx 60 comp   00000013910000001923SANDOZ    0000001357000000187600000013410000001854000000126400000017471GM210520180
7897595622037ALOPURINOL 300mg cx 60 comp   00000039210000005421SANDOZ    0000003825000000528800000037790000005224000000356400000049271GM210520180
7897595635969ALOPURINOL 300mg cx 30 comp   00000022420000003099NOVARTIS  0000002187000000302300000021610000002987000000203800000028171GM010820180
7897595635914ALOPURINOL 100mg cx 30 comp   00000007600000001051NOVARTIS  0000000741000000102400000007320000001012000000069000000009541GM150820180
7896676432503ALZ 10mg cx 60 comp rev       00000100790000013933LATINOFARM0000009833000001359400000097150000013430000000916200000126661SM030920180
7896676432497ALZ 10mg com rev ct bl al plas00000050410000006969LATINOFARM0000004918000000679900000048590000006717000000458300000063351SM030920180
7897851259786AMIOBAL 200 MG 200mg cx 20 com00000015700000002170BALDACCI  0000001532000000211800000015140000002093000000142800000019741SM090820180
7898075315128AMOXICILINA 50mg/ml po sus 50 00000333460000000000ONEFARMA  0000032533000000000000000321410000000000000003031500000000001GH081120180
7893454100920AMOXICILINA 400mg/5ml po sus f00000025950000003587CELLERA FA0000002532000000350000000025010000003457000000235900000032611GM200620180
7893454100852AMOXICILINA 875mg cx 14 comp r00000040130000005548CELLERA FA0000003915000000541200000038680000005347000000364800000050431GM200620180
7893454100890AMOXICILINA 875mg cx 20 comp r00000057320000007924CELLERA FA0000005592000000773100000055250000007638000000521100000072041GM200620180
7893454101811AMOXICILINA 500mg cx 21 cap   00000020680000002859CELLERA FA0000002018000000279000000019940000002757000000188000000025991GM200620180
7893454100906AMOXICILINA 250mg/5ml po sus f00000017210000002379CELLERA FA0000001679000000232100000016590000002293000000156500000021641GM200620180
7893454100913AMOXICILINA 500mg/5ml po sus f00000027070000003742CELLERA FA0000002641000000365100000026090000003607000000246100000034021GM200620180
7896523212586AMOXICILINA 50mg/ml po sus cx 00000473840000065506CIMED     0000046228000006390700000456710000063137000004307600000595501GM081120180
7896112101710AMOXICILINA TRI-HIDRATADA+CLAV00000060600000008378TEUTO     0000005912000000817300000058410000008075000000550900000076161GM131120180
7896112101734AMOXICILINA TRI-HIDRATADA+CLAV00000042100000005820TEUTO     0000004107000000567800000040580000005610000000382700000052911GM131120180
7897595636508AMOXICILINA TRI-HIDRATADA+CLAV00000028230000003903NOVARTIS  0000002754000000380700000027210000003762000000256600000035471GM061120180
7896004759609AMOXICILINA+CLAVULANATO DE POT00000144670000020000EMS GENERI0000014114000001951200000139440000019277000001315200000181821GM191120180
7898100243952AMOXICILINA+CLAVULANATO DE POT00000100580000013905BRASTERAPI0000009813000001356600000096950000013403000000914400000126411GM240420180
7899547513059AMOXICILINA+CLAVULANATO DE POT00003173690000000000PRATI, DON0000309629000000000000003058980000000000000028851700000000001GH211120180
7893454101002AMOXICILINA+CLAVULANATO DE POT00000095800000013244CELLERA FA0000009346000001292000000092330000012764000000870900000120401GM200620180
7893454101019AMOXICILINA+CLAVULANATO DE POT00000146910000020309CELLERA FA0000014333000001981500000141600000019575000001335600000184641GM200620180
7893454100944AMOXICILINA+CLAVULANATO DE POT00000061000000008433CELLERA FA0000005951000000822700000058790000008127000000554500000076661GM200620180
7898100243969AMOXICILINA+CLAVULANATO DE POT00000146910000020309BRASTERAPI0000014333000001981400000141600000019575000001335600000184641GM240420180
7898100243976AMOXICILINA+CLAVULANATO DE POT00000063480000008776BRASTERAPI0000006193000000856100000061180000008458000000577100000079781GM240420180
7896676422276AMYTRIL 25mg cx 60 comp rev   00000035160000004861SUPERA    0000003430000000474200000033890000004685000000319600000044181SM030420180
7896004755236ANASTROZOL 1mg cx 30 comp rev 00000474940000065658EMS GENERI0000046336000006405700000457780000063285000004317700000596901GM191120180
7899420506796ANDES 100mg cx 7 comp rev     00000017330000002396SUPERA    0000001691000000233800000016710000002310000000157600000021791SM030420180
7899420506802ANDES 100mg cx 30 comp rev    00000074270000010267SUPERA    0000007246000001001700000071590000009897000000675200000093341SM030420180
7899420506765ANDES 50mg cx 7 comp rev      00000015850000002191SUPERA    0000001546000000213700000015270000002111000000144100000019921SM030420180
7899420506772ANDES 50mg cx 30 comp rev     00000067910000009388SUPERA    0000006625000000915900000065450000009048000000617300000085341SM030420180
7896094209633ANSITEC 10mg cx 60 comp       00000100390000013878LIBBS     0000009796000001354200000096780000013380000000912600000126151SM180620180
7896094209619ANSITEC 5mg cx 60 comp        00000055970000007737LIBBS     0000005461000000755000000053960000007460000000508800000070331SM180620180
7899620910607APETISINA 240ml fr sb frutas v00000020000000000000GLOBO     000000200000000000000000002000000000000000000020000000000000OOL210520180
7899620910584APETISINA 240ml fr sb uva     00000020000000000000GLOBO     000000200000000000000000002000000000000000000020000000000000OOL210520180
7896112427773ARADOIS H 100mg cx 90 comp rev00000103870000014360BIOLAB    0000010134000001400900000100120000013841000000944300000130541SM020420180
7896004755229ARAZABI 1mg cx 30 comp rev (ho00000508870000070348EMS MARCAS0000049646000006863300000490480000067806000004626100000639531SM181020180
7896714273709ARIPIPRAZOL 10mg cx 30 comp   00000216970000029995NEO QUIMIC0000021168000002926400000209130000028911000001972500000272691GM171020180
7896714273723ARIPIPRAZOL 15mg cx 30 comp   00000325400000044985NEO QUIMIC0000031746000004388700000313640000043359000002958100000408941GM171020180
7898927562847ARIPIPRAZOL 10mg cx 30 comp   00000376220000052011ZYDUS NIKK0000036705000005074200000362620000050131000003420200000472821GM200420180
7898927562861ARIPIPRAZOL 15mg cx 10 comp   00000188120000026006ZYDUS NIKK0000018353000002537200000181320000025066000001710200000236421GM200420180
7898927562878ARIPIPRAZOL 15mg cx 30 comp   00000564340000078016ZYDUS NIKK0000055057000007611400000543940000075196000005130400000709241GM200420180
7898927562830ARIPIPRAZOL 10mg cx 10 comp   00000125410000017337ZYDUS NIKK0000012235000001691400000120870000016710000001140100000157611GM200420180
7895858016364ARIXTRA 2,5mg sol inj 2ser pre00000036670000005069ASPEN PHAR0000003578000000494600000035350000004887000000333400000046091OM180920180
7895858016432ARIXTRA 7,5mg sol inj 2 ser pr00000089620000012389ASPEN PHAR0000008743000001208700000086380000011942000000814700000112631OM180920180
7898524980563AROZEP 10 mg com rev ct bl al 00000076940000010637SUN PHARMA0000007506000001037700000074160000010252000000699400000096691SM221120180
7898524981263AROZEP 10 mg com rev ct bl al 00000109910000015194SUN PHARMA0000010723000001482400000105940000014646000000999200000138131SM221120180
7898524980532AROZEP 5 mg com rev ct bl al p00000069240000009572SUN PHARMA0000006755000000933800000066740000009226000000629400000087011SM221120180
7898524981256AROZEP 5 mg com rev ct bl al p00000098900000013672SUN PHARMA0000009649000001333900000095330000013179000000899100000124301SM221120180
7891317100933ARTICO 500+400mg cx 30 cap    00000044560000006160EUROFARMA 0000004347000000600900000042950000005938000000405100000056001OM120920180
7891317100926ARTICO 500 +400mg cx 90 cap   00000118710000016411EUROFARMA 0000011581000001601000000114410000015817000001079100000149181OM120920180
7896658033278ARTROGEN DUO 30 saches x 11g  00000098900000000000ACHE      000000989000000000000000009890000000000000000098900000000000OOL140520180
7891317197544ASTRO IV 500mg po liof sol inf00001534750000212170EUROFARMA 0000149732000020699600001479280000204502000013952300001928821SM230420180
7896004759739ATENOLOL+CLORT. 4 blx 15 comp 00000034090000004713EMS GENERI0000003326000000459800000032860000004543000000309900000042841GM191120180
7896523215976ATORVASTATINA CALCICA 10mg cx 00000144430000000000CIMED     0000014091000000000000000139210000000000000001313000000000001GH081120180
7896523216058ATORVASTATINA CALCICA 20mg cx 00000144430000000000CIMED     0000014091000000000000000139210000000000000001313000000000001GH081120180
7896523226804ATORVASTATINA CALCICA 20mg cx 00000148530000000000CIMED     0000014491000000000000000143160000000000000001350300000000001GH081120180
7897595636287ATORVASTATINA CALCICA 10mg cx 00000034270000004738NOVARTIS  0000003343000000462200000033030000004566000000311500000043061GM121120180
7897595636294ATORVASTATINA CALCICA 20mg cx 00000034270000004738NOVARTIS  0000003343000000462200000033030000004566000000311500000043061GM121120180
7898565581927ATTOSY 7,50mg/ml sol dil inj f00000724930000000000ACCORD    0000070725000000000000000698730000000000000006590300000000001SH030420180
7896422506083AXETILCEFUROXIMA 500mg cx 14 c00000092910000012844MEDLEY    0000009064000001253000000089550000012380000000844600000116761GM180520180
7897076909596AZITROMICINA 500mg cx 2 comp  00000008710000001204RANBAXY   0000000850000000117500000008400000001161000000079200000010951GM120920180
7896004759678AZITROMICINA 1500mg pos sus+di00000023620000003265EMS GENERI0000002304000000318500000022760000003146000000214700000029681GM191120180
7893454101033AZITROMICINA 500mg cx 3 comp r00000027560000003810CELLERA FA0000002689000000371700000026570000003673000000250600000034641GM200620180
7893454101071AZITROMICINA 500mg cx 5 comp r00000039270000005429CELLERA FA0000003831000000529600000037850000005233000000357000000049351GM200620180
7893454101101AZITROMICINA 1500mg po sus fr 00000026040000003600CELLERA FA0000002540000000351100000025090000003469000000236700000032721GM231120180
7893454101088AZITROMICINA 600mg po sus fr 100000018290000002528CELLERA FA0000001784000000246600000017630000002437000000166200000022981GM231120180
7893454101095AZITROMICINA 900mg po sus fr 200000026040000003600CELLERA FA0000002540000000351100000025090000003469000000236700000032721GM231120180
7897076909602AZITROMICINA 500mg cx 3 comp  00000012610000001743RANBAXY   0000001230000000170000000012150000001680000000114600000015841GM120920180
7898216372027AZITROMICINA DI-HIDRATADA 500m00000008280000001145PHARLAB   0000000808000000111700000007980000001104000000075300000010411GM230520180
8903855076034AZUKON MR 6x10 tab            00000019560000002704TORRENT DO0000001908000000263800000018850000002606000000177800000024581SM170720180
7897732603875BACSULFAPRIM 40+08mg/ml sus or00000003920000000542SOBRAL    0000000382000000052800000003770000000521000000035600000004921SM180620180
7896382708183BASAGLAR 100ui/ml sol inj 5 ca00000158100000021856ELI LILLY 0000015424000002132300000152380000021066000001437200000198681OM141120180
7896382708176BASAGLAR 100ui/ml sol inj 2 ca00000063230000008741ELI LILLY 0000006169000000852800000060950000008426000000574800000079461OM141120180
7896382707681BASAGLAR 100ui/ml sol inj 5 ca00000156380000021619ELI LILLY 0000015257000002109200000150730000020838000001421700000196541OM141120180
7896382707674BASAGLAR 100ui/ml sol inj 2 ca00000062560000008649ELI LILLY 0000006103000000843700000060290000008335000000568700000078621OM141120180
7897473201705BECLORT 250mcg sol aer spray 200000041880000005790GLENMARK  0000004086000000564800000040360000005580000000380700000052631SM040420180
7894916512534BEDECI 2mg/ml sol inj 5 amp 5m00000134350000018573SIGMA PHAR0000013107000001812000000129490000017901000001221300000168841SM191120180
7894916512541BEDECI 2mg/ml sol inj 5 amp 1000000263060000036367SIGMA PHAR0000025664000003547900000253550000035052000002391400000330601SM191120180
7898560663802BEDIMZA 5+2mg/ml sus inj ct am00000017910000002476MYLAN     0000001747000000241500000017260000002386000000162800000022511SM180920180
7898582380527BELARA 2+0,03mg bl calend 21 c00000033340000004609GRUNENTHAL0000003253000000449700000032140000004443000000303100000041901RM170420180
7896261014497BENEFIBER pote 155 g          00000071570000000000GSK CONSUM000000696300000000000000006870000000000000000000000000000000OOL030420180
7896261015500BENEFIBER NUTRIOSE 3,5g cx 28 00000079610000000000GSK CONSUM000000774500000000000000007641000000000000000000000000000000OOL030420180
7896261015043BENEFIBER NUTRIOSE 3,5g cx 10 00000033280000000000GSK CONSUM000000323800000000000000003195000000000000000000000000000000OOL030420180
7896112102397BEPEBEN 1200000ui 50 po sus in00000544260000075241TEUTO     0000053099000007340600000524590000072521000004947900000684021SM131120180
7896112144151BEPEBEN 1.200.000ui po sus inj00000010890000001505TEUTO     0000001062000000146800000010490000001450000000099000000013691SM131120180
7896112125037BEPEBEN 1.200.000ui po sus inj00000010890000001505TEUTO     0000001062000000146800000010490000001450000000099000000013691SM131120180
7897499450002BERIBUMIN 200g/l sol inj fa 5000000222200000000000CSL BEHRIN0000021678000000000000000214170000000000000002020000000000001OH160720180
7895296415026BESILATO DE ANLODIPINO 10mg cx00000030700000004244NOVA QUIMI0000002995000000414000000029590000004091000000279100000038581GM211120180
7895296415019BESILATO DE ANLODIPINO 5mg cx 00000015590000002155NOVA QUIMI0000001521000000210300000015030000002078000000141700000019591GM211120180
7898219370587BESILATO DE ANLODIPINO 10 mg c00000033980000004698PHARLAB   0000003315000000458300000032740000004527000000308800000042691GM230520180
7898219370563BESILATO DE ANLODIPINO 5 mg co00000017390000002404PHARLAB   0000001697000000234600000016760000002317000000158100000021851GM230520180
7898216370580BESILATO DE ANLODIPINO 10mg cx00000033040000004568PHARLAB   0000003223000000445600000031840000004402000000300300000041511GM230520180
7898216370566BESILATO DE ANLODIPINO 5mg cx 00000016910000002338PHARLAB   0000001650000000228100000016300000002253000000153700000021251GM230520180
7891268030891BESILATO DE ANLODIPINO 10mg cx00000056460000007805PFIZER    0000005508000000761400000054420000007523000000513200000070951GM040420180
7891268030921BESILATO DE ANLODIPINO 10mg cx00000114750000015864PFIZER    0000011195000001547600000110600000015290000001043200000144221GM040420180
7891268030884BESILATO DE ANLODIPINO 5mg cx 00000028690000003966PFIZER    0000002799000000386900000027650000003822000000260800000036051GM040420180
7891268030907BESILATO DE ANLODIPINO 5mg cx 00000058250000008053PFIZER    0000005683000000785600000056150000007762000000529600000073211GM040420180
7897595636010BESILATO DE ANLODIPINO 5mg cx 00000008990000001243NOVARTIS  0000000899000000124300000008880000001228000000083800000011581GM010820180
7897595636096BESILATO DE ANLODIPINO 10mg cx00000014990000002072NOVARTIS  0000001499000000207200000014810000002047000000139700000019311GM010820180
7899547531220BESILATO DE ANLODIPINO 5mg cx 00000034180000004725PRATI, DON0000003335000000461000000032950000004555000000310800000042971GM211120180
7897595635112BESILATO DE ANLODIPINO 5 mg co00000030550000004223SANDOZ    0000003055000000422300000030180000004172000000284700000039361GM110920180
7897595635136BESILATO DE ANLODIPINO 10 mg c00000052320000007233SANDOZ    0000005232000000723300000051690000007146000000487500000067391GM110920180
7896006248927BETAPROSPAN 5+2mg/ml sus inj 100000014220000001966UNIAO QUIM0000001387000000191800000013710000001895000000129300000017871SM071120180
7896317911626BETRAT 5000mcg+100+100mg cx 6000000092250000012753ATIVUS    0000009000000001244200000088920000012292000000838600000115941OM031020180
7898565581316BICALUTAMIDA 50mg cx 30 comp r00000576900000079753ACCORD    0000056283000007780800000556050000076871000005244600000725041GM030420180
7891317001964BICERTO 150mg com lib prol ct 00000026460000003658EUROFARMA 0000002581000000356800000025500000003525000000240500000033251SM030920180
7891317001971BICERTO 150mg com lib prol ct 00000010580000001463EUROFARMA 0000001032000000142700000010200000001410000000096200000013301SM030920180
7891142203113BIFILAC fr 30 comp            00000057670000000000COSMED    000000576700000000000000005767000000000000000057670000000000OOL210520180
7899095250154BIMAGAN 0,3mg/ml fr c/ 3 ml   00000079520000010993GEOLAB    0000007758000001072500000076650000010596000000722900000099941SM211120180
7896676422368BIOFLAC bioflac 15mg com 5 bl 00000018010000002490SUPERA    0000001757000000242900000017360000002400000000163700000022631SM030420180
7896181921264BIOMATROP 16ui po liof inj fa+00000732490000101262BIOSINTETI0000071462000009879200000706010000097602000006659000000920571OM140520180
7896658026850BIOZINC KIDS fr 75ml          00000022780000000000ACHE      000000221600000000000000002186000000000000000020490000000000OOL140520180
7898075316262BISSULFATO DE CLOPIDOGREL 75mg00000056540000007816ONEFARMA  0000005516000000762600000054500000007534000000514000000071061GM081120180
8901148239104BISSULFATO DE CLOPIDOGREL 75mg00000042400000008105DR. REDDYS0000004137000000790700000040870000007811000000385500000073681GM131120180
8901148240810BISSULFATO DE CLOPIDOGREL 75mg00000080600000011142DR. REDDYS0000007863000001087000000077680000010739000000732700000101291GM131120180
7897595635143BISSULFATO DE CLOPIDOGREL 75mg00000104780000014485SANDOZ    0000010478000001448500000103520000014311000000976400000134981GM210520180
7896523219332BISSULFATO DE CLOPIDOGREL 75mg00000023750000003283CIMED     0000002317000000320300000022890000003164000000215900000029851GM081120180
7899640802708BOLT 500+400mg cx 30 cap      00000061630000008520MOMENTA   0000006013000000831300000059410000008213000000560300000077461OM030420180
7899640802715BOLT 500+400mg cx 90 cap      00000184890000025560MOMENTA   0000018038000002493700000178210000024636000001680800000232361OM030420180
7898605330409BONVIVA 150mg cx 1 comp rev   00000178630000024695BAGO      0000017427000002409200000172170000023801000001623900000224491RM110520180
8901148239371BORTEZOMIBE 3,5mg po liof sol 00002781200000000000DR. REDDYS0000271337000000000000002680680000000000000025283700000000001GH170920180
7899551304759BOSENTANA 125mg fr 60 comp    00003510220000485267BIOLAB GEN0000342460000047343100003383340000467727000031911000004411511GM200420180
7899551304667BOSENTANA 62,5mg fr 60 comp re00001755100000242632BIOLAB GEN0000171229000023671400001691660000233862000015955400002205741GM070620180
7896014686117BOTULIM 100 u po liof inj 01 c00001181540000163341BLAU FARMA0000115272000015935700001138830000157437000010741300001484921OM100420180
7896014686124BOTULIM 200 u po liof inj 01 c00002363080000326682BLAU FARMA0000230544000031871400002277660000314873000021482500002969831OM100420180
7896014686100BOTULIM 50 u po liof inj 01 ct00000590770000081670BLAU FARMA0000057636000007967800000569420000078719000005370600000742451OM100420180
8901148240063BOZORED 3,5mg po liof sol inj 00003530050000000000DR. REDDYS0000344395000000000000003402460000000000000032091300000000001SH170920180
7894916513036BRASART BCC 160+5mg cx 9bl x 100000090650000012532SIGMA PHAR0000008844000001222600000087370000012078000000824100000113931SM191120180
7894916512480BRASART HCT 160/12,5mg cx 90 c00000090480000012508SIGMA PHAR0000008828000001220400000087210000012056000000822600000113721SM191120180
7896658018800BRAVAN HCT 80+12,5mg cx 30 com00000035880000004960ACHE      0000003500000000483900000034580000004780000000326100000045081SM160820180
7896658018763BRAVAN HCT 160+12,5mg cx 30 co00000035880000004960ACHE      0000003500000000483900000034580000004780000000326100000045081SM160820180
7896658018787BRAVAN HCT 160+25mg cx 30 comp00000035880000004960ACHE      0000003500000000483900000034580000004780000000326100000045081SM160820180
7896206403478BRILINTA 90mg cx 20 comp rev  00000082960000011469SERVIER   0000008094000001118900000079960000011054000000000000000000001RM160520180
7896206403409BRILINTA 90mg cx 60 comp rev  00000248860000034403SERVIER   0000024279000003356400000239860000033159000000000000000000001RM160520180
7896004763576BROMAZEPAM 3mg 2bl x 10 comp  00000051250000007085EMS GENERI0000005000000000691200000049400000006829000000465900000064411GM191120180
7895296231015BROMID.GALANTAMINA 8mg 4bl x 700000118140000016332NOVA QUIMI0000011526000001593400000113870000015742000001074000000148471GM211120180
7895296231022BROMID.GALANTAMINA 16mg 4bl x 00000132790000018357NOVA QUIMI0000012955000001791000000127990000017694000001207200000166891GM211120180
7898943601841BROMIDRATO DE GALANTAMINA 16mg00000188350000026038BERGAMO   0000018376000002540400000181550000025098000001712300000236721GM021020180
7898943601872BROMIDRATO DE GALANTAMINA 24mg00000202540000028000BERGAMO   0000019760000002731700000195220000026988000001841300000254551GM021020180
7898943601827BROMIDRATO DE GALANTAMINA 8mg 00000215080000029734BERGAMO   0000020983000002900800000207300000028658000001955200000270291GM021020180
7896360000919BUCLIPLEX fr 30 comp rev      00000027930000000000DOVALLE   000000279300000000000000002793000000000000000027930000000000OOL150520180
7896360000933BUCLIPLEX 120ml fr            00000026630000000000DOVALLE   000000266300000000000000002663000000000000000026630000000000OOL150520180
7894916512275BUPIUM LP 150mg cx 30 comp lib00000072460000010017SIGMA PHAR0000007069000000977200000069840000009655000000658700000091061OM191120180
7894916512961BUPIUM LP 150mg cx 60 comp lib00000115980000016034SIGMA PHAR0000011315000001564200000111790000015454000001054400000145761OM191120180
7894916512954BUPIUM LP 150mg cx 10 comp lib00000024140000003337SIGMA PHAR0000002355000000325600000023270000003217000000219400000030331OM191120180
7894916511988BUPIUM LP 300mg cx 30 comp lib00000091260000012616SIGMA PHAR0000008903000001230800000087960000012160000000829600000114691OM191120180
7894916512985BUPIUM LP 300mg cx 10comp lib 00000030460000004211SIGMA PHAR0000002972000000410900000029360000004059000000276900000038281OM191120180
7894916512978BUPIUM LP 300mg cx 6bl x10 com00000145830000020160SIGMA PHAR0000014227000001966800000140560000019432000001325700000183271OM191120180
7894916513159BUPIUM XL 150mg 1bltx10c.r.lib00000024140000003337SIGMA PHAR0000002355000000325600000023270000003217000000219400000030331SM191120180
7894916513173BUPIUM XL 150mg 6bltx10c.r.lib00000115980000016034SIGMA PHAR0000011315000001564200000111790000015454000001054400000145761SM191120180
7894916513180BUPIUM XL 300mg 3bltx10c.r.lib00000091260000012616SIGMA PHAR0000008903000001230800000087960000012160000000829600000114691SM191120180
7894916513166BUPIUM XL 150mg 3bltx10c.r.lib00000072460000010017SIGMA PHAR0000007069000000977200000069840000009655000000658700000091061SM191120180
7894916513203BUPIUM XL 300mg 1 bltx 10c.r. 00000030460000004211SIGMA PHAR0000002972000000410900000029360000004059000000276900000038281SM191120180
7894916513197BUPIUM XL 300mg 6 bltx10c.r.li00000145820000020159SIGMA PHAR0000014226000001966700000140550000019430000001325600000183261SM191120180
7898166042032BUTILBROMETO DE ESCOPOLAMINA 200000109340000000000FARMACE   0000010626000000000000000104790000000000000000979900000000001GH190920180
7898565581804BYCAL 50mg cx 28 comp rev     00000538450000074438ACCORD    0000052531000007262200000518990000071747000004895000000676711SM160520180
7898565581811BYCAL 50mg cx 30 comp rev     00000576900000079753ACCORD    0000056283000007780800000556050000076871000005244600000725041SM160520180
7898565581828BYCAL 50mg cx 56 comp rev     00001076890000148874ACCORD    0000105063000014524300001037970000143493000009790000001353411SM160520180
7898565581835BYCAL 50mg cx 60 comp rev     00001153810000159507ACCORD    0000112567000015561700001112100000153741000010489100001450061SM160520180
7898565581842BYCAL 50mg cx 84 comp rev     00001615330000223310ACCORD    0000157593000021786300001556950000215239000014684800002030091SM160520180
7898565581859BYCAL 50mg cx 90 comp rev     00001730720000239262ACCORD    0000168851000023342600001668160000230613000015733800002175111SM160520180
7898565581798CAAB 60mg sol inj fa 1,5ml+dil00017631210000000000ACCORD    0001720118000000000000016993940000000000000160283700000000001SH030420180
8901148236387CABAZITAXEL 60mg sol inj fa 1,00011460010000000000DR. REDDYS0001118050000000000000011045800000000000000104181900000000001GH170920180
8901148236707CABAZITAXEL 60mg sol inj 5 fa100057311620000000000DR. REDDYS0005591378000000000000055240130000000000000521014700000000001GH170920180
7893454144689CAGEL gel bg 50g              00000011450000000000CELLERA FA000000114500000000000000001145000000000000000011450000000000OOL250420180
7893454101538CALADRYL 28g creme bg         00000013380000000000CELLERA FA000000133800000000000000001338000000000000000013380000000000OOL200620180
7893454101651CALADRYL locao pos sol fr 150m00000022040000000000CELLERA FA000000220400000000000000002204000000000000000022040000000000OOL250420180
7893454100364CALADRYL loc pos sol fr 100ml 00000022040000000000CELLERA FA000000220400000000000000002204000000000000000022040000000000OOL250420180
7899620912076CALCIDRIN suspensao oral c/ 2500000020000000000000GLOBO     000000200000000000000000002000000000000000000020000000000000OOL210520180
7899620912649CALCIDRIN 500 mg com c/ 60 com00000045000000000000GLOBO     000000450000000000000000004500000000000000000045000000000000OOL210520180
7899620912656CALCIDRIN 600 mg com c/ 60 com00000049000000000000GLOBO     000000490000000000000000004900000000000000000049000000000000OOL210520180
7893454100159CALCIO D3 400mg fr 60 cap gel 00000045940000000000CELLERA FA000000446500000000000000004403000000000000000041180000000000OOL200620180
7891142018106CALMINEX hot c/ 10 almofadas t00000094920000013122MANTECORP/000000926000000128010000009148000001264700000086290000011929OOX210520180
7891142018090CALMINEX ice bag c/5 bolsas te00000050760000007017MANTECORP/000000495200000068460000004892000000676300000046140000006379OOX210520180
7897595611185CANDESARTANA CILEXETILA 16 mg 00000129920000017961SANDOZ    0000012675000001752200000125220000017311000001181100000163281GM020420180
7897595611154CANDESARTANA CILEXETILA 8 mg c00000129920000017961SANDOZ    0000012675000001752200000125220000017311000001181100000163281GM020420180
7891721201462CANDESSA 16mg cx 30 comp      00000083940000011604MERCK     0000008189000001132100000080900000011184000000763100000105491SM071120180
7891721201479CANDESSA 16mg cx 20 comp      00000055950000007735MERCK     0000005459000000754600000053930000007456000000508700000070321SM071120180
7891721201455CANDESSA 8mg cx 30 comp       00000078540000010858MERCK     0000007663000001059300000075700000010465000000714000000098711SM071120180
7891721201509CANDESSA HCT 16+12,5mg cx 30 c00000093290000012897MERCK     0000009101000001258200000089920000012431000000848100000117241SM071120180
7891721201516CANDESSA HCT 16+12,5mg cx 20 c00000062190000008597MERCK     0000006068000000838800000059940000008286000000565400000078161SM071120180
7891721201493CANDESSA HCT 8+12,5mg cx 30 co00000089770000012410MERCK     0000008758000001210700000086520000011961000000816100000112821SM071120180
7898272940130CAPECITABINA 500mg cx 30 comp 00000418600000057869SUN PHARMA0000040839000005645800000403470000055777000003805500000526091GM221120180
7898328480566CAPRELSA 100 mg com rev x 30  00007625330001054157GENZYME   0000743935000102844600007349720001016056000069321200009583251OM240420180
7898328480573CAPRELSA 300 mg com rev x 30  00020253150002799879GENZYME   0001975917000273158900019521110002698679000184119500025453441OM240420180
7896523209869CAPTOPRIL 25mg cx 500 comp (em00000239740000033143CIMED     0000023389000003233400000231070000031944000002179400000301291GM081120180
7896026307178CARDIZEM CD 180mg  cx 16 cap l00000047230000006529BOEHRINGER0000004608000000637000000045520000006293000000000000000000001RM170820180
7896026307185CARDIZEM CD 240mg cx 16 cap li00000056080000007753BOEHRINGER0000005471000000756300000054050000007472000000000000000000001RM170820180
7896261018303CATAFLAM SPORT ICETM bg 60g   00000025920000000000GSK CONSUM000000252000000000000000002485000000000000000000000000000000OOL030420180
7896261018563CATAFLAM SPORT ICETM bg 120g  00000037690000000000GSK CONSUM000000366200000000000000003612000000000000000000000000000000OOL030420180
7896658024504CATIVA 15 sache x 6g          00000053480000000000ACHE      000000520300000000000000005133000000000000000048110000000000OOL140520180
7896658024511CATIVA 30 sache x 6g          00000089150000000000ACHE      000000867300000000000000008557000000000000000080200000000000OOL140520180
7896112196181CEFTRIAXONA DISSODICA 500mg po00000015610000002158TEUTO     0000001523000000210500000015050000002081000000141900000019621GM131120180
7896112196266CEFTRIAXONA DISSODICA 1g po so00000023480000003246TEUTO     0000002291000000316700000022630000003128000000213500000029521GM131120180
7891317002190CEFTRIAXONA SODICA 1g po sol i00000108670000015023EUROFARMA 0000010602000001465700000104740000014480000000987900000136571SM161020180
7897473205253CELAMINA ultra shampoo fr 150m00000065770000000000GLENMARK  000000657700000000000000006577000000000000000065770000000000OOL040420180
7897473205246CELAMINA zinco shampoo fr 150m00000049570000000000GLENMARK  000000495700000000000000004957000000000000000049570000000000OOL040420180
7891317137359CELECOXIBE 200mg cx 10 cap    00000026630000003681EUROFARMA 0000002598000000359200000025670000003549000000242100000033471GM230420180
7891317137373CELECOXIBE 200mg cx 15 cap    00000039410000005448EUROFARMA 0000003845000000531500000037990000005252000000358300000049531GM230420180
7891317137410CELECOXIBE 200mg cx 30 cap    00000077820000010758EUROFARMA 0000007592000001049500000075010000010370000000707400000097791GM230420180
7896714269887CENTROTABS senior fr 60 comp  00000033280000000000NEO QUIMIC000000324700000000000000003208000000000000000030260000000000OOL171020180
7896714269870CENTROTABS a-zinco fr 60 comp 00000033280000000000NEO QUIMIC000000324700000000000000003208000000000000000030260000000000OOL171020180
7896714269900CENTROTABS mulher fr 60 comp  00000033280000000000NEO QUIMIC000000324700000000000000003208000000000000000030260000000000OOL171020180
7896714273471CENTROTABS homem fr 60 comp   00000033280000000000NEO QUIMIC000000324700000000000000003208000000000000000030260000000000OOL171020180
7896112122692CETOCONAZOL 200mg cx bl al 10 00000017720000002450TEUTO     0000001729000000239000000017080000002361000000161100000022271GM131120180
7896112122708CETOCONAZOL 200mg cx bl al 30 00000038120000005270TEUTO     0000003719000000514100000036740000005079000000346500000047901GM131120180
7898060139869CETOMICOSS 200mg cx 10 comp   00000024300000003359GLOBO     0000002371000000327800000023420000003238000000220900000030541SM210520180
7898060139883CETOMICOSS 200mg cx 30 comp   00000059890000008279GLOBO     0000005843000000807800000057730000007981000000544500000075271SM210520180
7891317001483CETOPROFENO 20mg/ml sol or fr 00000012540000001734EUROFARMA 0000001223000000169100000012080000001670000000114000000015761GM230420180
7896422507349CETOPROFENO 50mg cap gel dura 00000019490000002694MEDLEY    0000001901000000262800000018780000002596000000177100000024481GM240420180
7896181925149CETOPROFENO 100mg cx 20 comp r00000025820000003569BIOSINTETI0000002519000000348200000024890000003441000000234700000032451GM210520180
7891317001926CETOPROFENO 150mg cx 10 comp l00000026460000003658EUROFARMA 0000002581000000356800000025500000003525000000240500000033251GM160720180
7891058002961CETOPROFENO 150mg com rev lib 00000026460000003658MEDLEY    0000002581000000356800000025500000003525000000240500000033251GM170920180
7896004752594CETOPROFENO 150mg c/10 com.lib00000026460000003658GERMED GEN0000002581000000356800000025500000003525000000240500000033251GM191120180
7896006290094CETROLAC 30mg/ml sol inj 10 am00000069980000009674UNIAO QUIM0000006827000000943800000067450000009324000000636200000087941SM071120180
7896006234050CICLO 21 0,15+0,03mg cx 63 com00000016510000002283UNIAO QUIM0000001611000000222700000015910000002200000000150100000020751SM071120180
7896004759838CICLORTEN 5mg cx 20 comp      00000007620000001053EMS MARCAS0000000743000000102700000007340000001015000000069200000009571SM191120180
7896004759821CICLORTEN 20mg cx 10 comp     00000007840000001084EMS MARCAS0000000765000000105800000007560000001045000000071300000009861SM191120180
7896181925811CILOSTAZOL 50mg cx 30 comp    00000012690000001754BIOSINTETI0000001238000000171100000012230000001691000000115400000015951GM170820180
7896181925828CILOSTAZOL 50mg cx 60 comp    00000015260000002110BIOSINTETI0000001489000000205800000014710000002034000000138700000019171GM170820180
7896181925859CILOSTAZOL 100mg cx 30 comp   00000025030000003460BIOSINTETI0000002442000000337600000024130000003336000000227500000031451GM170820180
7896181952866CILOSTAZOL 100mg cx 60 comp   00000030610000004232BIOSINTETI0000002986000000412800000029500000004078000000278200000038461GM170820180
7895197400381CIMZIA 200mg/ml 2pfs  br      00001995000000275797UCB BIOPHA0000194635000026907100001922900000265830000018136400002507251OM030420180
7895197130165CINALEO 15ui po liof inj fa   00000158760000000000CIPLA     0000024202000000000000000239100000000000000002255100000000001SH110720180
7891721030017CIPROFIBRATO 100mg cx 30 comp 00000060890000008418MERCK     0000005940000000821200000058680000008112000000553500000076521GM071120180
7898049796083CIPROFIBRATO 100 mg com ct bl 00000052310000007231VITAMEDIC 0000005103000000705500000050420000006970000000475500000065741GM020420180
7891317001322CIPROFIBRATO 100mg cx 30 comp 00000060890000008418EUROFARMA 0000005940000000821200000058680000008112000000553500000076521GM230420180
7899620912878CIPROFIBRATO 100 mg com ct bl 00000059010000008158GLOBO     0000005757000000795900000056880000007863000000536400000074151GM210520180
7896112401193CIPROFIBRATO 100mg cx 30 comp 00000057560000007958BIOLAB GEN0000005616000000776400000055480000007670000000523300000072341GM231120180
7898171290077CISBERRY 200mg cx 30 cap      00000063650000000000ACHE      000000619200000000000000006109000000000000000057260000000000OOL140520180
8903855073538CITALOPRAM 20mg cx 28 comp    00000023920000003307TORRENT DO0000002334000000322700000023060000003188000000217500000030071GM030420180
7897595635402CITALOPRAM 20mg cx 30 comp rev00000039440000005452NOVARTIS  0000003848000000532000000038020000005256000000358600000049571GM030420180
7895197130042CITOPLATINA 10mg/ml sol inj 1f00000130490000000000CIPLA     0000019891000000000000000196520000000000000001853500000000001SH110720180
7895197130059CITOPLATINA 10mg/ml sol inj 1f00000393160000000000CIPLA     0000059933000000000000000592110000000000000005584700000000001SH110720180
7895197130097CITOPLATINA 10mg/ml sol inj 1f00000102940000000000CIPLA     0000015693000000000000000155040000000000000001462300000000001SH110720180
7899095255241CIXIN 0,5mg cx 20 comp        00000018760000002593GEOLAB    0000001830000000253000000018080000002499000000170500000023571SM211120180
7899882100051CLEAR CARE PLUS oral fr 360ml 00000059470000000000ALCON     000000578000000000000000005700000000000000000053300000000000OOL050420180
7896548134542CLENS 100 fr 15ml             00000026440000000000ALCON     000000257000000000000000002534000000000000000023700000000000OOL050420180
7896251803506CLINDOXYL CONTROL 45g bg 5%   00000038780000005161GSK CONSUM000000376900000050220000003717000000495400000000000000000000OOX030420180
7896251803513CLINDOXYL CONTROL 45g bg 10%  00000039770000005293GSK CONSUM000000386500000051490000003812000000508100000000000000000000OOX030420180
7896862925109CLOBIREX 0,5mg/g crem. derm. 300000016260000002247MEDQUIMICA0000001586000000219300000015670000002166000000147800000020431SM030420180
7899551308771CLOMETINE 16 mg x 30 cap      00000223700000030925BIOLAB SAN0000021824000003017000000215610000029807000002033600000281131SM200420180
7899551308825CLOMETINE 24 mg x 30 cap      00000242210000033484BIOLAB SAN0000023630000003266700000233450000032273000002201900000304401SM200420180
7899551308719CLOMETINE 8 mg x 30 cap       00000200370000027700BIOLAB SAN0000019548000002702400000193120000026699000001821500000251811SM200420180
7899551308689CLOMETINE 8 mg x 10 cap       00000066790000009233BIOLAB SAN0000006516000000900800000064370000008899000000607200000083941SM200420180
7896004759692CLONAZEPAM 3 bltx 20 comp     00000019070000002636EMS GENERI0000001860000000257100000018380000002541000000173300000023961GM191120180
7898216366361CLONAZEPAM 2mg cx 30 comp     00000011020000001524PHARLAB   0000001076000000148700000010620000001470000000100300000013851GM230520180
7899095249790CLONAZEPAM 0,5mg cx 30 comp   00000006050000000836GEOLAB    0000000590000000081600000005830000000806000000055000000007601GM211120180
7899095249844CLONAZEPAM 2mg cx 30 comp     00000010600000001465GEOLAB    0000001034000000142900000010220000001413000000096300000013311GM211120180
7899095258365CLONAZEPAM 2,5mg/ml sol or fr 00000009260000001280GEOLAB    0000000903000000124800000008920000001233000000084100000011631GM211120180
7896004762210CLONAZEPAM 2mg cx 60 comp     00000019070000002636GERMED GEN0000001860000000257100000018380000002541000000173300000023961GM191120180
7899547528282CLONAZEPAM 0,5mg cx 30 comp   00000006170000000853PRATI, DON0000000602000000083200000005950000000823000000056100000007761GM211120180
7899547528299CLONAZEPAM 0,5mg cx 60 comp   00000012520000001731PRATI, DON0000001221000000168800000012060000001667000000113800000015731GM211120180
7899547528367CLONAZEPAM 2mg cx 30 comp     00000010630000001470PRATI, DON0000001037000000143400000010250000001417000000096600000013351GM211120180
7899547528374CLONAZEPAM 2mg cx 60 comp     00000019010000002628PRATI, DON0000001855000000256400000018330000002534000000172900000023901GM211120180
7899095257979CLOR FLUOXETINA 20mg cx 30 cap00000029410000004065GEOLAB    0000002869000000396600000028340000003918000000267300000036961GM211120180
7896004756660CLOR. DE SERTRALINA 50mg 3 bl 00000041500000005737GERMED GEN0000004049000000559800000040000000005530000000377300000052161GM191120180
7896004744360CLOR. FLUOXETINA 3 blt x 10 ca00000032630000004511EMS GENERI0000003183000000440000000031450000004348000000296600000041001GM191120180
7896004744629CLOR. ZIPRASIDONA MONO. 40mg c00000213690000029541EMS GENERI0000020848000002882100000205970000028474000001942700000268571GM181020180
7896004744636CLOR. ZIPRASIDONA MONO. 80mg c00000355690000049172EMS GENERI0000034701000004797200000342830000047394000003233500000447011GM181020180
7896004759685CLOR.DE NARATRIPTANA c/10 com 00000020970000002899EMS GENERI0000002046000000282800000020210000002794000000190600000026351GM191120180
7896004752112CLOR.TANSULOSINA 0,4mg cx 20 c00000053050000007334EMS GENERI0000005176000000715600000051140000007070000000482300000066681GM191120180
7896004761824CLOR.TANSULOSINA 0,4mg cx 60 c00000127460000017621EMS GENERI0000012435000001719100000122850000016983000001158700000160181GM191120180
7896004762241CLOR.TANSULOSINA 4mg cx 60 com00000127460000017621GERMED GEN0000012435000001719100000122850000016983000001158700000160181GM191120180
7896004752129CLOR.TANSULOSINA 4mg cx 30 com00000079650000011011GERMED GEN0000007771000001074300000076770000010613000000724100000100101GM191120180
7898166042018CLORETO DE SODIO (N.S.) 0,9% c00000006020000000832FARMACE   0000000586000000081000000005750000000794000000053900000007451OX190920180
7898919447602CLORETO DE SODIO 0,9% 9mg/ml s00000005730000000000EUROFARMA 0000000559000000000000000005530000000000000000052100000000001OH310320180
7898919447411CLORETO DE SODIO 0,9% 9mg/ml s00000005730000000000EUROFARMA 0000000559000000000000000005530000000000000000052100000000001OH310320180
7898919447619CLORETO DE SODIO 0,9% 9mg/ml s00000004920000000000EUROFARMA 0000000480000000000000000004750000000000000000044800000000001OH310320180
7898919447428CLORETO DE SODIO 0,9% 9mg/ml s00000004920000000000EUROFARMA 0000000480000000000000000004750000000000000000044800000000001OH310320180
7898919447626CLORETO DE SODIO 0,9% 9mg/ml s00000005950000000000EUROFARMA 0000000580000000000000000005730000000000000000054000000000001OH310320180
7898919447435CLORETO DE SODIO 0,9% 9mg/ml s00000005950000000000EUROFARMA 0000000580000000000000000005730000000000000000054000000000001OH310320180
7898919447633CLORETO DE SODIO 0,9% 9mg/ml s00000008090000000000EUROFARMA 0000000789000000000000000007790000000000000000073500000000001OH310320180
7898919447442CLORETO DE SODIO 0,9% 9mg/ml s00000008090000000000EUROFARMA 0000000789000000000000000007790000000000000000073500000000001OH310320180
7898170784331CLORETO DE SODIO ESTERIL WASHO00001025000000000000BEKER     0000102500000000000000001025000000000000000010250000000000001OH160420180
7899095256408CLORIDRATO DE BUPROPIONA 150 m00000063040000008715GEOLAB    0000006150000000850200000060760000008400000000573100000079221GM211120180
7899095256415CLORIDRATO DE BUPROPIONA 150 m00000125220000017312GEOLAB    0000012217000001688900000120700000016686000001138400000157381GM211120180
7896006206903CLORIDRATO DE BUPROPIONA 150mg00000141460000019556UNIAO QUIM0000013801000001907900000136350000018849000001286000000177781GM071120180
7898075315654CLORIDRATO DE CIPROFLOXACINO 500000024210000003347ONEFARMA  0000002362000000326500000023340000003227000000220100000030431GM081120180
7898216370375CLORIDRATO DE CIPROFLOXACINO 500000026270000003631PHARLAB   0000002563000000354300000025320000003501000000238800000033011GM230520180
7896862923693CLORIDRATO DE CIPROFLOXACINO 500000028100000003884MEDQUIMICA0000002741000000378900000027080000003744000000255400000035311GM030420180
7896862923709CLORIDRATO DE CIPROFLOXACINO 500000193880000000000MEDQUIMICA0000018915000000000000000186870000000000000001762500000000001GH030420180
7896523209630CLORIDRATO DE CIPROFLOXACINO 500000017290000002389CIMED     0000001687000000233200000016670000002305000000157200000021731GM081120180
7897595636256CLORIDRATO DE CIPROFLOXACINO 500000017690000002446NOVARTIS  0000001769000000244600000017480000002417000000164800000022781GM010820180
7898916127781CLORIDRATO DE DEXMEDETOMIDINA 00000532370000000000WYETH     0000051939000000000000000513130000000000000004839800000000001GH040420180
7891317002374CLORIDRATO DE DEXMEDETOMIDINA 00000532360000000000EUROFARMA 0000051938000000000000000513120000000000000004839700000000001GH161020180
7898564760859CLORIDRATO DE DOBUTAMINA 250mg00000456770000000000ABL-ANTIBI0000044563000000000000000440260000000000000004152500000000001GH240420180
7891317487386CLORIDRATO DE DULOXETINA 60mg 00000174250000024089EUROFARMA 0000017000000002350200000167950000023218000001584100000218991GM160720180
7897595636621CLORIDRATO DE FLUOXETINA 20mg 00000026510000003665NOVARTIS  0000002586000000357500000025550000003532000000241000000033321GM010820180
7898014564488CLORIDRATO DE FLUOXETINA 20mg 00000023740000003282PHARMASCIE0000002316000000320100000022880000003163000000215800000029821GM221120180
7896004762258CLORIDRATO DE FLUXETINA 20mg c00000053240000007360GERMED GEN0000005194000000718000000051310000007093000000484000000066911GM191120180
7896004762203CLORIDRATO DE FLUXETINA 20mg c00000031310000004328GERMED GEN0000003055000000422300000030180000004172000000284700000039361GM191120180
7899547528640CLORIDRATO DE METFORMINA 850mg00000007560000001046PRATI, DON0000000738000000102000000007290000001008000000068800000009511GM211120180
7899547528602CLORIDRATO DE METFORMINA 500mg00000011130000001539PRATI, DON0000001085000000150100000010720000001482000000101100000013981GM211120180
8902220107205CLORIDRATO DE METFORMINA 500mg00000004130000000571TORRENT DO0000000403000000055700000003980000000550000000037600000005191GM170920180
7891721028731CLORIDRATO DE METFORMINA 1g cx00000017290000002390MERCK     0000001687000000233200000016670000002305000000157200000021731GM071120180
7898524981768CLORIDRATO DE MOXIFLOXACINO 1,00000118680000000000SUN PHARMA0000011579000000000000000114390000000000000001079000000000001GH221120180
7899620911987CLORIDRATO DE PROPRANOLOL 40mg00000005540000000766GLOBO     0000000540000000074700000005330000000737000000050300000006951GM210520180
7891317001506CLORIDRATO DE RANITIDINA 150mg00000019280000002665EUROFARMA 0000001881000000260000000018580000002569000000175300000024231GM230420180
7899095260320CLORIDRATO DE RANITIDINA 150mg00000026490000003662GEOLAB    0000002584000000357200000025530000003529000000240800000033291GM211120180
7899095240537CLORIDRATO DE RANITIDINA 150mg00000015270000002111GEOLAB    0000001490000000206000000014720000002035000000138800000019191GM211120180
7896004750385CLORIDRATO DE SERTRALINA 50mg 00000074170000010254EMS GENERI0000007236000001000300000071490000009883000000674300000093221GM181020180
7896004759845CLORIDRATO DE SERTRALINA 3 blx00000048890000006759EMS GENERI0000004770000000659400000047130000006515000000444500000061451GM191120180
7896004759593CLORIDRATO DE SERTRALINA 2 blt00000103540000014314EMS GENERI0000010101000001396400000099790000013795000000941200000130121GM191120180
8901148239111CLORIDRATO DE SERTRALINA 100mg00000049050000006781DR. REDDYS0000004785000000661500000047270000006535000000445900000061641GM170920180
8901148239128CLORIDRATO DE SERTRALINA 50mg 00000045640000006309DR. REDDYS0000004453000000615600000043990000006081000000414900000057361GM170920180
7894916340168CLORIDRATO DE SERTRALINA 50mg 00000044540000006157LEGRAND GE0000004345000000600700000042930000005935000000404900000055981GM191120180
7897595621177CLORIDRATO DE SOTALOL 160mg cx00000050950000007044SANDOZ    0000004971000000687200000049110000006789000000463200000064031GM020420180
7896004761817CLORIDRATO DE TANSULOSINA 0,4m00000079650000011011EMS GENERI0000007771000001074300000076770000010613000000724100000100101GM191120180
7896112163404CLORIDRATO DE TERBINAFINA 250m00000146520000020256TEUTO     0000014295000001976200000141230000019524000001332000000184141GM131120180
7899547504682CLORIDRATO DE TERBINAFINA 250 00000114000000015761PRATI, DON0000011122000001537500000109880000015191000001036500000143281GM211120180
7896112401216CLORIDRATO DE TICLOPIDINA 250m00000035520000004911BIOLAB GEN0000003466000000479100000034240000004734000000323000000044651GM231120180
7896523226897CLORIDRATO DE TRAMADOL 50mg cx00000019680000002721CIMED     0000001920000000265400000018970000002622000000178900000024731GM081120180
7891317003111CLORIDRATO DE TRAMADOL 50mg cx00000021940000003033EUROFARMA 0000002140000000295800000021140000002922000000199400000027571GM161020180
7891317003135CLORIDRATO DE TRAMADOL 100mg/m00000051730000007151EUROFARMA 0000005047000000697700000049860000006893000000470300000065021GM161020180
7898049797042CLORIDRATO DE TRAMADOL 50mg cx00000016300000002253VITAMEDIC 0000001590000000219800000015710000002172000000148200000020491GM171020180
8902220116177CLORIDRATO DE TRAZODONA 100mg 00000040490000005597TORRENT DO0000003950000000546100000039030000005395000000368100000050881GM030420180
8902220120334CLORIDRATO DE TRAZODONA 50mg c00000040490000005597TORRENT DO0000003950000000546100000039030000005395000000368100000050881GM030420180
7896004759715CLORIDRATO DE VENLAFAXINA 3 bl00000060950000008426EMS GENERI0000005946000000822000000058740000008120000000554100000076601GM191120180
7899095256880CLORIDRATO DE VENLAFAXINA 37,500000025370000003507GEOLAB    0000002475000000342200000024450000003380000000230600000031881GM211120180
7899095256934CLORIDRATO DE VENLAFAXINA 75mg00000059410000008213GEOLAB    0000005796000000801300000057260000007916000000540100000074671GM211120180
7899095256989CLORIDRATO DE VENLAFAXINA 50mg00000084210000011642GEOLAB    0000008216000001135800000081170000011221000000765600000105841GM211120180
7893454101484CLORIDRATO DE VENLAFAXINA 150m00000180440000024945CELLERA FA0000017604000002433600000173920000024043000001640400000226781GM200620180
7893454101446CLORIDRATO DE VENLAFAXINA 37,500000054400000007520CELLERA FA0000005307000000733700000052430000007248000000494500000068361GM200620180
7893454101460CLORIDRATO DE VENLAFAXINA 75mg00000105730000014617CELLERA FA0000010315000001426000000101910000014088000000961200000132881GM200620180
7898565581866CLORITECAN 20mg/ml sol inj fa 00000517230000000000ACCORD    0000050461000000000000000498530000000000000004702000000000001SH160520180
7898565581873CLORITECAN 20mg/ml sol inj fa 00001293060000000000ACCORD    0000126153000000000000001246330000000000000011755100000000001SH160520180
7899620911154COLAGENO c/ 60 capsulas       00000059900000000000GLOBO     000000599000000000000000005990000000000000000059900000000000OOL210520180
7896094916807COLFLEX BIO bl 30 und         00000089180000000000MANTECORP/000000870000000000000000008595000000000000000081070000000000OOL160820180
7896094916814COLFLEX BIO bl 60 und         00000134280000000000MANTECORP/000001310000000000000000012942000000000000000122070000000000OOL160820180
7896094916166COLFLEX VIT sache 12,6g       00000097380000000000MANTECORP/000000950000000000000000009386000000000000000088520000000000OOL180620180
7896004759586COLIAFT 1mg/g  pasta 10g      00000008770000001212EMS MARCAS0000000856000000118300000008460000001170000000079800000011031SM191120180
7896658025150COLIKIDS fr gts 5ml           00000069930000000000ACHE      000000699300000000000000006993000000000000000069930000000000OOL160720180
7898564760996COLISTIMETATO SODICO 2mui cx 100000216690000000000ABL-ANTIBI0000021140000000000000000208850000000000000001969900000000001GH240420180
7896658026102COLLESTRA 650mg cx 30 cap     00000029660000000000ACHE      000000288500000000000000002846000000000000000026680000000000OOL140520180
7896658026119COLLESTRA 650mg cx 60 cap     00000047200000000000ACHE      000000459200000000000000004530000000000000000042460000000000OOL140520180
7896317913019COLTRIENO 10mg/g crem vag bg 300000050130000006930ATIVUS    0000004891000000676100000048310000006680000000455800000063011SM060420180
7896658029806COMBI AD susor fr 30ml+pipeta 00000026740000000000ACHE      000000267400000000000000002674000000000000000026740000000000OOL140520180
7899620911208COMPLEXIMED B comprimido c/50 00000012000000000000GLOBO     000000120000000000000000001200000000000000000012000000000000OOL210520180
7899620911215COMPLEXIMED B comprimido c/10000000022000000000000GLOBO     000000220000000000000000002200000000000000000022000000000000OOL210520180
7898582270316COMPLEXO B fr 100 comp        00000022610000000000GALLIA    000000220000000000000000002171000000000000000020340000000000OOL010420180
7899620912526COMPLEXO B capsula mole c/ 60 00000029900000000000GLOBO     000000299000000000000000002990000000000000000029900000000000OOL210520180
7894916512503CONCARDIO 5 blt x 20 comp rev 00000121440000016788SIGMA PHAR0000011848000001637900000117050000016181000001104000000152621SM191120180
7894916512510CONCARDIO 5 blt x 20 comp rev 00000111110000015360SIGMA PHAR0000010840000001498600000107090000014805000001010100000139641SM191120180
7898587900256COPAXONE 40mg/ml sol inj ct 1200004223980000583940TEVA      0000412096000056969900004071310000562835000038399800005308551OM180420180
7891317137557COQUES 200mg cx 10 cap        00000023220000003210EUROFARMA 0000002265000000313100000022380000003094000000211100000029181SM230420180
7891317137533COQUES 200mg cx 4 cap         00000010210000001411EUROFARMA 0000000996000000137700000009840000001360000000092800000012831SM210520180
7891317002961COQUES 200mg cx 30 cap        00000061520000008505EUROFARMA 0000006002000000829700000059300000008198000000559300000077321SM160820180
7891317181895CORRETAL 150mg cx 60 comp rev 00000404100000055864EUROFARMA 0000039424000005450100000389490000053845000003673600000507851SM230420180
7891317181925CORRETAL 500mg cx 120 comp rev00002377500000328675EUROFARMA 0000231951000032065900002291560000316795000021613600002987951SM230420180
7898166042957CPHD-BIC 8,4% 0,084g/ml sol he00000000000000000000FARMACE   0000000000000000000000000000000000000000000000000000000000001OH190920180
7899620912090CREME DE ARNICA c/ 60 g       00000030000000000000GLOBO     000000300000000000000000003000000000000000000030000000000000OOL210520180
7899620912091CREME DE CASTANHA DA INDIA c/ 00000030000000000000GLOBO     000000300000000000000000003000000000000000000030000000000000OOL210520180
7896206403669CRESTOR 5mg cx 90 comp rev    00000158660000021933ASTRAZENEC0000015479000002139800000152930000021141000001442300000199381RM310320180
7897337715874CUBICIN 500mg 1 amp           00000293710000040604MERCK SHAR0000028655000003961400000283100000039137000002670100000369131RM230420180
7891721201424CUORE 75mg cx 14 comp rev     00000018300000002529MERCK     0000001830000000252900000018070000002498000000170500000023571SM071120180
7891721201431CUORE 75mg cx 28 comp rev     00000036590000005058MERCK     0000003659000000505800000036150000004998000000341000000047141SM071120180
7893454101590CUPRIMINE 250mg fr 100 cap    00000308160000042601CELLERA FA0000030065000004156300000297020000041061000002801500000387291OM250420180
7898560663239CUTENOX 20mg sol inj 10 ser pr00000224710000031065MYLAN     0000021923000003030700000216590000029942000002042800000282411OM180920180
7898560663291CUTENOX 20 mg sol inj 10 ser p00000218810000030249MYLAN     0000021347000002951100000210900000029156000001989200000275001OM180920180
7898560663222CUTENOX 20mg sol inj 02 ser pr00000044330000006128MYLAN     0000004325000000597900000042730000005907000000403000000055711OM180920180
7898560663284CUTENOX 20mg sol inj 02 ser 0,00000043760000006050MYLAN     0000004269000000590200000042180000005831000000397800000054991OM180920180
7898560663253CUTENOX 40mg sol inj 10 ser pr00000436600000060357MYLAN     0000042595000005888500000420820000058176000003969100000548701OM180920180
7898560663314CUTENOX 40mg sol inj 10 ser pr00000425130000058772MYLAN     0000041476000005733800000409760000056647000003864800000534291OM180920180
7898560663246CUTENOX 40mg sol inj 02 ser pr00000086160000011911MYLAN     0000008406000001162100000083050000011481000000783300000108291OM180920180
7898560663307CUTENOX 40mg sol inj 02 ser 0,00000085010000011752MYLAN     0000008294000001146600000081940000011328000000772800000106841OM180920180
7894916503525CYSTISTAT 40mg/50ml sol inj fr00000469150000000000SIGMA PHAR0000045771000000000000000452200000000000000004265000000000001OH191120180
7895197130318D.T.I. DACARBACINA 100mg po li00000043280000000000CIPLA     0000006597000000000000000065180000000000000000614800000000001SH110720180
7895197130325D.T.I. DACARBACINA 200mg po li00000080440000000000CIPLA     0000012262000000000000000121140000000000000001142600000000001SH110720180
7891268101850DAUNOBLASTINA 20mg fr-amp     00000097270000000000PFIZER    0000009490000000000000000093760000000000000000884300000000001RH040920180
7896658027208DAYVIT KIDS ct fr plas x 120ml00000031770000000000ACHE      000000309100000000000000003050000000000000000028580000000000OOL140520180
7897322710785DECIPRAX 10 mg com rev ct bl a00000100000000013824MANTECORP/0000009756000001348700000096380000013324000000909100000125681SM170920180
8901148236202DECITABINA 50mg po liof sol in00003525810000000000DR. REDDYS0000343981000000000000003398370000000000000032052800000000001GH170920180
7898560663697DEFEXIN 500 mg com rev ct bl a00000025300000003498MYLAN     0000002468000000341200000024380000003370000000230000000031801SM180920180
7898560663673DEFEXIN 500 mg com rev ct bl a00000059030000008161MYLAN     0000005759000000796100000056900000007866000000536600000074181SM180920180
7898560663680DEFEXIN 500 mg com rev ct bl a00000084330000011658MYLAN     0000008227000001137300000081280000011236000000766600000105981SM180920180
7896658029561DELLER 50mg cx 30 comp rev    00000054330000007511ACHE      0000005300000000732700000052360000007238000000493900000068281SM160720180
7896658029608DELLER 100mg cx 30 comp rev   00000073520000010164ACHE      0000007173000000991600000070870000009797000000668400000092401SM160720180
7896006205395DEMEDROX 150mg/ml susp inj cx 00000026480000003660UNIAO QUIM0000002583000000357100000025520000003528000000240700000033281SM071120180
7899640807826DENSIS 5mg sol inj fr 100ml   00000000000000000000MOMENTA   0000000000000000000000000000000000000000000000000000000000001SM030420180
7896004752495DESAIRON 125mg cx 28 comp (hos00000544390000075259EMS MARCAS0000053111000007342300000524710000072538000004949000000684171SM181020180
7896004752501DESAIRON 250mg cx 28 comp (hos00001089370000150599EMS MARCAS0000106280000014692600001050000000145156000009903400001369091SM181020180
7896004752518DESAIRON 500mg cx 28 comp (hos00002176980000300955EMS MARCAS0000212388000029361400002098290000290076000019790700002735951SM181020180
7898040325626DESIREE 10mg cx 30 comp rev   00000047270000006535FQM/FARMA 0000004611000000637500000045560000006298000000000000000000001SM030420180
7898040325633DESIREE 10mg cx 60 comp rev   00000086130000011906FQM/FARMA 0000008403000001161600000083010000011476000000000000000000001SM030420180
7897595636539DESOGESTREL 0,075mg cx 28 comp00000020080000002776NOVARTIS  0000001959000000270800000019350000002675000000182500000025231GM170720180
7897595636553DESOGESTREL 0,075mg cx 84 comp00000060230000008326NOVARTIS  0000005876000000812300000058050000008025000000547500000075691GM170720180
7896714255019DESOGESTREL 75mcg cx 28 comp r00000020060000002773NEO QUIMIC0000001957000000270500000019330000002672000000182400000025221GM211120180
7896714255026DESOGESTREL 75mcg cx 84 comp r00000048180000006661NEO QUIMIC0000004700000000649700000046430000006419000000438000000060551GM211120180
7897595620323DESOGESTREL 0,075mg cx 56 comp00000036120000004993SANDOZ    0000003524000000487200000034820000004814000000328400000045401GM020420180
7893454137100DESPIN sabonete 60g           00000009320000000000CELLERA FA000000093200000000000000000932000000000000000009320000000000OOL200620180
7893454137117DESPIN AS sabonete 80g        00000009320000000000CELLERA FA000000093200000000000000000932000000000000000009320000000000OOL250420180
7891317000608DESVE 50mg cx 30 comp rev     00000067910000009388EUROFARMA 0000006625000000915900000065450000009048000000617300000085341SM230420180
7891317000653DESVE 100mg cx 30 comp rev    00000074270000010267EUROFARMA 0000007246000001001700000071590000009897000000675200000093341SM230420180
7891317000554DESVE 50mg cx 7 comp rev      00000015850000002191EUROFARMA 0000001546000000213700000015270000002111000000144100000019921SM230420180
7891317000615DESVE 100mg cx 7 comp rev     00000017330000002396EUROFARMA 0000001691000000233800000016710000002310000000157600000021791SM230420180
7891317000509DESVENLAFAXINA 50mg cx 30 comp00000079480000010988EUROFARMA 0000007754000001071900000076610000010591000000722500000099881GM230420180
7891317000530DESVENLAFAXINA 100mg cx 30 com00000087490000012095EUROFARMA 0000008536000001180100000084330000011658000000795400000109961GM230420180
7898100244164DETEM D3 1.000ui cx 30 comp re00000022740000000000BRASTERAPI000000221200000000000000002182000000000000000020450000000000OSL091120180
7898100244171DETEM D3 2.000ui cx 30 comp re00000026970000000000BRASTERAPI000000262400000000000000002588000000000000000024260000000000OSL091120180
7896676426380DEXALIV gel bg 60g            00000030750000000000CRISTALIA 000000307500000000000000003075000000000000000030750000000000OOL040420180
7896676426373DEXALIV fr spray 50ml         00000018110000000000CRISTALIA 000000181100000000000000001811000000000000000018110000000000OOL040420180
7896112194576DEXAMETASONA 4mg cx 10 comp   00000008330000001152TEUTO     0000000813000000112400000008030000001110000000075800000010481GM131120180
7899640806676DIACQUA 25mg cx 30 comp       00000015580000002154MOMENTA   0000001520000000210100000015020000002076000000141600000019581SM030420180
7896006204589DIAZEPAM 5mg cx 30 comp       00000006840000000946UNIAO QUIM0000000667000000092300000006590000000912000000062200000008601GM071120180
7896006205081DIAZEPAM 10mg cx 30 comp      00000009370000001295UNIAO QUIM0000000914000000126400000009030000001249000000085200000011781GM071120180
7896181905844DICLOFENACO SODICO 50mg cx bl 00000014010000001937BIOSINTETI0000001367000000189000000013510000001868000000127400000017611GM161020180
7895858016845DIPRIVAN 10mg/ml emu inj 5 amp00000175050000000000ASPEN PHAR0000017078000000000000000168720000000000000001591400000000001RH180920180
7895858016876DIPRIVAN 10mg/ml emu inj fa 1000000221900000000000ASPEN PHAR0000021649000000000000000213880000000000000002017300000000001RH180920180
7895858016852DIPRIVAN 10mg/ml emu inj fa 5000000102640000000000ASPEN PHAR0000010014000000000000000098930000000000000000933100000000001RH180920180
7895858016821DIPRIVAN 10mg/ml emu inj ser 500000167180000000000ASPEN PHAR0000016310000000000000000161130000000000000001519800000000001RH180920180
7895858016869DIPRIVAN 20mg/ml emu inj fa 5000000203730000000000ASPEN PHAR0000019876000000000000000196370000000000000001852100000000001RH180920180
7895858016838DIPRIVAN 20mg/ml emu inj ser 500000334360000000000ASPEN PHAR0000032620000000000000000322270000000000000003039600000000001RH180920180
7898560663512DISMUCAL 5mg/ml gel fr 120ml+c00000015230000002105MYLAN     0000001486000000205400000014680000002029000000138500000019151SM081120180
7898560663536DISMUCAL 10mg/ml xpe fr 120ml+00000023180000003204MYLAN     0000002261000000312600000022340000003088000000210700000029131SM081120180
7898560663529DISMUCAL 5mg/ml xpe fr 120ml+c00000016790000002321MYLAN     0000001638000000226400000016180000002237000000152600000021101SM081120180
7898956544999DIVA 20 3+0,02mg cx 24 comp+4 00000036810000005089EXELTIS   0000003591000000496400000035480000004904000000334600000046261SM111020180
7891158101724DIVALPROATO DE SODIO 250mg cx 00000024330000003363ABBOTT    0000002374000000328200000023450000003242000000221200000030581GM310320180
7891158101755DIVALPROATO DE SODIO 500mg cx 00000048980000006771ABBOTT    0000004779000000660700000047210000006527000000445300000061561GM310320180
7891158104299DIVALPROATO SODIO 500mg 30 com00000047790000006607ABBOTT    0000004662000000644500000046060000006368000000434400000060051GM231120180
7891158104381DIVALPROATO SODIO 125mg cx 30 00000014950000002067ABBOTT    0000001459000000201700000014410000001992000000136000000018801GM231120180
7891158104282DIVALPROATO SODIO 250mg cx 30 00000025650000003546ABBOTT    0000002502000000345900000024720000003417000000233100000032221GM231120180
7897851259854DIVELOL 25mg cx 14 comp       00000009960000001377BALDACCI  0000000972000000134400000009600000001327000000090600000012521SM090820180
7897851260034DIVELOL 12,5mg. cx 30 comp    00000021370000002954BALDACCI  0000002085000000288200000020600000002848000000194300000026861SM161020180
7897851260041DIVELOL 25mg cx 30 comp       00000021360000002953BALDACCI  0000002084000000288100000020590000002846000000194200000026851SM161020180
7897851260027DIVELOL 6,25 mg cx 30 comp    00000024310000003361BALDACCI  0000002372000000327900000023430000003239000000221000000030551SM161020180
7897473207202DOCEGLENNU 20mg/ml sol inj fa 00002621950000000000GLENMARK  0000255800000000000000002527180000000000000023835900000000001SH040420180
7897473207196DOCEGLENNU 20mg/ml sol inj fa 00000655480000000000GLENMARK  0000063950000000000000000631790000000000000005958900000000001SH040420180
7897473207127DOCETAXEL RFU 20mg/ml sol inj 00000831780000000000GLENMARK  0000081149000000000000000801710000000000000007561600000000001GH040420180
7897473207134DOCETAXEL RFU 20mg/ml sol inj 00002999350000000000GLENMARK  0000292620000000000000002890940000000000000027266800000000001GH040420180
7898014565850DORALFLEX ICE & HOT ERVAS MILA00000023360000000000PHARMASCIE000000233600000000000000002336000000000000000023360000000000OOL120920180
7896658022326DORENE TABS 75mg cx 10 comp   00000020310000002808ACHE      0000001981000000273900000019570000002705000000184600000025521RM161020180
7896658022425DORENE TABS 150mg cx 15 comp  00000041550000005744ACHE      0000004054000000560400000040050000005537000000377800000052231OM161020180
7896004726137DORZAL MT fr x 5 ml           00000061800000008543LEGRAND PR0000006029000000833500000059560000008234000000561800000077671SM211120180
7896658024078DOSE D sol oral fr 10ml sb mac00000026910000000000ACHE      000000261800000000000000002583000000000000000024210000000000OOL140520180
7896658024085DOSE D sol oral fr 20ml sb mac00000036500000000000ACHE      000000355100000000000000003503000000000000000032840000000000OOL140520180
7896658026843DOSE D 20ml kit sabor maca lev00000072980000000000ACHE      000000710000000000000000007005000000000000000065650000000000OOL161020180
7896658026881DOSE D MELT 60 comp mast      00000017650000000000ACHE      000000171700000000000000001694000000000000000015880000000000OOL140520180
7896658029035DOSE D MELT 120 comp mast     00000029910000000000ACHE      000000291000000000000000002871000000000000000026910000000000OOL140520180
7896317913736DPREV 1.000ui cx 90 cap       00000044230000000000MYRALIS PH000000442300000000000000004423000000000000000044230000000000OOL021020180
7896317913743DPREV 2.000ui cx 90 cap       00000066340000000000MYRALIS PH000000663400000000000000006634000000000000000066340000000000OOL021020180
7896004759722DROSPERINONA+ETINILESTRADIOL 300000087680000012121EMS GENERI0000008554000001182500000084510000011683000000797100000110191GM191120180
7896004734392DROSPIRENONA+ETINILESTRADIOL 300000037080000005126EMS GENERI0000003618000000500200000035740000004941000000337100000046601GM191120180
7898927563028DUELLE 2+0,035mg cx 21 comp re00000012480000001726ZYDUS NIKK0000001218000000168400000012030000001664000000113500000015691SM200420180
7898910350031DUELLE 2+0,035mg cx 63 comp re00000030060000004156ZYDUS NIKK0000002933000000405500000028980000004006000000273300000037781SM200420180
7896658032110EFFEX baby repelente de alta p00000034880000000000ACHE      000000339300000000000000003348000000000000000031370000000000OOL140520180
7896658032158EFFEX family repelente de maxi00000034880000000000ACHE      000000339300000000000000003348000000000000000031370000000000OOL140520180
7896658032127EFFEX ultra repelente de maxim00000042280000000000ACHE      000000411300000000000000004058000000000000000038030000000000OOL140520180
7896422525695EFICENTUS 15mg cx 30 comp rev 00000077850000010762MEDLEY    0000007595000001050000000075030000010372000000707700000097841SM240420180
7891045031486ELIFORE 100mg cx 14 comp rev  00000050780000007020WYETH     0000004954000000684900000048940000006766000000461600000063811SM040420180
7891045031493ELIFORE 100mg cx 28 comp rev  00000094230000013027WYETH     0000009193000001270900000090820000012555000000856600000118421SM040420180
7891045031448ELIFORE 50mg cx 14 comp rev   00000042800000005917WYETH     0000004176000000577300000041260000005704000000389100000053791SM040420180
7891045031455ELIFORE 50mg cx 28 comp rev   00000085590000011832WYETH     0000008350000001154300000082490000011404000000778100000107571SM040420180
7896026303026ELODIUS 250mg fr 120 cap      00001361070000188160BOEHRINGER0000132787000018357000001311870000181358000000000000000000001RM170820180
7896026303033ELODIUS 100mg/ml sol or 95fa+s00000632780000087478BOEHRINGER0000061735000008534500000609910000084316000000000000000000001RM170820180
7896026303019ELODIUS 250mg fr 120 cap ms   00001361070000188160BOEHRINGER0000132787000018357000001311870000181358000000000000000000001RM170820180
7896026303040ELODIUS 100mg/ml sol or fr 95+00000632780000087478BOEHRINGER0000061735000008534500000609910000084316000000000000000000001RM170820180
7898560663543EMYCLAM 80+11,4mg/ml po sus or00000054650000007555MYLAN     0000005332000000737100000052680000007283000000496800000068681SM180920180
7898560663604EMYCLAM 875 mg + 125 mg com re00000096930000013400MYLAN     0000009457000001307400000093430000012916000000881200000121821SM180920180
7898560663611EMYCLAM 875 mg + 125 mg com re00000141760000019597MYLAN     0000013830000001911900000136630000018888000001288700000178161SM180920180
7896112401391ENALAPRIL 10mg cx 30 comp     00000008570000001185BIOLAB GEN0000000836000000115600000008260000001142000000077900000010771GM231120180
7896112401339ENALAPRIL 20mg cx 30 comp     00000026150000003615BIOLAB GEN0000002551000000352700000025200000003484000000237700000032861GM231120180
7896112401322ENALAPRIL 5mg cx 30 comp      00000013310000001841BIOLAB GEN0000001299000000179600000012830000001774000000121000000016731GM231120180
7891045008235ENBREL 25mg po 1fa+1 ser+dil 100003705710000512293PFIZER    0000361533000049979800003571770000493776000033688300004657211OM040420180
7891045022835ENBREL PFS 50mg sol inj 4 ser 00007201800000995607PFIZER    0000702615000097132400006941500000959622000065470900009050971OM040420180
7891045022859ENBREL PFS PEN 50mg sol inj 4 00007159280000989728PFIZER    0000698466000096558800006900510000953955000065084300008997521OM040420180
7898924769461ENDOBULIN KIOVIG 0,1g/ml sol i00000927890000000000SHIRE     0000090526000000000000000894350000000000000008435400000000001OH231120180
7898924769478ENDOBULIN KIOVIG 0,1g/ml sol i00001763040000000000SHIRE     0000172004000000000000001699320000000000000016027600000000001OH231120180
7896004734200ENTACAPONA 200mg cx 30 comp re00000103960000014372EMS GENERI0000010142000001402100000100200000013852000000945000000130641GM181020180
7896112400646ENTOCORT 3mg fr 45 cap        00000239610000033125BIOLAB    0000023377000003231700000230950000031927000002178300000301131RM020820180
7891317001995EROXYN 100mg po liof sol inj 100001425500000000000EUROFARMA 0000139073000000000000001373970000000000000012959100000000001SH161020180
7891317002015EROXYN 500mg po liof sol inj 100007068720000000000EUROFARMA 0000689631000000000000006813220000000000000064261100000000001SH161020180
7891317476663ESC 10 mg com rev ct bl al pla00000072740000010056EUROFARMA 0000007097000000981100000070110000009692000000661300000091421SM210520180
7899095206397ESCIP 10mg cx 30 comp rev     00000170600000023584GEOLAB    0000016644000002300900000164430000022731000001550900000214401SM211120180
7899095206335ESCIP 20mg cx 30 comp rev     00000369090000051025GEOLAB    0000036009000004978000000355750000049180000003355400000463861SM211120180
7899095205918ESCIP 20mg/ml sol fr got 15ml 00000183320000025343GEOLAB    0000017885000002472500000176700000024428000001666600000230401SM211120180
7891317123543ESIO 20mg cx 28 comp rev      00000046490000006427EUROFARMA 0000004536000000627100000044810000006195000000422700000058441SM230420180
7891317123604ESIO 40mg cx 28 comp rev      00000097200000013437EUROFARMA 0000009483000001311000000093690000012952000000883600000122151SM230420180
7891317123529ESIO 20mg cx 7 comp rev       00000011620000001606EUROFARMA 0000001134000000156800000011200000001548000000105700000014611SM230420180
7891317123581ESIO 40mg cx 7 comp rev       00000026140000003614EUROFARMA 0000002550000000352500000025190000003482000000237600000032851SM230420180
7896004759623ESMOG 40mg 4bl x 7 comp rev li00000129600000017916EMS MARCAS0000012644000001748000000124920000017269000001178200000162881SM191120180
7896004759616ESMOG 20mg 4bl x 7 comp rev li00000062000000008571EMS MARCAS0000006049000000836200000059760000008261000000563700000077931SM191120180
7896862990305ESOMEPRAZOL SODICO 40mg po lio00000308720000042679MEDQUIMICA0000030117000004163800000297560000041136000002806500000387991GM011120180
7898049797578ESPIRONOLACTONA 100mg cx 32 co00000032500000004493VITAMEDIC 0000003171000000438400000031330000004331000000295500000040851GM171020180
7898049797547ESPIRONOLACTONA 50mg cx 30 com00000024750000003422VITAMEDIC 0000002415000000333900000023860000003299000000225000000031101GM171020180
7899095256453ESPIRONOLACTONA 25mg cx 30 com00000015740000002176GEOLAB    0000001536000000212300000015170000002097000000143100000019781GM211120180
7899095256538ESPIRONOLACTONA 50mg cx 30 com00000024790000003427GEOLAB    0000002419000000334400000023900000003304000000225400000031161GM211120180
7896112401209ESTRIOL 1mg/g crem bg 50g     00000023140000003200BIOLAB GEN0000002258000000312100000022310000003084000000210400000029091GM231120180
7897595620972ETINILESTRADIOL+DESOGESTREL 0,00000016710000002310SANDOZ    0000001630000000225300000016100000002226000000151900000021001GM020420180
7896004757537ETODOLACO 400mg 1bltx10 com re00000009650000001334GERMED GEN0000000941000000130100000009300000001286000000087700000012121GM191120180
7896004761640ETODOLACO 400mg 2bltx10 com re00000019290000002667GERMED GEN0000001882000000260200000018590000002570000000175400000024251GM191120180
7894916340045ETODOLACO 400mg cx 10 comp rev00000009650000001334LEGRAND GE0000000941000000130100000009300000001286000000087700000012121OM191120180
7898565164014EVEROLIMO 10mg cx 1400 comp (e00388130560000000000NATCOFARMA0037866396000000000000374101720000000000003528458900000000001GH221120180
7898565163789EVEROLIMO 2,5mg cx 28 comp    00001940630000268280NATCOFARMA0000189329000026173700001870480000258583000017642100002438911GM221120180
7898565163918EVEROLIMO 2,5mg cx 280 comp (e00019406240000000000NATCOFARMA0001893291000000000000018704800000000000000176420400000000001GH221120180
7898565163925EVEROLIMO 2,5mg cx 560 comp (e00038812480000000000NATCOFARMA0003786582000000000000037409610000000000000352840800000000001GH221120180
7898565163932EVEROLIMO 2,5mg cx 1400 comp (00097031200000000000NATCOFARMA0009466457000000000000093524030000000000000882101500000000001GH221120180
7898565163796EVEROLIMO 5mg cx 28 comp      00003881300000536567NATCOFARMA0000378663000052348000003741010000517173000035284600004877881GM221120180
7898565163956EVEROLIMO 5mg cx 280 comp (emb00038813000000000000NATCOFARMA0003786634000000000000037410110000000000000352845600000000001GH221120180
7898565163963EVEROLIMO 5mg cx 560 comp (emb00077626000000000000NATCOFARMA0007573267000000000000074820220000000000000705690700000000001GH221120180
7898565163970EVEROLIMO 5mg cx 1400 comp (em00194064970000000000NATCOFARMA0018933169000000000000187050570000000000001764226700000000001GH221120180
7898565163802EVEROLIMO 10mg cx 28 comp     00007762610001073136NATCOFARMA0000757328000104696100007482030001034347000070569200009755781GM221120180
7898565163994EVEROLIMO 10mg cx 280 comp (em00077626130000000000NATCOFARMA0007573279000000000000074820340000000000000705691800000000001GH221120180
7898565164007EVEROLIMO 10mg cx 560 comp (em00155252250000000000NATCOFARMA0015146559000000000000149640690000000000001411383600000000001GH221120180
7896261015685EXELON PATCH 18mg ades transd 00000056090000007754NOVARTIS  0000005472000000756500000054060000007473000000509900000070491RM170720180
7896261017047EXELON PATCH 27mg ades transd 00000110550000015283NOVARTIS  0000010785000001491000000106550000014730000001005000000138941RM170720180
7896261018778EXFORGE HCT 160+12,5+10mg com 00000061070000008443NOVARTIS  0000005958000000823700000058860000008137000000555200000076751RM170720180
7896261018815EXFORGE HCT 160+25+10mg com re00000061070000008443NOVARTIS  0000005958000000823700000058860000008137000000555200000076751RM170720180
7896261018839EXFORGE HCT 160+25+5mg com rev00000051890000007173NOVARTIS  0000005062000000699800000050010000006914000000471700000065211RM170720180
7896261020115EXTAVIA 9,6mui po liof inj 5fa00001936840000267757NOVARTIS  0000188960000026122600001866830000258078000017607600002434151OM170720180
7896004746920EZETIMIBA 4 blt x 15 comp     00000076810000010619EMS GENERI0000007494000001036000000074040000010236000000698300000096541GM191120180
7897595635099EZETIMIBA 10 mg com ct bl al a00000114630000015847SANDOZ    0000011183000001546000000110480000015273000001042100000144061GM020420180
7896714273730EZETIMIBA 10mg cx 30 comp     00000047090000006510NEO QUIMIC0000004594000000635100000045390000006275000000428100000059181GM210520180
7899551306869EZETIMIBA+SINVASTATINA 10+10mg00000064410000008904BIOLAB GEN0000006284000000868700000062080000008582000000585500000080941GM200420180
7899551306968EZETIMIBA+SINVASTATINA 10+20mg00000064410000008904BIOLAB GEN0000006284000000868700000062080000008582000000585600000080961GM200420180
7899551307064EZETIMIBA+SINVASTATINA 10+40mg00000112820000015597BIOLAB GEN0000011007000001521700000108740000015033000001025700000141801GM200420180
7896094208001FAULDCARBO 450mg/ml inj 1 fa x00001743270000000000LIBBS     0000170075000000000000001680260000000000000015847900000000001SH230420180
7896094207981FAULDCARBO 50mg/ml inj 1 fa x 00000333050000000000LIBBS     0000032493000000000000000321020000000000000003027800000000001SH230420180
7898924769157FEIBA 1000u po liof inj ct 1fa00003565250000000000SHIRE     0000347829000000000000003436380000000000000032411300000000001OH231120180
7898924769072FEIBA 500u po liof inj ct 1fa 00001876430000000000SHIRE     0000183066000000000000001808600000000000000017058400000000001OH231120180
7898524980778FELISSA 10 mg com rev ct bl al00000030250000004182SUN PHARMA0000002951000000408000000029150000004030000000275000000038021SM221120180
7898524981805FELISSA 10 mg com rev ct bl al00000043200000005972SUN PHARMA0000004215000000582700000041640000005756000000392800000054301SM221120180
7898524981812FELISSA 10 mg com rev ct bl al00000129630000017921SUN PHARMA0000012647000001748400000124950000017274000001178500000162921SM221120180
7898524980839FELISSA 15 mg com rev ct bl al00000023030000003184SUN PHARMA0000002247000000310600000022200000003069000000209400000028951SM221120180
7898524981829FELISSA 15 mg com rev ct bl al00000032900000004548SUN PHARMA0000003210000000443800000031710000004384000000299100000041351SM221120180
7898524980877FELISSA 15 mg com rev ct bl al00000098710000013646SUN PHARMA0000009630000001331300000095140000013153000000897300000124051SM221120180
7898524980891FELISSA 20 mg com rev ct bl al00000059170000008180SUN PHARMA0000005773000000798100000057030000007884000000537900000074361SM221120180
7898524981836FELISSA 20 mg com rev ct bl al00000084540000011687SUN PHARMA0000008248000001140200000081490000011266000000768600000106251SM221120180
7898524980938FELISSA 20 mg com rev ct bl al00000253640000035064SUN PHARMA0000024745000003420900000244470000033797000002305800000318761SM221120180
7898524980792FELISSA 10mg cx 28 comp rev   00000046120000007468SUN PHARMA0000004500000000728600000044460000007198000000419300000067891SM221120180
7898524980860FELISSA 15mg cx 28 comp rev   00000073800000011949SUN PHARMA0000007200000001165800000071130000011518000000670900000108631SM221120180
7898524980921FELISSA 20mg cx 28 comp rev   00000101480000016431SUN PHARMA0000009900000001603000000097810000015837000000922500000149371SM221120180
7896112122494FENAFLAN D 44,3mg disp 20 comp00000006360000000879TEUTO     0000000620000000085700000006130000000847000000057800000007991SM131120180
7891158104350FENOFIBRATO 160mg cx 30 comp r00000050730000007013ABBOTT    0000004949000000684200000048890000006759000000461200000063761GM231120180
7891158104343FENOFIBRATO 200mg cx 30 cap   00000062200000008599ABBOTT    0000006068000000838900000059950000008288000000565400000078161GM231120180
7891317102791FIPRIMA 60mu/ml sol inj l ser 00000491840000000000EUROFARMA 0000047984000000000000000474060000000000000004471200000000001OH010820180
7896360001398FITOLESS 1000mg fr 30 cap     00000034770000000000DOVALLE   000000347700000000000000003477000000000000000034770000000000OOL150520180
7896360001138FLORALAC 120ml fr             00000032280000000000DOVALLE   000000322800000000000000003228000000000000000032280000000000OOL150520180
7895858017002FLORINEFE 0,1mg fr 100 comp   00000212490000029375ASPEN PHAR0000020731000002865900000204810000028314000001931800000267061OM180920180
7899620911956FLUCONAZOL 150mg cx 2 cap     00000012830000001774GLOBO     0000001252000000173100000012370000001710000000116700000016131GM210520180
7899620911963FLUCONAZOL 150mg cx 1 cap     00000008050000001113GLOBO     0000000785000000108500000007760000001073000000073100000010111GM210520180
7899095249318FLUCONAZOL 150mg cx 01 cap    00000007820000001081GEOLAB    0000000763000000105500000007540000001042000000071100000009831GM211120180
7899095249325FLUCONAZOL 150mg cx 02 cap    00000012490000001727GEOLAB    0000001219000000168500000012040000001665000000113600000015701GM211120180
7891317003210FLUCONAZOL 150 mg cap dura ct 00000007450000001030EUROFARMA 0000000727000000100500000007180000000993000000067700000009361GM180920180
7891317003227FLUCONAZOL 150 mg cap dura ct 00000011720000001620EUROFARMA 0000001143000000158000000011290000001561000000106500000014721GM180920180
7891058020521FLUQUADRI 1 fr x 5 ml (10 dose00000423640000058566SANOFI-AVE0000041331000005713800000408330000056449000003851300000532421OM191120180
7891158101625FLUVOXAMINA 100mg cx 30 comp r00000108080000014941ABBOTT    0000010544000001457600000104170000014401000000982500000135821GM231120180
7891158101595FLUVOXAMINA 50mg cx 30 comp re00000056140000007761ABBOTT    0000005477000000757200000054110000007480000000510400000070561GM231120180
7896360000995FOLIANE fr 30 comp rev        00000037360000000000DOVALLE   000000373600000000000000003736000000000000000037360000000000OOL150520180
7898166042124FOSFATO DE POTASSIO 2meq/1ml c00000315760000000000FARMACE   0000030806000000000000000304350000000000000002870600000000001OH190920180
7896004725352FOSLAMER 800mg fr 180 comp ver00000811760000112221GERMED PRE0000079196000010948400000782420000108165000007379600001020191OM181020180
7896672203336FOSTAIR HFA spray aer bucal+di00000108350000014979CHIESI    0000010571000001461400000104440000014438000000985000000136181OM060920180
7896658028212FOXIS 200mg cx 2 cap          00000006390000000883ACHE      0000000623000000086100000006150000000850000000058100000008031SM140520180
7896658028090FOXIS 200mg cx 15 cap         00000031840000004402ACHE      0000003106000000429400000030690000004243000000289400000040011SM180620180
7891268103649FRAGMIN 12500ui cx 10 ser 0,2m00000092380000012771WYETH     0000009013000001246000000089040000012309000000839800000116101OM040420180
7891268103632FRAGMIN 25000ui/ml cx 10 ser 000000160410000022176WYETH     0000015650000002163500000154610000021374000001458300000201601OM040420180
7891268103045FRAGMIN 12500ui inj cx 10 ser 00000092380000012771WYETH     0000009013000001246000000089040000012309000000839800000116101OM040420180
7891268103052FRAGMIN 25000ui cx 10 ser 0,2m00000160410000022176WYETH     0000015650000002163500000154610000021374000001458300000201601OM040420180
8901148239159FULVESTRANTO 50mg/ml sol inj c00002292880000000000DR. REDDYS0000223696000000000000002210010000000000000020844400000000001GH170920180
8901148239296FULVESTRANTO 50mg/ml sol inj c00004585780000000000DR. REDDYS0000447393000000000000004420030000000000000041688900000000001GH170920180
7899095250949FUROSEMIDA 40mg cx 20 comp    00000006010000000830GEOLAB    0000000586000000081000000005790000000800000000054600000007551GM211120180
7899551305572GALANTAMINA 16mg cx 30 cap    00000145200000020073BIOLAB GEN0000014166000001958300000139950000019347000001320000000182481GM231120180
7899551305688GALANTAMINA 24mg cx 30 cap    00000159500000022050BIOLAB GEN0000015561000002151200000153730000021253000001450000000200451GM231120180
7899551305466GALANTAMINA 8mg cx 30 cap     00000129800000017944BIOLAB GEN0000012663000001750600000125110000017295000001180000000163131GM231120180
7899620912946GARGOGEX spray 12 fr 35ml sb g00000090000000000000GLOBO     000000900000000000000000009000000000000000000090000000000000OOL210520180
7899620912922GARGOGEX spray 12 fr 35 ml sb 00000090000000000000GLOBO     000000900000000000000000009000000000000000000090000000000000OOL210520180
7899620912915GARGOGEX spray 12 fr 35 ml sb 00000090000000000000GLOBO     000000900000000000000000009000000000000000000090000000000000OOL210520180
7899620912939GARGOGEX spray 12 fr 35 ml sb 00000090000000000000GLOBO     000000900000000000000000009000000000000000000090000000000000OOL210520180
7896931419300GELFOAM cx 6 esponj gel absorv00001119370000000000PFIZER    000011193700000000000000111937000000000000001119370000000000OOL040420180
7893454100135GEROTREX H3 fr 30 comp rev    00000036760000000000CELLERA FA000000357300000000000000003523000000000000000032950000000000OOL200620180
7897595614223GESTODENO+ETINILESTRADIOL 0,0600000051000000007050SANDOZ    0000004976000000687900000049160000006796000000463700000064101GM020420180
7898040322328GINESSE 0,075+0,020mg cx 63 co00000044490000006150FQM/FARMA 0000004340000000600000000042880000005928000000000000000000001SM170520180
7896523213989GLIBENCLAMIDA 5mg cx 30 comp  00000008030000001110CIMED     0000000783000000108200000007740000001070000000073000000010091GM081120180
7898075317061GLIBENCLAMIDA 5 mg com ct bl a00000008030000001110ONEFARMA  0000000783000000108200000007740000001070000000073000000010091GM081120180
7899095237407GLICEFOR 1g cx 30 comp        00000020070000002775GEOLAB    0000001958000000270700000019340000002674000000182400000025221SM211120180
7897473205949GLICEP XR 500 mg com lib prol 00000010360000001432GLENMARK  0000001011000000139700000009990000001381000000094200000013021SM040420180
7898216371037GLICLAZIDA 30mg cx 60 comp    00000030100000004161PHARLAB   0000002937000000406000000029020000004012000000273700000037841GM170520180
7896004724577GLICLAZIDA 30mg 4bl x 15 comp 00000026570000003673EMS GENERI0000002592000000358300000025610000003540000000241500000033391GM191120180
7896004762319GLICLAZIDA 30mg 2bl x 15 comp 00000015850000002191EMS GENERI0000001546000000213700000015270000002111000000144100000019921GM191120180
7896004752730GLICLAZIDA 60mg 2bl x 15 comp 00000031690000004381EMS GENERI0000003092000000427500000030550000004223000000288100000039831GM191120180
7896004762364GLICLAZIDA 60mg 4 bl x 15 comp00000057050000007887EMS GENERI0000005566000000769500000054990000007602000000518600000071691GM191120180
7898166041813GLICO-FISIOLOGICO 1:1 250ml cx00000238100000000000FARMACE   0000023229000000000000000229490000000000000002164500000000001OH190920180
7898919447657GLICOSE + CLORETO DE SODIO 50+00000006790000000000EUROFARMA 0000000662000000000000000006540000000000000000061700000000001OH310320180
7898919447664GLICOSE + CLORETO DE SODIO 50+00000010360000000000EUROFARMA 0000001011000000000000000009990000000000000000094200000000001OH310320180
7898919447718GLICOSE MONOIDRATADA 50mg/ml s00000005150000000000EUROFARMA 0000000502000000000000000004960000000000000000046800000000001OH310320180
7898919447527GLICOSE MONOIDRATADA 50mg/ml s00000005150000000000EUROFARMA 0000000502000000000000000004960000000000000000046800000000001OH310320180
7898919447725GLICOSE MONOIDRATADA 50mg/ml s00000006540000000000EUROFARMA 0000000638000000000000000006310000000000000000059500000000001OH310320180
7898919447534GLICOSE MONOIDRATADA 50mg/ml s00000006540000000000EUROFARMA 0000000638000000000000000006310000000000000000059500000000001OH310320180
7898919447732GLICOSE MONOIDRATADA 50mg/ml s00000008930000000000EUROFARMA 0000000871000000000000000008610000000000000000081200000000001OH310320180
7898919447541GLICOSE MONOIDRATADA 50mg/ml s00000008930000000000EUROFARMA 0000000871000000000000000008610000000000000000081200000000001OH310320180
7896004739755GLIMATIN 100mg cx 15 comp rev 00000000000000000000EMS MARCAS0000000000000000000000000000000000000000000000000000000000001SM191120180
7896004739762GLIMATIN 400mg cx 30 comp rev 00000000000000000000EMS MARCAS0000000000000000000000000000000000000000000000000000000000001SM191120180
7899095256200GLIMEPIRIDA 2 mg com ct bl al 00000017730000002451GEOLAB    0000001730000000239200000017090000002363000000161200000022281GM211120180
7899095256231GLIMEPIRIDA 4 mg com ct bl al 00000026960000003727GEOLAB    0000002630000000363600000025980000003592000000245100000033881GM211120180
7896360001053GLINEON A-Z fr 60 comp rev    00000068990000000000DOVALLE   000000689900000000000000006899000000000000000068990000000000OOL150520180
7896360001336GLINEON OMEGA A-Z fr 30 cap ge00000047440000000000DOVALLE   000000474400000000000000004744000000000000000047440000000000OOL150520180
7896360001077GLINEON POLIVITAMINICO fr 500m00000029270000000000DOVALLE   000000292700000000000000002927000000000000000029270000000000OOL150520180
7898560663949GLUCOREUMIN 1500mg po sol cx 100000052830000007303MYLAN     0000005154000000712500000050920000007039000000480300000066401SM180920180
7898560663956GLUCOREUMIN 1500mg po sol cx 300000142830000019745MYLAN     0000013935000001926400000137670000019032000001298500000179511SM180920180
7899620910935GOJI BERRY c/ 60 capsulas     00000049000000000000GLOBO     000000490000000000000000004900000000000000000049000000000000OOL210520180
7898609960503GRANULOKINE 30mu/ml sol inj 4f00001962300000000000AMGEN     0000191444000000000000001891370000000000000017839100000000001OH021020180
7898609960534GRANULOKINE 60mu/ml sol inj 1 00000491840000000000AMGEN     0000047984000000000000000474060000000000000004471200000000001OH021020180
7899551307859HAGIVAN 62,5mg fr 60 comp rev 00001755100000242632BIOLAB SAN0000171229000023671400001691660000233862000015955500002205751SM150820180
7899551307866HAGIVAN 125mg fr 60 comp rev  00003069470000424336BIOLAB SAN0000299460000041398600002958520000408997000027904300003857601SM091120180
7896676431292HALO  DECANOATO 50mg/ml sol in00000365180000000000CRISTALIA 0000035627000000000000000351980000000000000003319800000000001SH060620180
7895296444026HEM. ZOLPIDEM 10mg blt 15 com 00000051300000007092NOVA QUIMI0000005005000000691900000049450000006836000000466400000064481GM211120180
7891721026836HEMIFUMARATO DE BISOPROLOL 1,200000041930000005797MERCK     0000004091000000565600000040420000005588000000381200000052701GM071120180
7891721026898HEMIFUMARATO DE BISOPROLOL 2,500000048300000006677MERCK     0000004712000000651400000046550000006435000000439100000060701GM071120180
7891721026959HEMIFUMARATO DE BISOPROLOL 5mg00000058730000008119MERCK     0000005730000000792100000056610000007826000000533900000073811GM071120180
7891721027017HEMIFUMARATO DE BISOPROLOL 10m00000066930000009253MERCK     0000006530000000902700000064510000008918000000608500000084121GM071120180
7891721030048HEMIFUMARATO DE QUETIAPINA 10000000203210000028093MERCK     0000020321000002809300000200760000027754000001893500000261771GM071120180
7891721030031HEMIFUMARATO DE QUETIAPINA 25m00000030530000004221MERCK     0000003053000000422100000030160000004169000000284500000039331GM071120180
7897595633705HEMITARTARATO DE ZOLPIDEM 10mg00000032760000004529NOVARTIS  0000003196000000441800000031570000004364000000297800000041171GM170720180
7897595634634HEMITARTARATO DE ZOLPIDEM 10mg00000049150000006795NOVARTIS  0000004795000000662900000047370000006549000000446800000061771GM170720180
7891317000752HEMITARTARATO DE ZOLPIDEM 10mg00000033390000004616EUROFARMA 0000003258000000450400000032190000004450000000303600000041971GM160720180
7897595608161HEMITARTARATO DE ZOLPIDEM 10 m00000052100000007203SANDOZ    0000005083000000702700000050220000006943000000473600000065471GM110920180
7898924769379HEMOFIL 250ui sol inj fa inc+s00000946790000000000SHIRE     0000092370000000000000000912570000000000000008607200000000001OH231120180
7898924769386HEMOFIL 500ui sol inj fa inc+s00001798880000000000SHIRE     0000175500000000000000001733860000000000000016353400000000001OH231120180
7898924769393HEMOFIL 1000ui sol inj fa inc+00003417970000000000SHIRE     0000333460000000000000003294420000000000000031072400000000001OH231120180
7898939811513HEMOLENTA 6,14+0,18596mg/ml so00000000000000000000EUROFARMA 0000000000000000000000000000000000000000000000000000000000001OH310320180
